S01100002E2E2F50726F746575732E73313966
S32D0000C000000000205DC2000011C3000017C300001DC3000023C3000029C3000000000000000000000000000073
S32D0000C028000000002FC3000035C30000000000003BC3000041C3000011DD00001DDD000029DD000035DD0000FE
S32D0000C05041DD00004DDD000059DD000065DD000071DD00007DDD000089DD000095DD0000A1DD0000ADDD00007A
S32D0000C078B9DD0000C5DD0000D1DD0000DDDD0000E9DD0000F5DD000001DE00000DDE000019DE000025DE00009E
S32D0000C0A031DE00003DDE000049DE000055DE000061DE00006DDE000079DE000085DE000091DE00009DDE0000C0
S32D0000C0C8A9DE0000B5DE0000C1DE0000CDDE0000D9DE0000E5DE0000F1DE0000FDDE000009DF000015DF0000E6
S32D0000C0F021DF0000A53401002DDF000039DF000045DF000051DF00005DDF000069DF000075DF000081DF000098
S32D0000C1188DDF000099DF0000A5DF0000B1DF0000BDDF0000C9DF0000D5DF0000E1DF0000EDDF0000F9DF0000A5
S32D0000C14005E0000011E000001DE0000029E00000C10B010035E0000041E000004DE0000059E0000065E0000047
S32D0000C16871E000007DE0000089E0000095E00000A1E00000ADE00000B9E00000C5E00000D1E00000DDE0000063
S32D0000C190E9E00000F5E0000001E10000B9070100810601001D07010095DA0000590801000DE1000019E10000DA
S32D0000C1B825E100007CC5010000000020D81600007CC501000000FF1F00000000D81600209C0400000000FF1FD7
S32D0000C1E00000000080B489B000AFF860B9607A60BB68FB61FB68BB6100237B617A697B689A420BD2BA69131DFB
S32D0000C208BB61FB69191DF96112681A607B6904337B61EFE700BF2437BD4680BC704780B485B000AF786039609E
S32D0000C2307B68FB600023BB60BA683B689A4208D2FB681A1DFA6000221A60BB680433BB60F2E700BF1437BD46FE
S32D0000C25880BC704780B586B000AF72B6234B4CF220521A80214B4DF628121A80204B4FF4E9721A801F4B7B615F
S32D0000C2807B691F4A934214D27B691A1D7A611B683B617B691A1D7A611B68FB607B691A1D7A611B68BB60BA68E9
S32D0000C2A8F9683869FFF79AFFE6E77B69134A93420ED27B691A1D7A611B68FB607B691A1D7A611B68BB60B9688B
S32D0000C2D0F868FFF7A8FFECE70B4B7B600B4A7B681A6009F047FA62B601F09CFC01F0F0F9FEE700BF0E200540C1
S32D0000C2F800200540BCC10000D4C10000E4C1000008ED00E000C0000080B400AFFEE780B400AFFEE780B400AFF4
S32D0000C320FEE780B400AFFEE780B400AFFEE780B400AFFEE780B400AFFEE780B400AFFEE780B400AFFEE780B426
S32D0000C34800AFFEE7FFFFFFFFFFFFFFFFFFFFFFFFFFFFFFFFFFFFFFFFFFFFFFFFFFFFFFFFFFFFFFFFFFFFFFFF57
S32D0000C370FFFFFFFFFFFFFFFFFFFFFFFFFFFFFFFFFFFFFFFFFFFFFFFFFFFFFFFFFFFFFFFFFFFFFFFFFFFFFFFFC7
S32D0000C398FFFFFFFFFFFFFFFFFFFFFFFFFFFFFFFFFFFFFFFFFFFFFFFFFFFFFFFFFFFFFFFFFFFFFFFFFFFFFFFF9F
S32D0000C3C0FFFFFFFFFFFFFFFFFFFFFFFFFFFFFFFFFFFFFFFFFFFFFFFFFFFFFFFFFFFFFFFFFFFFFFFFFFFFFFFF77
S32D0000C3E8FFFFFFFFFFFFFFFFFFFFFFFFFFFFFFFFFFFFFFFFFFFFFFFFFFFFFFFFFFFFFFFFFFFFFFFFFEFFFFFF50
S32D0000C44010B5054C237833B9044B13B10448AFF300800123237010BDD81600200000000010C4000008B5034B3F
S32D0000C4681BB103490348AFF3008008BD00000000DC16002010C4000080B483B000AF78607B6823F000431846F1
S32D0000C4900C37BD4680BC7047F0B585B000AF78602C4B1B687968184608F0DCFD0346184608F09EFF0346FB60FA
S32D0000C4B8274804F02BFA274804F028FA264B1B68184608F077FD03461946244801F0ACFE234B1B68184608F095
S32D0000C4E06DFD03461946214801F0A2FE1B4804F0FFF90446184804F0FBF903462344184608F006F94FF00002FB
S32D0000C5084FF0804308F094FA02460B4614461D46F86808F0F9F802460B4601210E462046294608F0CDFB0346F1
S32D0000C530002B01D100231E46F3B2002B00D0D5E7084801F033FE094801F030FE00BF1437BD46F0BD0000002041
S32D0000C558F4160020F81600200C000020FC1600200800002004170020F0B585B000AF78602F4B1B6879681846FF
S32D0000C58008F070FD0346184608F032FF0346FB602A4804F0BFF92A4804F0BCF9294B1B685B42184608F00AFD8A
S32D0000C5A803461946264801F03FFE264B1B685B42184608F0FFFC03461946234801F034FE1D4804F091F90446DC
S32D0000C5D01A4804F08DF903462344002BB8BF5B42184608F095F84FF000024FF0804308F023FA02460B46144644
S32D0000C5F81D46F86808F088F802460B4601210E462046294608F05CFB0346002B01D100231E46F3B2002B00D03A
S32D0000C620D2E7094801F0C2FD094801F0BFFD00BF1437BD46F0BD00BF00000020F4160020F81600200C00002017
S32D0000C648FC1600200800002004170020F0B585B000AF78602D4B1B687968184608F0FEFC0346184608F0C0FE45
S32D0000C6700346FB60284804F04DF9284804F04AF9274B1B685B00184608F098FC03461946244801F0CDFD244B2F
S32D0000C6981B685B00184608F08DFC03461946214801F0C2FD1B4804F01FF90446184804F01BF9034623441846C7
S32D0000C6C008F026F84FF000024FF0804308F0B4F902460B4614461D46F86808F019F802460B4601210E4620461A
S32D0000C6E8294608F0EDFA0346002B01D100231E46F3B2002B00D0D5E7084801F053FD094801F050FD00BF143783
S32D0000C710BD46F0BD00000020F4160020F81600200C000020FC1600200800002004170020F0B585B000AF7860B1
S32D0000C7382D4B1B687968184608F090FC0346184608F052FE0346FB60284804F0DFF8284804F0DCF8274B1B681A
S32D0000C760184608F02BFC03461946254801F060FD244B1B685B42184608F020FC03461946214801F055FD1C4812
S32D0000C78804F0B2F80446194804F0AEF803462344184607F0B9FF4FF000024FF0804308F047F902460B46144675
S32D0000C7B01D46F86807F0ACFF02460B4601210E462046294608F080FA0346002B01D100231E46F3B2002B00D033
S32D0000C7D8D5E7094801F0E6FC094801F0E3FC00BF1437BD46F0BD00BF04000020F4160020F81600200C00002011
S32D0000C800FC1600200800002004170020F0B585B000AF7860786808F0D1FB02462D4B1B681946104608F01EFC66
S32D0000C8280346184608F0E0FD0346FB60284804F06DF8284804F06AF8274B1B685B42184608F0B8FB03461946F0
S32D0000C850244801F0EDFC244B1B68184608F0AEFB03461946214801F0E3FC1C4804F040F80446194804F03CF83F
S32D0000C87803462344184607F047FF4FF000024FF0804308F0D5F802460B4614461D46F86807F03AFF02460B46C0
S32D0000C8A001210E462046294608F00EFA0346002B01D100231E46F3B2002B00D0D5E7094801F074FC094801F002
S32D0000C8C871FC00BF1437BD46F0BD00BF04000020F4160020F81600200C000020FC16002008000020041700201F
S32D0000C8F0B0B582B000AF03F0A3FB02460B461046194608F051FA03463B600123FB712C4803F0BCFC0346002BAB
S32D0000C91805D12A4803F0B6FC0346002B04D0FB79002B01D0012300E00023002B36D0244B1B68184608F03EFB73
S32D0000C94003461946214801F073FC214B1B68184608F034FB034619461E4801F069FC03F06FFB04460D463868E6
S32D0000C96807F0E4FE02460B462046294607F07EFD02460B461046194601231C464FF00002134B08F0BBF9034680
S32D0000C990002B01D100231C46E3B2002BB7D00023FB71B4E74FF00001084801F041FC4FF00001084801F03CFC0F
S32D0000C9B800BF0837BD46B0BD101700200C1700200C000020FC160020080000200417002000001040B0B582B0B1
S32D0000C9E000AF03F02DFB02460B461046194608F0DBF903463B600123FB712C4803F046FC0346002B0AD02A4868
S32D0000CA0803F040FC0346002B04D0FB79002B01D0012300E00023002B36D0244B1B68184608F0C8FA034619460F
S32D0000CA30214801F0FDFB214B1B68184608F0BEFA034619461E4801F0F3FB03F0F9FA04460D46386807F06EFE16
S32D0000CA5802460B462046294607F008FD02460B461046194601231C464FF00002134B08F045F90346002B01D157
S32D0000CA8000231C46E3B2002BB7D00023FB71B4E74FF00001084801F0CBFB4FF00001084801F0C6FB00BF08370B
S32D0000CAA8BD46B0BD101700200C1700200C000020FC160020080000200417002000001040B0B584B000AF0023EA
S32D0000CAD0FB600123FB7203F0B3FA02460B461046194608F061F903467B60FB7A002B00F00C81FB68022B7DD0EE
S32D0000CAF8FB68022B00F3A080FB68002B03D0FB68012B4DD098E0884B1B68184608F052FA03461946854801F08A
S32D0000CB2087FB854B1B68184608F048FA03461946824801F07DFB824803F00EFF0346184607F0F8FD01231C46BC
S32D0000CB4877A3D3E9002308F0BBF80346002B01D100231C46E3B2002B05D00123FB607749774805F0B7F877485A
S32D0000CB7003F0F2FE0346184607F0DCFD01231C4669A3D3E9002308F09FF80346002B01D100231C46E3B2002BB2
S32D0000CB9854D00223FB606C49694805F09BF84DE06A49644801F040FB4FF000015F4801F03BFB674803F0CCFEAB
S32D0000CBC00346184607F0B6FD01231C4656A3D3E9002308F079F80346002B01D100231C46E3B2002B30D0002381
S32D0000CBE8FB605C49564805F075F829E04FF00001504801F019FB55494C4801F015FB544803F0A6FE034618462C
S32D0000CC1007F090FD01231C4643A3D3E9002308F053F80346002B01D100231C46E3B2002B0CD00023FB6049496D
S32D0000CC38434805F04FF805E000BF04E000BF02E000BF00E000BF032003F09AF903F0F4F904460D46786807F083
S32D0000CC6069FD02460B462046294607F003FC02460B461046194601231C464FF00002384B08F036F80346002BAA
S32D0000CC8801D100231C46E3B2002B3FF42AAF2D4803F05EFE0346184607F048FD20A3D3E9002308F021F80346B8
S32D0000CCB0002B1FD0284803F04FFE0346184607F039FD19A3D3E9002308F012F80346002B10D01B4803F040FE33
S32D0000CCD80346184607F02AFD11A3D3E9002308F003F80346002B01D0012300E00023002B3FF4F7AE0023FB72E4
S32D0000CD001849114804F0EAFFEFE64FF00001094801F08EFA4FF00001084801F089FA00BF1037BD46B0BD00BF56
S32D0000CD289A999999999905400C000020FC160020080000200417002018170020CCBA01001C1A002020170020BD
S32D0000CD50D4BA01000000C8411C170020DCBA01000000E03FE4BA010090B583B000AF4FF000033B604FF0000032
S32D0000CD784FF0804103F03AF91F4803F0E9FD034619461E4804F0B9FF1B4803F0E1FD0346184607F0CBFC0123B0
S32D0000CDA01C4615A3D3E9002307F08EFF0346002B01D100231C46E3B2002B0AD000237B60104804F020FD4FF4D9
S32D0000CDC87F010E4804F03AFD08E001237B600B4804F015FDFF21094804F030FD0848FFF757FB7B6818460C374E
S32D0000CDF0BD4690BDAFF300809A9999999999F13F141700201C1A0020CDCCCC3DB0B584B000AF7860594804F0E4
S32D0000CE18F6FC7B68012B53D15749564804F05AFF5648FFF7A1FB2D20FFF7ECFC03F004F902460B4610461946A3
S32D0000CE4007F0B2FF0346FB6003F0FAF804460D46F86807F06FFC02460B462046294607F009FB02460B461046DC
S32D0000CE68194601231C464FF000024FF0804307F027FF0346002B01D100231C46E3B2002B14D03F4B1B6818467D
S32D0000CE9008F094F8034619463C4801F0C9F93C4B1B68184608F08AF803461946394801F0BFF9C9E74FF000016D
S32D0000CEB8344801F0B9F94FF00001344801F0B4F97B68002B52D132492A4804F003FF3148FFF74AFB2D20FFF7C8
S32D0000CEE095FC03F0ADF802460B461046194607F05BFF0346BB6003F0A3F804460D46B86807F018FC02460B4609
S32D0000CF082046294607F0B2FA02460B461046194601231C464FF000021F4B07F0D1FE0346002B01D100231C4673
S32D0000CF30E3B2002B14D0144B1B68184608F03EF803461946114801F073F9114B1B68184608F034F8034619465A
S32D0000CF580E4801F069F9CAE74FF00001094801F063F94FF00001094801F05EF900BF1037BD46B0BD1C1A0020CE
S32D0000CF80F0BA01000000304108000020041700200C000020FC160020F8BA0100000090410000084080B582B073
S32D0000CFA800AF6649664804F00BF8664807F09CF878607B68002B38D14FF07E50FFF7B4FB61495F4803F0FCFF3F
S32D0000CFD04FF000005F4903F00DF85F48FFF7C8FA4FF000005B4903F005F85949564803F0EBFF4FF07E5154485B
S32D0000CFF803F0E6FF4FF00000564902F0F7FF56494F4803F0DDFF4FF00000504902F0EEFF4FF08040FFF73CFA86
S32D0000D0205049494803F0D0FF4FF07C50FFF734FA84E07B68012B41D14FF07E50FFF778FB4948FFF795FA4FF077
S32D0000D0480000424902F0D2FF3F493D4803F0B8FF4FF000003D4902F0C9FF4FF08040FFF783FA4FF00000394903
S32D0000D07002F0C0FF4FF07E51334803F0A5FF4FF00000364902F0B6FF4FF07E512E4803F09BFF33492C4803F068
S32D0000D09897FF4FF000002D4902F0A8FF4FF08040FFF7F6F92D49264803F08AFF2C48FFF7EFF93FE04FF07E50C4
S32D0000D0C0FFF736FB4FF08240FFF752FA4FF00000204902F08FFF1E491B4803F075FF4FF000001C4902F086FF64
S32D0000D0E82048FFF741FA4FF00000184902F07EFF1549134803F064FF4FF07E51104803F05FFF4FF00000134911
S32D0000D11002F070FF12490C4803F056FF4FF000000C4902F067FF4FF08040FFF7B5F90D49054803F049FF0E48D6
S32D0000D138FFF7AEF900BF0837BD4680BD0000344224170020841A00200000A0410000E03F0000204000001640A9
S32D0000D1600000C8410000F04200009040000010400000044180B500AF0B490C4803F024FF4FF000000A4902F0DB
S32D0000D18835FF0A49074803F01BFF4FF00000064902F02CFF0649034803F012FF00BF80BD000033432417002080
S32D0000D1B00000F03F0000704200002F4380B582B000AF78603960786807F0F8FE034619460C4801F02DF87B68B5
S32D0000D1D85B42184607F0EEFE03461946084801F023F8386802F0E2FE044800F0DBFF044800F0D8FF00BF0837AE
S32D0000D200BD4680BDFC1600200417002080B582B000AF78603960786807F0D0FE034619460B4801F005F878685E
S32D0000D22807F0C8FE03461946084800F0FDFF386802F0BCFE044800F0B5FF044800F0B2FF00BF0837BD4680BDD0
S32D0000D250FC1600200417002090B585B000AF786039601423FB603B68012B02D16FF01303FB60474806F076FFAB
S32D0000D27803464649184608F0ADF80346002B23D0414806F06BFF04464FF07E51786807F0DBFD03461946204650
S32D0000D2A008F07EF80346002B10D1394806F05AFF04464FF07E51786807F0CCFD03461946204608F08BF8034603
S32D0000D2C8002B01D0012300E00023002B54D02E4806F044FF0346012214461946786808F05BF80346002B01D181
S32D0000D2F000231C46E3B2002B06D0FB685B4226491846FFF783FF15E0214806F02BFF034601221446194678682D
S32D0000D31808F060F80346002B01D100231C46E3B2002B03D01A49F868FFF76CFF14A1D1E9000102F05BFE1448FE
S32D0000D34006F010FF0346012214464FF00001184608F026F80346002B01D100231C46E3B2002B04D008A1D1E97E
S32D0000D368000102F043FE084806F0F8FE03461946084804F0C2FC78E700BF1437BD4690BD666666666666D63F4B
S32D0000D390841A00200000C0BFCDCCCC3D1C1A002090B585B000AF786039601423FB603B68012B02D16FF01303F7
S32D0000D3B8FB60474806F0E0FE03464649184608F009F80346002B23D0414806F0D5FE04464FF07E51786807F072
S32D0000D3E037FD03461946204607F0DAFF0346002B10D1394806F0C4FE04464FF07E51786807F028FD0346194683
S32D0000D408204607F0E7FF0346002B01D0012300E00023002B54D02E4806F0AEFE0346012214461946786807F0E4
S32D0000D430B7FF0346002B01D100231C46E3B2002B06D0FB685B4226491846FFF7DFFE15E0214806F095FE0346E7
S32D0000D458012214461946786807F0BCFF0346002B01D100231C46E3B2002B03D01A49F868FFF7C8FE14A1D1E9EC
S32D0000D480000102F0B7FD144806F07AFE0346012214464FF00001184607F082FF0346002B01D100231C46E3B2D1
S32D0000D4A8002B04D008A1D1E9000102F09FFD084806F062FE03461946084804F01EFC78E700BF1437BD4690BD00
S32D0000D4D0666666666666D63F841A00200000C0BFCDCCCC3D1C1A002090B587B000AF786039600123FB75FB7DD8
S32D0000D4F8002B2CD06E4806F04DFE03466D49184607F068FF0346002B21D0694806F042FE04463968786807F01F
S32D0000D52097FC03461946204607F03AFF0346002B0FD1614806F032FE04463968786807F089FC03461946204694
S32D0000D54807F048FF0346002B01D0012300E00023002B00F0A580564806F01CFE03461946554804F0CAFB524885
S32D0000D57006F014FE3861504806F010FE0346012214461946786807F00BFF0346002B01D100231C46E3B2002BBF
S32D0000D59805D04A496FF00E00FFF70CFE15E0444806F0F8FD0346012214461946786807F011FF0346002B01D1D2
S32D0000D5C000231C46E3B2002B03D03E490F20FFF7F5FD37A1D1E9000102F00CFD364806F0DDFDF8604FF0000113
S32D0000D5E8386907F0F7FE0346002B3AD04FF00001F86807F0EFFE0346002B32D0F968386907F022FC0346184652
S32D0000D610FEF736FF0346012214462B49184607F0DDFE0346002B01D100231C46E3B2002B1BD02649386907F0DB
S32D0000D638D1FE0346002B07D020496FF00400FFF7B9FD0023FB750CE01E49F86807F0C2FE0346002B05D019498A
S32D0000D6600520FFF7ABFD0023FB7511A1D1E9000102F0C0FC104806F091FD0346012214464FF00001184607F0F4
S32D0000D6888BFE0346002B01D100231C46E3B2002B3FF42DAF04A1D1E9000102F0A7FC26E700BF1C37BD4690BDED
S32D0000D6B0666666666666D63F841A00200000C0BF1C1A0020CDCCCC3D0000C8420000484390B585B000AF0021BF
S32D0000D6D8994804F07EF86FF07F41974804F0D5F8964806F0E1FA4FF4FA71954803F02EFC40F6C411924803F0EB
S32D0000D70046FC4FF4FA71914803F024FC40F6C4118E4803F03CFC8E49894804F0DFFA3A1D07F108031946864817
S32D0000D72804F02AF9034683F00103DBB2002B00D0F1E73A1D07F1080319467F4804F01CF90346002B00D0F4E7F4
S32D0000D7507B4804F058F87F49794804F0BFFA7E4803F0FAF80346012214467C49184607F035FE0346002B01D16A
S32D0000D77800231C46E3B2002B00D0ECE76E4804F03EF875496C4804F0A5FA7448FEF780FE8220FFF737F84FF081
S32D0000D7A07E517148FFF7A0FE7049684803F00CFC4FF07C50FEF770FEFFF7F4FB4FF07E516948FFF791FEFFF74E
S32D0000D7C893F84FF07C50FEF7CFFE6748FEF7ACFF4FF07E516548FFF783FE6548FEF736FF4FF07E516148FFF7D6
S32D0000D7F07BFE00216148FFF7D3FD5D48FEF798FF4FF07E515E48FFF76FFE5E48FEF744FE01215D48FFF720FD03
S32D0000D8185C48FEF789FFFFF7DDF85B49484803F0CFFB4FF00000594902F0E0FB4F49444803F0C6FB5648FEF7EC
S32D0000D84097FE5648FEF774FF4FF07E515448FFF74BFEFFF739F94FF00001524800F0E8FC4FF00001504800F098
S32D0000D868E3FC4648FEF760FF4FF08040FEF710FEFFF776FAF8604148FEF756FFFFF734F8F868FFF7BFFA334892
S32D0000D890FEF76EFE00214548FFF782FD3448FEF747FF4349294803F08FFB4FF07E513448FFF71AFEFB68012B8E
S32D0000D8B803D13E48FEF758FE03E04FF08040FEF753FE01213A48FFF7C3FCFFF74FFC3048FEF7DEFD5520FEF729
S32D0000D8E095FF4FF07E512348FFF7FEFD3348FEF73FFE5A20FEF78AFFFEF7FAFF4FF07C50FEF736FE5A20FEF7E6
S32D0000D90881FF2D48FEF7C4FD2D20FEF77BFF2948FEF7BEFD2948FEF707FF2748FEF7B8FD4FF000004FF08041A5
S32D0000D93002F060FB002318461437BD4690BD00BF1C1A0020841A00203017002024170020FCBA010018BB010040
S32D0000D958141700200000404030BB010000008C410000B442000034420000AA42000034430000D84100004642AD
S32D0000D9800000874300007041000050410000B042000048420000E03F0000A0400000254300002843FC160020ED
S32D0000D9A8041700200000744200002F430000C0400000C041000040410000A0410000A04280B582B000AF7860BB
S32D0000D9D039607B68012B36D13B684FF6FF72934231D109211A4802F0D5FC0A21194802F0D1FC194A00211948CB
S32D0000D9F800F09AFB164A0121174800F095FB0C21164802F063FB0D21154802F05FFB0821144802F08DFF002145
S32D0000DA20134802F089FF0121124802F085FF0221114802F081FF0021104803F06FFA01210F4803F06BFA00BFBE
S32D0000DA480837BD4680BD00BFF4160020F816002000001041FC160020041700200C170020101700201417002087
S32D0000DA70181700201C17002020170020241700203017002080B500AF4FF6FF710120FFF79BFF80BD80B500AF62
S32D0000DA980F4BD3F8A03003F48053002B14BF01230023DBB2002B10D0094BD3F8A030084A23F48053C2F8A0300F
S32D0000DAC0064806F04DFC064B1B68054A23F40053136000BF80BD00BF00C00440A41A0020C0F00F4080B400AF2C
S32D0000DAE8124B4FF480725A63114B5B69104A43F4005353610E4B1B680D4A43F4005313600A4B0C4A1A630C4B5A
S32D0000DB10D3F888310A4A43F08063C2F88831084B9B68074A43F08063936000BFBD4680BC704700BF00C004405E
S32D0000DB38C0F00F4003010A0000E100E080B400AF334B00225A70324B98221A70304B9B79DBB203F01003002B96
S32D0000DB6014BF01230023DBB2002B00D0F2E72A4B9B79DBB29B08DBB203F00303022B14BF01230023DBB2002BDE
S32D0000DB8800D0F0E7224B18221A71214B00225A71204B03F580531A461F4B53641C4B54225A711B4B9B79DBB2D7
S32D0000DBB003F02003002B0CBF01230023DBB2002B00D0F2E7144B9B79DBB203F04003002B0CBF01230023DBB293
S32D0000DBD8002B00D0F2E70E4B1B78DBB20C4A03F03F03DBB213700A4B9B79DBB29B08DBB203F00303032B14BF17
S32D0000DC0001230023DBB2002B00D0F0E700231846BD4680BC704700BF00400640007004400000130180B500AFE8
S32D0000DC28314B03F580539B6B2F4A43F4785302F580529363FFF752FFFFF780FF2B4B58221A602A4B1B684FF4E6
S32D0000DC507A7202FB03F3284A1360274B1B681A46234B03F580535B6C1B0E03F00F030133B2FBF3F31A46214BCC
S32D0000DC781A601D4B03F58053DB6B1B4A43F0225302F58052D363184B03F580531B6B164A43F0006302F580520C
S32D0000DCA01363174B4FF480721A61642002F058F8134B5B69124A23F010035361104B00221A600F4B10225A6172
S32D0000DCC80E4803F029FC02F02BFF02F089FF0C4802F0A4F80B4806F093FB4FF4FA6002F04FF900BF80BD00BFDF
S32D0000DCF00070044068190020641900206C19002000D003401C1A002060190020141B002080B500AFFEF717FB33
S32D0000DD1800BF80BD80B500AFFEF711FB00BF80BD80B500AFFEF70BFB00BF80BD80B500AFFEF705FB00BF80BD50
S32D0000DD4080B500AFFEF7FFFA00BF80BD80B500AFFEF7F9FA00BF80BD80B500AFFEF7F3FA00BF80BD80B500AF79
S32D0000DD68FEF7EDFA00BF80BD80B500AFFEF7E7FA00BF80BD80B500AFFEF7E1FA00BF80BD80B500AFFEF7DBFAA1
S32D0000DD9000BF80BD80B500AFFEF7D5FA00BF80BD80B500AFFEF7CFFA00BF80BD80B500AFFEF7C9FA00BF80BD8F
S32D0000DDB880B500AFFEF7C3FA00BF80BD80B500AFFEF7BDFA00BF80BD80B500AFFEF7B7FA00BF80BD80B500AFB5
S32D0000DDE0FEF7B1FA00BF80BD80B500AFFEF7ABFA00BF80BD80B500AFFEF7A5FA00BF80BD80B500AFFEF79FFA19
S32D0000DE0800BF80BD80B500AFFEF799FA00BF80BD80B500AFFEF793FA00BF80BD80B500AFFEF78DFA00BF80BDCA
S32D0000DE3080B500AFFEF787FA00BF80BD80B500AFFEF781FA00BF80BD80B500AFFEF77BFA00BF80BD80B500AFF0
S32D0000DE58FEF775FA00BF80BD80B500AFFEF76FFA00BF80BD80B500AFFEF769FA00BF80BD80B500AFFEF763FA90
S32D0000DE8000BF80BD80B500AFFEF75DFA00BF80BD80B500AFFEF757FA00BF80BD80B500AFFEF751FA00BF80BD06
S32D0000DEA880B500AFFEF74BFA00BF80BD80B500AFFEF745FA00BF80BD80B500AFFEF73FFA00BF80BD80B500AF2C
S32D0000DED0FEF739FA00BF80BD80B500AFFEF733FA00BF80BD80B500AFFEF72DFA00BF80BD80B500AFFEF727FA08
S32D0000DEF800BF80BD80B500AFFEF721FA00BF80BD80B500AFFEF71BFA00BF80BD80B500AFFEF715FA00BF80BD42
S32D0000DF2080B500AFFEF70FFA00BF80BD80B500AFFEF709FA00BF80BD80B500AFFEF703FA00BF80BD80B500AF67
S32D0000DF48FEF7FDF900BF80BD80B500AFFEF7F7F900BF80BD80B500AFFEF7F1F900BF80BD80B500AFFEF7EBF983
S32D0000DF7000BF80BD80B500AFFEF7E5F900BF80BD80B500AFFEF7DFF900BF80BD80B500AFFEF7D9F900BF80BD80
S32D0000DF9880B500AFFEF7D3F900BF80BD80B500AFFEF7CDF900BF80BD80B500AFFEF7C7F900BF80BD80B500AFA6
S32D0000DFC0FEF7C1F900BF80BD80B500AFFEF7BBF900BF80BD80B500AFFEF7B5F900BF80BD80B500AFFEF7AFF9FB
S32D0000DFE800BF80BD80B500AFFEF7A9F900BF80BD80B500AFFEF7A3F900BF80BD80B500AFFEF79DF900BF80BDBC
S32D0000E01080B500AFFEF797F900BF80BD80B500AFFEF791F900BF80BD80B500AFFEF78BF900BF80BD80B500AFE1
S32D0000E038FEF785F900BF80BD80B500AFFEF77FF900BF80BD80B500AFFEF779F900BF80BD80B500AFFEF773F972
S32D0000E06000BF80BD80B500AFFEF76DF900BF80BD80B500AFFEF767F900BF80BD80B500AFFEF761F900BF80BDF7
S32D0000E08880B500AFFEF75BF900BF80BD80B500AFFEF755F900BF80BD80B500AFFEF74FF900BF80BD80B500AF1D
S32D0000E0B0FEF749F900BF80BD80B500AFFEF743F900BF80BD80B500AFFEF73DF900BF80BD80B500AFFEF737F9EA
S32D0000E0D800BF80BD80B500AFFEF731F900BF80BD80B500AFFEF72BF900BF80BD80B500AFFEF725F900BF80BD33
S32D0000E10080B500AFFEF71FF900BF80BD80B500AFFEF719F900BF80BD80B500AFFEF713F900BF80BD80B500AF58
S32D0000E128FEF70DF900BF80BD80B584B000AFF8600B467A60FB72FB68FA7A1A71FB6800225A711749786807F0E1
S32D0000E15045F90346002B02D0134B7B600AE04FF07E51786807F026F90346002B02D04FF07E537B60786806F0EF
S32D0000E178DDFA09A3D3E9002306F030FB02460B461046194606F00CFE0246FB681A60FB6818461037BD4680BD3B
S32D0000E1A0ABAAAAAAAAAA20400000404180B582B000AF78607B685B79002B09D07B6800225A717B6819791E2344
S32D0000E1C80022034801F064FE00BF0837BD4680BD6019002080B584B000AF786039603B687F2B02DD7F23FB73CD
S32D0000E1F008E03B6813F1800F02DA8023FB7301E03B68FB737B685B79FA7B9A4209D07B68FA7B5A717B6819798B
S32D0000E218FA7B1E23034801F03BFE00BF1037BD4680BD00BF60190020B0B584B000AF786039603749386807F03F
S32D0000E240AFF80346002B02D0334B3B6008E03349386807F0C3F80346002B01D02F4B3B60386806F067FA044659
S32D0000E2680D467B681B68184606F060FA4FF00002294B06F0DDFB02460B462046294606F0ADFA02460B461046A4
S32D0000E290194606F089FD03463B604FF00001386807F092F80346002B10D0386806F042FA17A3D3E9002306F08B
S32D0000E2B895FA02460B461046194606F029FD0346FB6018E0386806F031FA4FF00002134B06F084FA02460B4636
S32D0000E2E0104619464FF000020D4B06F0A5FB02460B461046194606F00FFD0346FB60F9687868FFF76BFF00BFD8
S32D0000E3081037BD46B0BD00BF52B81E85EB51F43F0000C8C20000C842000059400000604080B483B000AF034629
S32D0000E3300A46FB711346BB71BB79002B03D1134B00221A7002E0114B01221A703823FB710E4B1A78FB791343DA
S32D0000E358FB710D4B9B78DBB20B4A43F01003DBB29370094B9B78DBB2074A43F02003DBB29370054AFB79137196
S32D0000E38000BF0C37BD4680BC704700BF3C1700200060064080B483B000AF01237B607B68312B04DC00BF7B68C9
S32D0000E3A801337B60F7E700BF0C37BD4680BC704780B582B000AF03460A46FB711346BB71134B1B780021184652
S32D0000E3D0FFF7AAFF00F024F8104AFB79137100F01FF80E4ABB79137100F01AF80B4B9B78DBB20A4A23F0200389
S32D0000E3F8DBB29370074B9B78DBB2064A23F01003DBB29370FFF7C2FF00BF0837BD4680BD3D1700200060064060
S32D0000E42080B483B000AF174B1B78002B24D100237B60154BDB78DBB203F00203002B0CBF01230023DBB2002B78
S32D0000E4480DD07B6842F21072934203DD0B4B01221A7004E07B6801337B6000BFE5E7084BDB78DBB2064A43F061
S32D0000E4700203DBB2D37000E000BF0C37BD4680BC704700BF3E1700200060064080B582B000AF0346FB71FB79B8
S32D0000E498184600F05FF800BF0837BD4680BD80B582B000AF03460A46FB711346BB7100F035F8FB795B00DBB25A
S32D0000E4C01846FFF7E3FFBB791846FFF7DFFF00F037F800BF0837BD4680BD80B500AFFF2000F03CF80346184667
S32D0000E4E880BD80B584B000AF0346FB7100F016F8FB795B005BB243F001035BB2DBB21846FFF7C0FFFFF7E5FF64
S32D0000E5100346FB7300F014F8FB7B18461037BD4680BD000080B400AF044B9B68034A43F48013936000BFBD46CE
S32D0000E53880BC704740F00F4080B400AF044B5B68034A43F48013536000BFBD4680BC704740F00F4080B485B0E7
S32D0000E56000AF0346FB710023BB73164BDB6A03F00043012B0CBF01230023DBB2002B03D0FB7B0133FB73F0E744
S32D0000E5880E4BDB6A0D4A43F00043D3620B4AFB7953630A4BDB6A03F40033002B0CBF01230023DBB2002B00D0BD
S32D0000E5B0F3E7044B9B6BBB73BB7B18461437BD4680BC704700C00A4080B582B000AF204B03F580531B6B1E4AC7
S32D0000E5D843F4805302F5805213631C4B4FF480721A651B4B5B691A4A43F480135361FFF7A3FF164B4FF40072F7
S32D0000E6005A65144B4FF400729A65124B4FF40072DA65124B124A1A60104B124ADA6000237B607B68092B06DCAE
S32D0000E628FF20FFF72FFF7B6801337B60F5E704A1D1E9000101F0DAFC00BF0837BD4680BD9A9999999999B93FBF
S32D0000E6500070044000A0044040F00F4000C00A40000C00800500003E90B486B000AFF860B9607A60FB68534A38
S32D0000E67893420AD1524B03F580535B6B504A43F4806302F58052536345E0FB684D4A93420AD14B4B03F5805333
S32D0000E6A05B6B494A43F4006302F58052536336E0FB68474A93420AD1434B03F580535B6B414A43F4805302F575
S32D0000E6C88052536327E0FB68404A93420AD13C4B03F580535B6B3A4A43F4005302F58052536318E0FB683A4A74
S32D0000E6F093420AD1344B03F580539B6A324A43F4806302F58052936209E02F4B03F580539B6A2D4A43F4006365
S32D0000E71802F580529362FB68DB78DBB223F00C03DAB2FB68DA70FB6800229A70BB684FF47A7203FB02F27B68C1
S32D0000E7401B0192FBF3F39CB2FB681B78DBB223F01F03FB75230A9BB2DBB203F01F03DAB2FB7D1343DAB2FB6841
S32D0000E7681A70E2B2FB685A70BB684FF4FA4203FB02F27B681B0192FBF3F39AB263019BB2D31A9CB2FB689B7A82
S32D0000E790DBB223F01F03FB75E3B203F01F03DAB2FB7D1343DAB2FB689A72FB68DB78DBB243F00C03DAB2FB68B6
S32D0000E7B8DA7000BF1837BD4690BC704700A006400070044000B0064000C0064000D0064000A00E4080B483B0D4
S32D0000E7E000AF78607B681B79DBB203F02003002B0CBF01230023DBB2002B00D0F2E77B68DB79DBB218460C3767
S32D0000E808BD4680BC704780B483B000AF78600B46FB707B681B79DBB25BB2DB43DBB2DB09DBB2002B00D0F4E73F
S32D0000E8307B68FA78DA7100BF0C37BD4680BC704780B487B000AFF860B9607A60FB687B617B685A1E7A60002B1E
S32D0000E85814BF01230023DBB2002B06D07B695A1C7A61BA68D2B21A70EEE700BF1C37BD4680BC704780B584B03F
S32D0000E88000AF786039607B681B6BFB60FA683B689A4252D07B681B79002B35D07B6858787B6803F134010123F9
S32D0000E8A8FA6801F0F7F80346002B14BF01230023DBB2002B01D001233CE07B6800221A717B685A6A7B681B6A0A
S32D0000E8D01344FA689A4217D27B68DB78FB72FB7A012B11D97B681B6AFA681344FB607B6858787B6803F1340133
S32D0000E8F80123FA6801F0CEF8FB7A013BFB72EAE73B68002B15D07B6858787B6803F1340101233A6800F0DAFFC5
S32D0000E9200346002B14BF01230023DBB2002B01D0012303E07B683A681A63002318461037BD4680BD80B584B038
S32D0000E94800AF786000217868FFF794FF0346FB73FB7B002B40F093807B681B78032B7DD17B685B79002B79D0D8
S32D0000E9707B6800221A637B6834334FF4007200211846FFF75DFF7B68552283F832227B68AA2283F833227B689C
S32D0000E998522283F834207B68522283F835207B68612283F836207B68412283F837207B68722283F818227B6889
S32D0000E9C0722283F819227B68412283F81A227B68612283F81B227B681B69DAB27B6883F81C227B681B699BB281
S32D0000E9E81B0A9BB2DAB27B6883F81D227B681B691B0CDAB27B6883F81E227B681B691B0EDAB27B6883F81F22F3
S32D0000EA107B68DB68DAB27B6883F820227B68DB689BB21B0A9BB2DAB27B6883F821227B68DB681B0CDAB27B68B8
S32D0000EA3883F822227B68DB681B0EDAB27B6883F823227B6858787B6803F134017B685A69012301F01FF87B68FF
S32D0000EA6000225A717B685B7800220021184601F0E1F80346002B14BF01230023DBB2002B01D00123FB73FB7B5B
S32D0000EA8818461037BD4680BD80B582B000AF78600B467B807B68002B08D07B681B78002B04D07B68DB887A889E
S32D0000EAB09A4201D0092311E07B685B78184601F03BF9034603F00103002B14BF01230023DBB2002B01D0032301
S32D0000EAD800E0002318460837BD4680BD80B586B000AF78607B681A687B689B8819461046FFF7CAFF0346FB75A6
S32D0000EB00FB7D002B40F0AC807B689B7903F02003002B00F0A5807B689B7903F04003002B1BD07B681B68587822
S32D0000EB287B6803F128017B689A69012300F0B2FF0346002B14BF01230023DBB2002B01D001238AE07B689B7978
S32D0000EB5023F04003DAB27B689A717B681A687B68DB6919461046FFF789FE0346FB75FB7D002B75D17B681B6AFF
S32D0000EB783B613B690B331A783B690B3342F02002D2B21A707B68DA683B691C33D2B21A707B68DB689BB21B0A5D
S32D0000EBA09AB23B691D33D2B21A707B68DB681A0C3B691E33D2B21A707B68DB681A0E3B691F33D2B21A707B6875
S32D0000EBC81A693B691A33D2B21A707B681B699BB21B0A9AB23B691B33D2B21A707B681B691A0C3B691433D2B27C
S32D0000EBF01A707B681B691B0C9BB21B0A9AB23B691533D2B21A700023FB603B691633FA68D2B21A70FB689BB29C
S32D0000EC181B0A9AB23B691733D2B21A70FB681A0C3B691833D2B21A70FB681A0E3B691933D2B21A707B689B795B
S32D0000EC4023F02003DAB27B689A717B681B6801221A717B681B681846FFF774FE0346FB75FB7D18461837BD46D5
S32D0000EC6880BD80B584B000AF78607868FFF736FF0346FB73FB7B002B02D17B6800221A60FB7B18461037BD467E
S32D0000EC9080BD000080B588B000AF7860396080233B610F23FB604FF0FF337B610223FB61FB69B3F5807F23D8EC
S32D0000ECB80123BB61BB69102B1AD8FB69BA6902FB03F33A6803FB02F27B68D31ABB60BB68002B09DBBB687A696C
S32D0000ECE09A4205D9BB687B61FB693B61BB69FB60BB690133BB61E1E7FB695B00FB61D7E71D4BDB6A1C4A23F093
S32D0000ED080803D3621A4BDB6A23F47F2323F47F63BB613B695B081B029AB2FB68013B1B01DBB21A43BB69134396
S32D0000ED30114A43F46023D3620F4B5B6A03F00803002B0CBF01230023DBB2002B03D00A2001F01AF9F0E7084B2E
S32D0000ED58DB6A074A43F00803D362054B1B6B044A43F48013136300BF2037BD4680BD00BF00100B4080B582B049
S32D0000ED8000AF786039607B6800221A60414B424ADA62404BDB6A03F08073002B14BF01230023DBB2002B00D0EF
S32D0000EDA8F3E73A4B0022C3F8C020384B4FF481325A60364B28229A62344B4FF001125A643B689B683349184618
S32D0000EDD0FFF760FF2F4B5B6A03F00303002B14BF01230023DBB2002B00D0F3E72C4B40F243421A602A4B40F292
S32D0000EDF843425A60284B4FF488629A60264B40F24342DA60244B40F243421A61224B40F243425A61214B03F5CE
S32D0000EE2080531B6B1F4A43F4003302F580521363184B4FF6FF721A63164B1B4A5A63154BDB6A144A43F00063A7
S32D0000EE48D362124BDB6A03F00063002B14BF01230023DBB2002B00D0F3E70C4B5B6A03F48033002B14BF0123E0
S32D0000EE700023DBB2002B02D07B6801221A60054B1B6B044A43F080031363002318460837BD4680BD00100B409C
S32D0000EE980080000160CC050000D0044000700440B3007F0080B400AF064B5A6A40F207331340002B14BF0123C7
S32D0000EEC00023DBB21846BD4680BC704700100B4080B485B000AF7860074B1B6B7A681340FB60FB68002B00D10E
S32D0000EEE8F6E7FB6818461437BD4680BC704700BF00100B4080B584B000AF78607B681B7803F03F03764A52F85E
S32D0000EF102330FB60FB68002B05D17B681B78002B01D00123DCE0714B1B6B704A43F0800313636E4B5B6A03F0D6
S32D0000EF380103002B14BF01230023DBB2002B00D0F3E7684A7B685B689360FB6823F44003FB607B685B789B0547
S32D0000EF6003F44003FA681343FB607B685B78022B03D1FB6843F40013FB607B685B78042B16D1FB6803F44033DE
S32D0000EF88B3F5003F08D1FB6823F44033FB60FB6843F44033FB6007E0FB6823F44033FB60FB6843F40033FB6094
S32D0000EFB04E4B5B684D4A9BB253607B68DB68002B2AD0FB6803F44033B3F5403F03D0FB6843F40013FB607B6843
S32D0000EFD81B7A002B03D0FB6843F01003FB607B68DB68012B03D9FB6843F02003FB607B68DB68B3F1FF3F0BD04F
S32D0000F0003A4B5A687B68DB681B04384913434B60FB6843F00203FB60344B00221A60334AFB68D3603248FFF740
S32D0000F02853FF0346012B14BF01230023DBB2002B09D02C4B1B6B2B4A43F4702343F001031363012348E0274BA1
S32D0000F0501B6B03F08003002B14BF01230023DBB2002B07D0214B1B6B204A43F001131363012335E01D4B1B6B82
S32D0000F07803F48033002B14BF01230023DBB2002B08D0184B1B6B174A43F0011313634FF0FF3321E0FB6803F418
S32D0000F0A04033002B15D0114B1A697B681A61FB6803F44033B3F5803F0BD10C4B5A697B685A610A4B9A697B687F
S32D0000F0C89A61084BDA697B68DA61064B1B6B054A43F001031363002318461037BD4680BD48BB010000100B4031
S32D0000F0F001000E0080B592B000AF7860396000237B643B68BB63994B7B637B6B002B02D140F601235FE3964B66
S32D0000F1183B633B6B002B02D140F60B2357E33B6B1B68FB62FB6A002B02D140F60B234EE37B6841F20932934245
S32D0000F14000F23F837B68B3F5985F08D87B68032B00F01A837B68092B00F0098331E37B68A3F59853013B082B71
S32D0000F16800F22B8301A252F823F000BF99F1000085F40000E1F600009BF40000D9F40000FFF5000047F60000B3
S32D0000F19089F50000A3F500007649786BFFF7EEFD78647B6C002B40F01083002387F84330002387F82B300023D2
S32D0000F1B887F82A30002387F82930002387F84230002387F8283000233B7200237B720023FB6000233B740023F4
S32D0000F1E07B6107F108031846FFF788FE0346002B14BF01230023DBB2002B02D001237B64E8E240F24C4000F0B5
S32D0000F208BFFE08233B7200237B724FF4D573FB6000233B7400237B6107F108031846FFF769FEF863FB6B002BD2
S32D0000F23009D1BA69FB689A4202D001237B64C9E2012387F84230012387F8283097F82830002B00F0A580372363
S32D0000F2583B7200237B720023FB6000233B7400237B6107F108031846FFF744FEF863FB6B002B02D001237B6422
S32D0000F280A8E269233B7200237B720023FB6000233B7400237B6107F108031846FFF72EFE0346002B14BF012350
S32D0000F2A80023DBB2002B02D001237B648EE2BB6903F44013002B6FD00023FB630A2000F05FFEFB6B0133FB6350
S32D0000F2D037233B7200237B720023FB6000233B7400237B6107F108031846FFF707FE0346002B14BF01230023C0
S32D0000F2F8DBB2002B02D001237B6428E069233B7200237B7297F84230002B02D0184BFB6002E04FF44013FB607B
S32D0000F32000233B7400237B6107F108031846FFF7E5FD0346002B14BF01230023DBB2002B02D001237B6406E0B4
S32D0000F348BB69002B03DBFB6B632B00D8B6E77B6C002B40F03882FB6B632B0BD9002387F8423019E05417002095
S32D0000F370581900203CBB010000003040012387F8433097F84230002B0AD0002387F84230BB6903F08043002B41
S32D0000F39802D0012387F8423097F82A30002B02D07B6B07221A6097F82930002B02D07B6B08221A6097F82B3098
S32D0000F3C0002B02D07B6B04221A6097F84330002B09D07B6B02221A6097F84230002B02D07B6B03221A6097F800
S32D0000F3E82B30002B0DD097F84330002B09D07B6B05221A6097F84230002B02D07B6B06221A60924B00221A6008
S32D0000F410904B00225A608F4B00229A608D4B0022DA608C4B00221A618A4B00225A61FB6A9A68FB6A5B681946D9
S32D0000F4381046FFF72BFC854B40F243421A60834B40F243425A60814B4FF488629A607F4B40F24342DA607D4B7D
S32D0000F46040F243421A617B4B40F243425A617A4B03F580531B6B784A43F4003302F580521363A7E1B86BFFF7F2
S32D0000F48839FDF863FB6B002B00F09F8102237B649BE1BB6B002B02D10C237B6496E16D4BDB6A1B0A5B0003F487
S32D0000F4B0FF73FB63694BDB6A1B0903F00F035A1CFB6B02FB03F3FB63FB6A9A68FB6BB2FBF3F2BB6B1A607DE1B2
S32D0000F4D8BB6B002B02D10C237B6477E1BB6B1B68002B02D10C237B6470E1FFF7DBFC0346002B0CBF0123002323
S32D0000F500DBB2002B3CD0534B00221A60514B00225A60504B00229A604E4B0022DA604D4B00221A614B4B0022CE
S32D0000F5285A61FB6A9A68BB6B1B6819461046FFF7ADFB464B40F243421A60444B40F243425A60424B4FF488621B
S32D0000F5509A60404B40F24342DA603E4B40F243421A613C4B40F243425A613B4B03F580531B6B394A43F400339F
S32D0000F57802F58052136329E140F60A237B6425E1BB6B002B02D10C237B641FE1314B5B68C3F30C02BB6B1A60FF
S32D0000F5A018E1BB6B002B02D10C237B6412E1FFF77DFC0346002B0CBF01230023DBB2002B19D0BB6B1B68B3F538
S32D0000F5C8805F02D30C237B6400E1224B5B68214A23F4FF5323F01F0353601E4B5A68BB6B1B68C3F30C031B4989
S32D0000F5F013434B60EEE040F60A237B64EAE0BB6B002B02D10C237B64E4E0144B9B6A5B0803F00303FB63FB6B98
S32D0000F618002B03D1BB6B00221A60D7E0FB6B012B03D1BB6B01221A60D0E0FB6B102B03D1BB6B02221A60C9E091
S32D0000F64005237B64C6E0BB6B002B09D10C237B64C0E000BF00D004400070044000100B40FFF724FC0346002BAA
S32D0000F6680CBF01230023DBB2002B31D0BB6B1B68002B0AD1584B9B6A574A23F006039362554B554A9B6A936267
S32D0000F690A0E0BB6B1B68012B0CD1514B9B6A504A23F0060393624E4B9B6A4D4A43F0020393628FE0BB6B1B6854
S32D0000F6B8022B0AD1484B9B6A474A23F006039362454B454A9B6A936280E005237B647DE040F60A237B6479E06A
S32D0000F6E0BB6B002B02D10C237B6473E03C4BDB6A3B4A43F00063D362394BDB6A03F00063002B14BF01230023F7
S32D0000F708DBB2002B00D0F3E7334B1B6B03F08003002B14BF01230023DBB2002B08D02E4B1B6B2D4A43F08003F6
S32D0000F73013637B6B00221A60294B5B6A03F48033002B14BF01230023DBB2002B07D07B6B1B68002B06D17B6BAB
S32D0000F75801221A6002E07B6B00221A607B6B1A68BB6B1A6032E0BB6B1C221A60BB6B043304221A60BB6B08332C
S32D0000F7804FF41E721A6025E00220FFF7A1FB144B1B6B03F4E003002B14BF01230023DBB2002B07D00E4B1B6BE3
S32D0000F7A80D4A43F4E003136304237B640A4B1B6B094A43F03203136308E040F609237B6404E000BF02E000BFCD
S32D0000F7D000E000BF7B6C18464837BD4680BD00BF00100B4080B489B000AF786039607B687B61364B3B613B6941
S32D0000F7F8002B01D100235FE03B691B68022B0BD03B691B68032B07D03B691B68072B03D03B691B68082B0BD1C7
S32D0000F8202B4B5B6A03F00403002B14BF01230023DBB2002B00D0F3E73B68FB61FB69002B3DD0FB69B3F5007FB8
S32D0000F84828BF4FF40073FB60FB6803339B08BB61BB69002B2AD01C4B1B6B03F4E003002B14BF01230023DBB260
S32D0000F870002B09D0164B1B6B154A43F4E00343F02003136300231BE0114B5B6A03F40063002B0CBF0123002364
S32D0000F898DBB2002B00D0F3E70B497B691A1D7A610A6A1A60BB69013BBB61D1E7FA69FB68D31AFB61BEE701239C
S32D0000F8C018462437BD4680BC704700BF5417002000100B4080B58EB000AFB9607A601A460346FB731346BB7313
S32D0000F8E8414B7B63FB7B002B02D1BB7B002B01D1042375E03D4B1B78DBB203F00103002B14BF01230023DBB2F4
S32D0000F910002B01D0032367E0BB68002B01D1002362E07B6B1B7B002B02D17B685B027B60BB7B012B28D11123B7
S32D0000F9383B7500237B757B68BB6101233B77BB7B3B6207F11403194641F20230FFF7CEFB0346002B0CBF012341
S32D0000F9600023DBB2002B38D04FF40071B868FFF739FF0346002B14BF01230023DBB2002B2BD00023BB7328E0FA
S32D0000F98812233B7500237B757B68BB6101233B77BB7B3B6207F11403194641F20230FFF7A5FB0346002B0CBF09
S32D0000F9B001230023DBB2002B0FD0BB7B5B021946B868FFF70FFF0346002B14BF01230023DBB2002B01D00023FB
S32D0000F9D8BB73BB7B002B01D0012300E0002300BF18463837BD4680BD401700201000002080B487B000AF786015
S32D0000FA0039607B68FB603B687B617B69002B3DD07B69B3F5007F28BF4FF400733B617A693B69D31A7B613B692E
S32D0000FA2803339B083B613B69002BEAD0184B1B6B03F4E003002B14BF01230023DBB2002B0AD0134B1B6B124AD8
S32D0000FA5043F4E00343F0100313634FF0FF3316E00D4B5B6A03F48063002B0CBF01230023DBB2002B00D0F3E7B5
S32D0000FA78FB681A1DFA60064A1B6813623B69013B3B61D0E7012318461C37BD4680BC704700100B4080B58EB058
S32D0000FAA000AFB9607A601A460346FB731346BB735D4B7B63FB7B002B02D1BB7B002B01D10423ADE0594B1B78E0
S32D0000FAC8DBB203F00103002B14BF01230023DBB2002B01D003239FE0524B1B78DBB203F00403002B14BF012340
S32D0000FAF00023DBB2002B01D0022391E0BB68002B01D100238CE07B6B1B7B002B02D17B685B027B60BB7B012B00
S32D0000FB1828D118233B7500237B757B68BB6100233B77BB7B3B6207F11403194641F20230FFF7DCFA0346002B0E
S32D0000FB400CBF01230023DBB2002B38D04FF40071B868FFF751FF0346002B14BF01230023DBB2002B2BD0002347
S32D0000FB68BB7328E019233B7500237B757B68BB6100233B77BB7B3B6207F11403194641F20230FFF7B3FA0346D4
S32D0000FB90002B0CBF01230023DBB2002B0FD0BB7B5B021946B868FFF727FF0346002B14BF01230023DBB2002BFF
S32D0000FBB801D00023BB730D233B7500237B757B6B1B69BB6100233B7700233B6207F11403194641F20230FFF726
S32D0000FBE089FA0346002B14BF01230023DBB2002B01D0012314E07A6A0D4B1340002B01D001230DE07B6A03F4CD
S32D0000FC08F853B3F5106F00D0D5E7BB7B002B01D0012300E0002300BF18463837BD4680BD401700201000002004
S32D0000FC300880D9FF80B58CB000AF03463A60FB710B46BB713A4BBB62FB79002B01D0042369E0012387F82F30D6
S32D0000FC58364B1B78DBB203F00103002B14BF01230023DBB2002B01D0032358E0BB79032B50D801A252F823F030
S32D0000FC8091FC000099FC0000A9FC0000B9FC0000002387F82F3044E0BB6A9A683B681A60002387F82F303CE054
S32D0000FCA83B684FF400721A80002387F82F3034E009233B7200237B72BB6A1B69FB6000233B7400237B6107F171
S32D0000FCD00803194641F20230FFF70CFA0346002B14BF01230023DBB2002B01D001231AE07B6A03F44003002BBC
S32D0000FCF80CD13B6A9B0C03F07F035A1C7B6A1B0A03F00303013B9A403B681A60002387F82F3002E0042387F80B
S32D0000FD202F3097F82F3018463037BD4680BD00BF401700201000002080B483B000AF0346FB71FB79002B01D0C2
S32D0000FD48012302E0034B1B78DBB218460C37BD4680BC70471000002080B483B000AF7860164B03F580539B6B32
S32D0000FD70144A43F0010302F580529363124A7B689360114B05225A600F4B1B680E4A43F0010313600C4B1B68E9
S32D0000FD9803F08003002B0CBF01230023DBB2002B00D0F3E7064B1B68054A23F00103136000BF0C37BD4680BC3A
S32D0000FDC0704700BF007004400000044080B582B000AF786039607B68012B07D13B684FF6FF72934202D10348ED
S32D0000FDE800F00EF800BF0837BD4680BD6019002080B500AF4FF6FF710120FFF7E3FF80BD80B483B000AF786063
S32D0000FE107B6800221A707B6818460C37BD4680BC7047000080B582B000AF78607B681B7883F00103DBB2002B28
S32D0000FE3821D0134B03F580531A464FF400639362104B4FF440721A620E4B4FF440725A620D4B1B68DA0F134496
S32D0000FE605B104FF4614219460A48FEF7FDFB642000F08AF87B6801221A70012300E0002318460837BD4680BDFB
S32D0000FE880070044000D004406419002000B00E4080B582B000AF7860084611461A460346FB700B46BB7013466D
S32D0000FEB07B707F210E48FEF7AAFC08210C48FEF7A6FCFB7819460A48FEF7A1FCBB7819460748FEF79CFC7B787D
S32D0000FED819460548FEF797FCFF210348FEF793FC00BF0837BD4680BD00B00E4080B487B000AFF860B9607A6038
S32D0000FF00FB681F4AA2FB03239B09BA6813447B61FB681B4AA2FB031292094FF47A7101FB02F29B1AFB60FB68A5
S32D0000FF28DB03154AA2FB03239B097A6813443B613B69DB0B7A6913447B613B69C3F30E033B610E4B1B687A69CC
S32D0000FF509A4209D80B4B1B687A699A4206D1094B5B683A699A4201D9012300E00023002B00D0EAE700BF1C37E2
S32D0000FF78BD4680BC704700BFD34D621000D0034080B584B000AF7860074B1B68FB60064B5B68BB607B68BA68AD
S32D0000FFA0F9681846FFF7A6FF00BF1037BD4680BD00D0034080B584B000AF78600B4B1B68FB600A4B5B68BB6029
S32D0000FFC80949786805F04AF80346184605F032FA0346BA68F9681846FFF788FF00BF1037BD4680BD00D00340DA
S32D0000FFF000007A4480B584B000AFC7E900010E4B1B68FB600C4B5B68BB604FF000020B4BD7E9000104F0E6FBC3
S32D0001001802460B461046194604F0A2FE0346BA68F9681846FFF762FF00BF1037BD4680BD00D0034000408F40EE
S32D0001004080B584B000AF134B1B68FB60114B5B68BB60F86804F04CFB02460B46C7E90023B86804F045FB4FF069
S32D0001006800020B4B04F0E4FC02460B46D7E9000104F0FEF902460B46C7E90023D7E90023104619461037BD46AA
S32D0001009080BD00BF00D003400000E04080B483B000AF0B4B1B684FF47A7202FB03F37B60074B5B684FF47A72E2
S32D000100B802FB03F3DB0B7A6813447B607B6818460C37BD4680BC704700D0034080B582B000AF78600B46FB70F5
S32D000100E0FB781946786800F005F87B6818460837BD4680BD80B483B000AF78600B46FB707B68FA781A707B6826
S32D000101081B781A46534B9B5C042B00F29E8001A252F823F0310101006B010100A5010100DF01010019020100BD
S32D000101304B4A7B681B7819464A4B53F8213040F2031142F82310484B5A697B681B781946444B53F8213003F009
S32D000101581F03012101FA03F3DB43414913404B6173E0404A7B681B7819463C4B53F8213040F2031142F8231014
S32D000101803B4B5A697B681B781946364B53F8213003F01F03012101FA03F3DB43344913404B6156E0334A7B68BD
S32D000101A81B7819462D4B53F8213040F2031142F823102F4B5A697B681B781946274B53F8213003F01F03012118
S32D000101D001FA03F3DB43284913404B6139E0274A7B681B7819461F4B53F8213040F2031142F82310224B5A6939
S32D000101F87B681B781946194B53F8213003F01F03012101FA03F3DB431B4913404B611CE01A4A7B681B78194625
S32D00010220104B53F8213040F2031142F82310164B5A697B681B7819460A4B53F8213003F01F03012101FA03F3F3
S32D00010248DB430F4913404B6100BF00BF0C37BD4680BC704748BC0100009004408CBC010000F00F4000A0044016
S32D0001027040F00F4000B0044080F00F4000C00440C0F00F4000D0044000F10F4080B485B000AF78600023FB6068
S32D000102987B681B781A46364B9B5C042B5CD801A252F823F0C1020100E10201000103010021030100410301006F
S32D000102C02E4B1B697A68127811462D4A52F8212002F01F02012101FA02F21340FB603FE0284B1B697A681278F9
S32D000102E81146254A52F8212002F01F02012101FA02F21340FB602FE0214B1B697A68127811461D4A52F8212010
S32D0001031002F01F02012101FA02F21340FB601FE01A4B1B697A6812781146154A52F8212002F01F02012101FA27
S32D0001033802F21340FB600FE0134B1B697A68127811460D4A52F8212002F01F02012101FA02F21340FB6000BFED
S32D00010360FB68002B14BF01230023DBB218461437BD4680BC704700BF48BC010000F00F408CBC010040F00F40CF
S32D0001038880F00F40C0F00F4000F10F4080B584B000AF78600B46FB700B23FB73FA7BFB781946786800F094F85D
S32D000103B07B6818461037BD4680BD000080B485B000AF78607B68103B002B00DA1F335B11FB60FB68022B53D067
S32D000103D8FB68022B75DCFB68002B03D0FB68012B25D06EE0394BD3F880217B68103B594203F01F0301F01F0103
S32D0001040058BF4B42012101FA03F332491343C1F88031304B1A687B68103B594203F01F0301F01F0158BF4B424B
S32D00010428012101FA03F3294913430B6049E0274BD3F884217B68103B594203F01F0301F01F0158BF4B4201219F
S32D0001045001FA03F31F491343C1F884311D4B5A687B68103B594203F01F0301F01F0158BF4B42012101FA03F390
S32D00010478164913434B6024E0144BD3F888217B68103B594203F01F0301F01F0158BF4B42012101FA03F30D4922
S32D000104A01343C1F888310B4B9A687B68103B594203F01F0301F01F0158BF4B42012101FA03F3044913438B60D9
S32D000104C800BF00BF1437BD4680BC704700E100E080B584B000AF78600B46FB701346BB707B68FA781A70BB7843
S32D000104F0FB737B681B781A46574B9B5C042B00F2A68001A252F823F01D05010069050100B50501004D06010018
S32D0001051801060100FB7B1B0403F470234D497A68127810464C4A52F8202043F4897343F0010341F82230494B8C
S32D000105405A697B681B781946454B53F8213003F01F03012101FA03F3DB43424913404B616720FFF72BFF72E0FF
S32D00010568FB7B1B0403F470233D497A6812781046394A52F8202043F4897343F0010341F82230384B5A697B68D2
S32D000105901B781946324B53F8213003F01F03012101FA03F3DB43314913404B616820FFF705FF4CE0FB7B1B042F
S32D000105B803F470232C497A6812781046264A52F8202043F4897343F0010341F82230274B5A697B681B7819465A
S32D000105E01F4B53F8213003F01F03012101FA03F3DB43204913404B616920FFF7DFFE26E0FB7B1B0403F47023B7
S32D000106081B497A6812781046134A52F8202043F4897343F0010341F82230164B5A697B681B7819460C4B53F826
S32D00010630213003F01F03012101FA03F3DB430F4913404B616B20FFF7B9FE00E000BF00BF1037BD4680BD00BFD1
S32D0001065848BC0100009004408CBC010000F00F4000A0044040F00F4000B0044080F00F4000D0044000F10F40A8
S32D00010680B0B48BB000AF224B3C1D1D460FCD0FC495E80F0084E80F0000237B627B6A072B30DC1C4BD3F8A02009
S32D000106A87B6A9B0028333B4453F8243C012101FA03F31340002B14BF01230023DBB2002B18D0134A7B6A52F847
S32D000106D023305A1C10497B6A41F823200D4BD3F8A0207B6A9B0028333B4453F8243C012101FA03F307491340DA
S32D000106F8C1F8A0307B6A01337B62CBE700BF2C37BD46B0BC704700BF90BD010000A0044090190020B0B489B003
S32D0001072000AF224B3C1D1D460FCD0FC495E8030084E803000023FB61FB69052B30DC1C4BD3F8A020FB699B0024
S32D0001074820333B4453F81C3C012101FA03F31340002B14BF01230023DBB2002B18D0FB690833124A52F823203A
S32D000107700132104941F823200D4BD3F8A020FB699B0020333B4453F81C3C012101FA03F307491340C1F8A030BC
S32D00010798FB690133FB61CBE700BF2437BD46B0BC704700BFB0BD010000B0044090190020B0B48DB000AF234BA4
S32D000107C03C461D460FCD0FC40FCD0FC495E8070084E807000023FB62FB6A0A2B30DC1C4BD3F8A020FB6A9B00B8
S32D000107E830333B4453F8303C012101FA03F31340002B14BF01230023DBB2002B18D0FB6A0E33124A52F823206F
S32D000108100132104941F823200D4BD3F8A020FB6A9B0030333B4453F8303C012101FA03F307491340C1F8A030F6
S32D00010838FB6A0133FB62CBE700BF3437BD46B0BC704700BFC8BD01000090044090190020B0B487B000AF214B01
S32D000108603C461D460FCD0FC42B68236000237B617B69042B30DC1C4BD3F8A0207B699B0018333B4453F8183CC7
S32D00010888012101FA03F31340002B14BF01230023DBB2002B18D07B691933124A52F823200132104941F82320D5
S32D000108B00D4BD3F8A0207B699B0018333B4453F8183C012101FA03F307491340C1F8A0307B6901337B61CBE769
S32D000108D800BF1C37BD46B0BC704700BFF4BD010000D004409019002080B483B000AF78607B681B781A46044B58
S32D0001090053F8223018460C37BD4680BC704700BF9019002080B483B000AF78607B681B781946044B002243F89D
S32D00010928212000BF0C37BD4680BC70479019002080B483B000AF78600B46FB707B68FA781A707B6818460C3791
S32D00010950BD4680BC7047000080B586B000AF78607B681B781A463E4B53F822303B617B681B781A463B4B9B5CA5
S32D00010978FB733B69DBB203F01F03DAB2384B1A723B69DBB203F01F03DAB2354B5A72354B1022C3F88820FB7B58
S32D000109A0002B13D13049324800F05AFA304B1B6803F08003802B14BF01230023DBB2002B00D0F3E72A4B1B694E
S32D000109C87B6112E02649294800F046FA274B1B6803F08003802B14BF01230023DBB2002B00D0F3E7214B1B69A0
S32D000109F07B611E4BD3F888311C4A43F01003C2F888311A4B9B68194A43F0100393607B699BB2184603F06CFE00
S32D00010A180DA3D3E9002303F0E1FE02460B46104619460BA3D3E9002304F002F802460B461046194604F0B4F996
S32D00010A400346BB60BB6818461837BD4680BD00BFA4703D0AD7A30A4000000000E0FFEF400CBD010068BC010038
S32D00010A687019002000E100E000B0034000B00B4080B586B000AF78607B681B781A46234B53F822303B617B68B5
S32D00010A901B781A46204B9B5CFB733B69DBB203F01F03DAB21D4B1A723B69DBB203F01F03DAB21A4B5A72FB7B35
S32D00010AB8002B13D11749184800F0CEF9164B1B6803F08003802B14BF01230023DBB2002B00D0F3E7104B1B6929
S32D00010AE07B6112E00D490F4800F0BAF90D4B1B6803F08003802B14BF01230023DBB2002B00D0F3E7074B1B697B
S32D00010B087B617B6918461837BD4680BD0CBD010068BC01008019002000B0034000B00B4098B500AF204B5C2296
S32D00010B301A701F4B10225A701D4B41F234225A801B4B45F278629A80194B10229A71184B0722DA71164B4FF42E
S32D00010B58C022DA60144B1F221A72134B1F225A721149124800F078F90F49114800F074F90F4800F0D2F80D4832
S32D00010B8000F0CFF80A490C4800F06AF90849094800F066F9094A064B14460FCB84E80F00064B5C221A70054BA8
S32D00010BA80422DA7100BF98BD7019002000B0034000B00B408019002080B500AF064B1B680133054A136000F0AB
S32D00010BD03DF8044B0122C3F80C2100BF80BD00BF141A00200070034080B500AF0C4B01221A600C4800F01AF87D
S32D00010BF8094B0322C3F80821094BD3F88831084A43F01003C2F88831054B9B68044A43F01003936000BF80BDB8
S32D00010C2000700340A086010000E100E080B483B000AF7860044A7B68C2F8003100BF0C37BD4680BC704700BF49
S32D00010C480070034080B584B000AF174B1B68FB60FB68002B24D0FB685B78FB71FB689B68184600F023F8034636
S32D00010C70BB71BB79002B13D0FB685B68012B0FDDFB689B681B69BB60BB68002B08D0BB685B685A1CBB685A6045
S32D00010C98BB681B69BB60F3E7FB68DB68FB60D7E700BF1037BD4680BD101A002080B584B000AF78607868FFF77C
S32D00010CC0DBFEF8607B689B695B78FB72FB7A002B0FD17B68DB68FA689A420ADD7B689B6901225A707B685B6868
S32D00010CE85A1C7B685A60012313E0FB7A012B0FD17B689B68FA689A420ADA7B689B6900225A707B685B685A1C3B
S32D00010D107B685A60012300E0002318461037BD4680BD80B485B000AF78607B681B6A23F040027B681A627B681C
S32D00010D385B6A23F00B027B685A627B685B6A43F007027B685A627B685B6A43F080027B685A627B681B6803F030
S32D00010D608003002B0CBF01230023DBB2002B00D0F3E77B685B6A03F04003402B0CBF01230023DBB2002B01D05E
S32D00010D88012364E00023FB817B68DB6CFB817B689B6C9AB2FB891344FB817B685B6C9AB2FB891344FB817B68D2
S32D00010DB01B6C9AB2FB891344FB817B68DB6B9AB2FB891344FB817B689B6B9AB2FB891344FB81FB895B08FB812F
S32D00010DD8FB896FEA43436FEA5343FB81FA897B68DA620023FB817B68DB6EFB817B689B6E9AB2FB891344FB81A6
S32D00010E007B685B6E9AB2FB891344FB817B681B6E9AB2FB891344FB817B68DB6D9AB2FB891344FB817B689B6DAC
S32D00010E289AB2FB891344FB81FB895B08FB81FB896FEA43436FEA5343FB81FA897B681A637B685B6A23F08002A7
S32D00010E507B685A62002318461437BD4680BC704780B483B000AF786039603B681B781A467B689A603B685B78A2
S32D00010E781A467B68DA603B685B881A467B689A613B689B881A467B68DA613B689B791A467B681A623B68DB7959
S32D00010EA01A467B685A623B68DA687B681A653B681B7A1A467B681A603B685B7A1A467B685A6000BF0C37BD466E
S32D00010EC880BC704780B483B000AF78607B6818460C37BD4680BC704780B582B000AF786039607B68012B07D132
S32D00010EF03B684FF6FF72934202D10348FFF7E6FF00BF0837BD4680BD181A002080B500AF4FF6FF710120FFF76C
S32D00010F18E3FF80BD80B483B000AF78600B46FB707B68FA781A707B684FF4FA725A807B6840F6C4129A807B68AA
S32D00010F40034A9A607B6818460C37BD4680BC7047000080BF80B483B000AF786039603B68B3F5FA7F04DB3B68B5
S32D00010F6840F6C412934204DD7B684FF4FA725A8004E03B689AB27B685A8000BF00BF0C37BD4680BC704780B4B1
S32D00010F9083B000AF786039603B68B3F5FA7F04DB3B6840F6C412934204DD7B6840F6C4129A8004E03B689AB2FB
S32D00010FB87B689A8000BF00BF0C37BD4680BC70472DE9904385B000AF786039604FF00001386804F0E1F9034621
S32D00010FE0002B02D04FF000033B603249386804F0F5F90346002B01D02E4B3B607B689B681946386804F0C2F91E
S32D000110080346002B00D04BE07B683A689A607B685C887B689B881A467B685B88D31A184603F072FB4FF00002EC
S32D00011030214B03F001FD02460B4690469946386803F078FB02460B464046494603F0CAFB02460B46104619462C
S32D0001105803F086FE03469BB22344FB81FB897B73FB891B0A9BB23B737F211248FDF7CBFB05211048FDF7C7FB7B
S32D000110807B681B7819460D48FDF7C1FB3B7B19460A48FDF7BCFB7B7B19460848FDF7B7FBFF210648FDF7B3FBFA
S32D000110A800BF1437BD46BDE8908300BF000034430080664000B00E4080B582B000AF7860B84B4FF48072DA609A
S32D000110D0B74B4FF480729A64B54B4FF480721A64B34B4FF480725A64B14B4FF48072DA60B04B5B69AF4A43F0C2
S32D000110F808035361AE4B5B69AD4A43F480235361AB4B5B69AA4A43F480335361A84B5B69A74A43F400335361B6
S32D00011120A54B1B68A44A43F008031360A24B5B69A14A43F0080353619E4B1B689D4A43F0080313609A4B4FF4D4
S32D0001114880725A62984B4FF480721A62954B4FF480721A61934B4FF480725A61914B4FF480729A618F4B4FF4AF
S32D000111708072DA618D4B4FF480721A638B4B4FF480725A63894B4FF480729A63874B4FF48072DA63854B4FF474
S32D0001119880721A64834B4FF480725A64814B4FF480729A647F4B4FF48072DA64814B4FF480721A607F4B4FF433
S32D000111C080729A607D4B4FF48072DA607B4B4FF480721A61784B5B69774A43F440735361744B5B69734A43F40A
S32D000111E87F2343F0F0035361734B5B69724A43F01D035361E221786800F0A8FD1D21786800F04AFE0221786846
S32D0001121000F046FE0421786800F042FEE021786800F098FD0121786800F03AFE6420FEF7ABFEE021786800F0C3
S32D000112388DFD0321786800F02FFE0121786800F085FD0120FEF79CFEE621786800F07EFD0121786800F020FE56
S32D00011260A021786800F01CFEFF21786800F018FEB021786800F06EFD1C21786800F010FE0F21786800F00CFE7D
S32D000112880121786800F008FE3F21786800F004FE0021786800F000FEEF21786800F0FCFD0021786800F0F8FD5F
S32D000112B0B421786800F04EFD0121786800F0F0FD9921786800F0ECFD0021786800F0E8FD4521786800F0E4FDE0
S32D000112D80221786800F0E0FD0021786800F0DCFD0021786800F0D8FD0021786800F0D4FDB621786800F02AFDF7
S32D000113000121786800F0CCFD0921786800F0C8FD0021786800F0C4FD0E21786800F0C0FD0221786800F0BCFD2A
S32D000113280021786800F0B8FD0021786800F0B4FDBA21786800F00AFD0F21786800F0ACFD6420FEF71DFE3A2104
S32D00011350786800F0FFFC6021786800F0A1FD2A21786800F0F7FC0021786800F099FD0021786800F095FD01217A
S32D00011378786800F091FD3F21786800F08DFD2B21786800F0E3FC0021786800F085FD0021786800F081FD002130
S32D000113A0786800F07DFDEF2178680BE000B0044000A0044080F00F4040F00F4000C00440C0F00F4000F06CFD87
S32D000113C83621786800F0C2FC0021786800F064FDF021786800F0BAFC0421786800F05CFDB821786800F0B2FC83
S32D000113F00F21786800F054FD0121786800F050FD314B1B68304A43F0080313606420FEF7BBFD3621786800F0BC
S32D000114189DFC0021786800F03FFDF021786800F095FC0421786800F037FD0121786800F0BCF91E226F217868ED
S32D0001144000F082F8AF225621786800F0DBF80021786800F00AFA012301221C49786800F02BFA2921786800F078
S32D0001146875FC6420FEF78CFDBE21786800F06EFC0E21786800F010FDF021786800F00CFD0121786800F008FDDC
S32D000114900021786800F004FD0021786800F000FD0F21786800F0FCFC786800F028FA0121786800F0DAF900217D
S32D000114B8786800F0AFF900BF0837BD4680BD00BF40F00F4008BE010080B582B000AF78607B680022DA617B6839
S32D000114E001221A627B680E225A607B681A229A607B6800225A617B6800229A617B684FF4A072DA607B68F02231
S32D000115081A617B6800221A70786801F0F9F97B6818460837BD4680BD80B582B000AF7860064B1B78002B05D154
S32D00011530044B01221A707868FFF7C2FD00BF0837BD4680BD601A002080B58AB002AFF860B9607A607E23009384
S32D0001155862237A68B968F86800F08DFE40F24E733B610023FB61FA693B699A4240DA0023BB61214AFB69134491
S32D000115801B781A46BB69934232DAFB6901331C4AD35C002B06D1FF23FB75FF23BB75FF237B7512E0FB69013395
S32D000115A8154AD35C012B06D1D423FB750023BB7526237B7505E0B523FB75BA23BB75B0237B757B7DBA7DF97DEE
S32D000115D0F86800F0C9F80246FB68DA61F86801F093F9F86801F0CCF8BB690133BB61C4E7FB690233FB61BAE74E
S32D000115F800BF2037BD4680BD1400002080B58AB002AFF860B9607A602723009395237A68B968F86800F02FFEBA
S32D0001162040F2E6333B610023FB61FA693B699A4240DA0023BB61214AFB6913441B781A46BB69934232DAFB6977
S32D0001164801331C4AD35C002B06D1FF23FB75FF23BB75FF237B7512E0FB690133154AD35C012B06D10023FB7504
S32D000116700023BB7500237B7505E0D423FB750023BB7526237B757B7DBA7DF97DF86800F06BF80246FB68DA61CF
S32D00011698F86801F035F9F86801F06EF8BB690133BB61C4E7FB690233FB61BAE700BF2037BD4680BD6407002057
S32D000116C080B485B000AF78600B46FB70FB78062B29D801A252F823F0FD160100F5160100031701000B1701004C
S32D000116E81317010019170100211701006FF07F43FB6014E00023FB6011E04FF47F03FB600DE04FF47F43FB60F2
S32D0001171009E0FF23FB6006E04FF41903FB6002E0044BFB6000BFFB6818461437BD4680BC704700BF99999900CD
S32D0001173880B584B000AF786039603B681B0CFB733B681B0ABB733B687B737B7BBA7BF97B786800F005F8034685
S32D0001176018461037BD4680BD80B487B000AF7860084611461A460346FB700B46BB7013467B70FB789B08DBB267
S32D000117887B61BB789B08DBB23B617B789B08DBB2FB607B691A033B699B011A43FB68134318461C37BD4680BC92
S32D000117B0704780B582B000AF78600B46FB70FB7819467868FFF77CFF03461946786800F004F800BF0837BD4611
S32D000117D880BD80B582B000AF7860396039687868FFF7A6FF02467B681A62786801F088F8786800F0E9FB00BF97
S32D000118000837BD4680BD80B582B000AF7860786800F0DEFB00BF0837BD4680BD80B582B000AF78600B46FB70BB
S32D00011828FB7819467868FFF747FF03461946786800F004F800BF0837BD4680BD80B582B000AF786039603968C9
S32D000118507868FFF771FF02467B681A62786801F053F800BF0837BD4680BD80B582B000AF78600B46FB70FB7805
S32D0001187819467868FFF720FF03461946786800F004F800BF0837BD4680BD80B582B000AF786039603968786833
S32D000118A0FFF74AFF02467B68DA61786801F02CF800BF0837BD4680BD80B586B000AFF860B9607A603B6000231E
S32D000118C87B617B69BA6813441B78002B0FD07B69BA6813441B783A687968F86800F00AFE7B680C337B607B696F
S32D000118F001337B61E9E700BF1837BD4680BD80B582B000AF7860FCF75FFE67210120FCF7CAFD00210220FCF7C4
S32D00011918C6FDA0210320FCF7C2FD50210420FCF7BEFD20210520FCF7BAFD20210620FCF7B6FD77210720FCF735
S32D00011940B2FD00210820FCF7AEFD00210920FCF7AAFD00210A20FCF7A6FD04210B20FCF7A2FD7B684FF0FF32E8
S32D00011968DA637B684FF0FF321A6400BF0837BD4680BD00000000000080B586B000AFF860B9607A600020FCF78C
S32D00011990ACFD0346FB75FB7D03F00203002B00F0CE80FCF7BFFDE020FCF770FD0220FEF7EBFAFCF7C5FD01200C
S32D000119B8FEF7E6FAFCF7B2FDA520FCF763FD0120FEF7DEFAFCF785FD03469BB21B02BB82FCF77FFD03469AB21A
S32D000119E0BB8A1343BB82FCF778FD03469BB21B027B82FCF772FD03469AB27B8A13437B82BB8A1B09BB827B8AEE
S32D00011A081B097B82FCF798FDFB68DB6BB3F1FF3F34D1FB681B6CB3F1FF3F2FD1BA8AFB68DA637A8AFB681A64E1
S32D00011A307B8AC3F57F630F337B82BB8A184602F067FE49A3D3E9002302F0CCFE02460B461046194603F0A8F946
S32D00011A580246BB681A607B8A184602F055FE42A3D3E9002302F0BAFE02460B461046194603F096F902467B6869
S32D00011A801A605AE0FB68DA6BBB8AD31A1946F86800F074F80346632B0CDCFB681A6C7B8AD31A1946F86800F045
S32D00011AA869F80346632B01DC012300E00023002B2FD0BA8AFB68DA637A8AFB681A647B8AC3F57F630F337B8202
S32D00011AD0BB8A184602F01CFE23A3D3E9002302F081FE02460B461046194603F05DF90246BB681A607B8A184643
S32D00011AF802F00AFE1CA3D3E9002302F06FFE02460B461046194603F04BF902467B681A600FE0BB68164A1A60B2
S32D00011B207B68154A1A60FB684FF0FF32DA63FB684FF0FF321A64002310E001230EE0BB680D4A1A607B680C4A27
S32D00011B481A60FB684FF0FF32DA63FB684FF0FF321A64002318461837BD4680BDAFF30080144001144001B43FC4
S32D00011B701EE0011EE001AE3F000080BF80B483B000AF786039603B68002B02DA3B685B423B603B6818460C37CC
S32D00011B98BD4680BC704780B584B000AF786039600023FB60786800F0D2FAFB683A6813441B78002B12D07B68A6
S32D00011BC059697B689869FB683A6813441B780246786800F079FC786800F0D1FAFB680133FB60E6E700BF103774
S32D00011BE8BD4680BD80B592B000AF786039604FF00001386803F0E4FB0346002B1FD0386803F0F2FB03467B643A
S32D00011C10786C03F0D3F903461946386803F018F903461F49184603F01DFA0346184603F0DFFB03463B6407F149
S32D00011C380C003B6C7A6C194904F086FC22E03B6883F000433B60386803F0CEFB03467B64786C03F0AFF90346CA
S32D00011C601946386803F0F4F803460D49184603F0F9F90346184603F0BBFB03463B6407F10C003B6C7A6C08497B
S32D00011C8804F062FC07F10C0319467868FFF783FF00BF4837BD4680BD00007A4424BE010018BE010080B582B0C0
S32D00011CB000AF78600B46FB70786800F04CFA7B6859697B689A69FB78786800F0FDFB786800F055FA00BF0837C9
S32D00011CD8BD4680BD80B582B000AF78603960786800F035FA39687868FFF755FF786800F019FA00BF0837BD4668
S32D00011D0080BD80B582B000AF78603960786800F022FA39687868FFF769FF786800F006FA00BF0837BD4680BD17
S32D00011D2880B582B000AF78600B46FB70786800F00EFAFB7819467868FFF7B4FF786800F0F1F900BF0837BD46F4
S32D00011D5080BD000080B483B000AF78600B46FB704D4B1B684C4A23F0080313604B4B1B684A4A23F48023136061
S32D00011D78484B1B68474A43F480331360454B1B68444A23F440731360414B1B68404A23F4435323F0300313605B
S32D00011DA03E4B1A68FB785B0203F400733B4913430B603A4B1A68FB785B101B0203F48073364913430B60344BDF
S32D00011DC81A68FB789B101B0103F01003304913430B602F4B1A68FB78DB105B0103F020032B4913430B602A4B7A
S32D00011DF01A68FB781B119B0103F04003264913430B60254B1A68FB785B11DB01DBB2224913430B60204B1A684E
S32D00011E18FB789B111B0303F480531D4913430B601B4B1A6897F90330DB115BB25B0303F40053174913430B6000
S32D00011E40164B1B68154A23F400331360134B1B68124A43F4003313600F4B1B680E4A43F0080313600D4B1B6898
S32D00011E680C4A43F440731360094B1B68084A43F4435343F030031360064B1B68054A43F48023136000BF0C3757
S32D00011E90BD4680BC704700BF80F00F4040F00F4080B483B000AF78600B46FB70464B1B68454A23F00803136052
S32D00011EB8444B1B68434A43F480331360414B1B68404A43F4802313603E4B1B683D4A23F4407313603A4B1B6841
S32D00011EE0394A23F4435323F030031360374B1A68FB785B0203F40073344913430B60334B1A68FB785B101B0273
S32D00011F0803F480732F4913430B602D4B1A68FB789B101B0103F01003294913430B60284B1A68FB78DB105B016B
S32D00011F3003F02003244913430B60234B1A68FB781B119B0103F040031F4913430B601E4B1A68FB785B11DB010E
S32D00011F58DBB21B4913430B60194B1A68FB789B111B0303F48053164913430B60144B1A6897F90330DB115BB2FE
S32D00011F805B0303F40053104913430B600F4B1B680E4A23F4003313600C4B1B680B4A43F400331360084B1B689C
S32D00011FA8074A43F008031360064B1B68054A23F48023136000BF0C37BD4680BC704700BF80F00F4040F00F40C3
S32D00011FD080B586B000AF78607B6800225A617B6800229A617B681B6AFB60FB68FB72FB681B0ABB72FB681B0C5E
S32D00011FF8DBB203F003037B722A217868FFF7A6FE00217868FFF748FF00217868FFF744FF01217868FFF740FFD3
S32D000120203F217868FFF73CFF2B217868FFF792FE00217868FFF734FF00217868FFF730FF00217868FFF72CFFFC
S32D00012048EF217868FFF728FF2C217868FFF77EFE314B1B68304A23F4407313602F4B1B682E4A23F47F2323F0C6
S32D00012070F00313602C4B1B682B4A23F01D031360274B1A687B681B6B254913430B60254B1A687B685B6B234933
S32D0001209813430B60224B1A687B689B6B204913430B601E4B1B681D4A23F0080313601A4B1B68194A43F480234D
S32D000120C0136000237B617B69EF2B19D800233B613B69B3F5A07F0FD2114B1B68104A23F4003313600E4B1B68B3
S32D000120E80D4A43F4003313603B6901333B61EBE77B6901337B61E2E7084B1B68074A43F008031360044B1B68E8
S32D00012110034A23F48023136000BF1837BD4680BD40F00F4080F00F40C0F00F4080B483B000AF78607B689B69C6
S32D00012138002B07DD7B685B695A1C7B685A617B6800229A6100BF0C37BD4680BC704780B582B000AF78607B68E5
S32D000121605A697B685B689A4205DB7B6800225A617868FFF72DFF00BF0837BD4680BD80B582B000AF78607B685A
S32D000121889B695A1C7B689A617B689A697B689B689A4205D17868FFF7C5FF7868FFF7D7FF00BF0837BD4680BDCE
S32D000121B080B586B002AFF860B9607A600123009301237A68B968F86800F059F8F86800F0D7FA00BF1037BD46F0
S32D000121D880BD80B485B000AF786039607B681B68FB603B681A687B681A603B68FA681A6000BF1437BD4680BC07
S32D00012200704780B586B002AFF860B9607A603B60BA683B681A447B68009313467A68B968F86800F0ABF8BA68EC
S32D000122283B68D118BA683B68D0187A68BB691344009303467A68F86800F09CF8BA683B68D1187A68BB69D018B3
S32D000122507A68BB6913440093BB680246F86800F08DF87A68BB691A447B680093BB68B968F86800F083F800BF87
S32D000122781037BD4680BD80B588B000AFF860B9607A603B60FB681B78022B03D0FB681B78032B11D17B68FB6173
S32D000122A0BA6AFB691344013BBB61FB68DA68BB68D31A3B613B683A69D31A01337B610DE0BB68FB613A68FB69D2
S32D000122C81344013BBB617B687B61BA6A7B691344013B3B612A21F868FFF738FDFB691B0ADBB203F00F03DBB2C4
S32D000122F01946F868FFF7D4FDFB69DBB21946F868FFF7CEFDBB691B0ADBB203F00F03DBB21946F868FFF7C4FDEA
S32D00012318BB69DBB21946F868FFF7BEFD2B21F868FFF714FD7B691B0ADBB203F00F03DBB21946F868FFF7B0FD38
S32D000123407B69DBB21946F868FFF7AAFD3B691B0ADBB203F00F03DBB21946F868FFF7A0FD3B69DBB21946F86877
S32D00012368FFF79AFD2C21F868FFF7F0FC00BF2037BD4680BD90B58BB000AFF860B9607A603B603A68BB68D31A0D
S32D000123901946F868FFF7F2FBF861BA6B7B68D31A1946F868FFF7EAFBB861BA69FB699A42CCBF01230023FB75D6
S32D000123B8FB7D002B0CD03A1D07F1080311461846FFF707FF3B4607F138011846FFF701FFBA683B689A420CDDDC
S32D000123E03A4607F1080311461846FFF7F6FE3B1D07F138011846FFF7F0FE3A68BB689A4206D1BB687A68194605
S32D00012408F868FFF7D1FE55E0BA6B7B68D31A184602F0D0FD04463A68BB68D31A184602F0C9FD03461946204619
S32D0001243002F0CCFE03463B617B68184602F0BEFD03467B62BB683B623B683A6A9A4235DCFB7D002B14D0786A6B
S32D0001245802F06CF94FF00002184B02F009F802460B461046194602F053FC03463A6A1946F868FFF799FE13E0AC
S32D00012480786A02F057F94FF000020E4B01F0F4FF02460B461046194602F03EFC03461A46396AF868FFF784FEED
S32D000124A83969786A02F0D2FC03467B623B6A01333B62C5E72C37BD4690BD00BF0000E03F80B584B000AFF86078
S32D000124D0B9607A60FB707A6813465B0013449B00991CBA6813461B011344DA1CFB78F86800F004F800BF103799
S32D000124F8BD4680BD80B58EB002AFF860B9607A60FB70FB780A2B06D1F868FFF720FEF868FFF708FEF2E0FB7807
S32D000125207D2B02D8FB781F2B01D82023FB70FB78203BFB70112300930C237A68B968F868FFF79DFEFA781346D8
S32D000125489B0013446F4AD35C3B75FA7813469B00134401336B4AD35C7B75FA7813469B0013440233674AD35C43
S32D00012570BB75FA7813469B0013440333634AD35CFB75FA7813469B00134404335F4AD35C3B760023BB62BB6AEB
S32D00012598062B00F3A180F86800F050F9F86800F0B3F8002387F82F3000237B627B6A042B35DC07F114027B6A22
S32D000125C013441B7803F00103002B14BF01230023FB76FB7E002B11D097F82F3083F00103DBB2002B03D0F86880
S32D000125E800F0CAF802E0F86800F08EF8F86800F08BF80DE097F82F30002B03D0F86800F01DF902E0F86800F016
S32D000126107FF8F86800F07CF8FB7E87F82F307B6A01337B62C6E797F82F30002B03D0F86800F008F902E0F868E7
S32D0001263800F06AF8F86800F067F8002387F82F3000233B623B6A042B42DC07F114023B6A13441B7803F001032B
S32D00012660002B14BF01230023BB76BB7E002B11D097F82F3083F00103DBB2002B03D0F86800F07EF802E0F86898
S32D0001268800F042F8F86800F03FF80DE097F82F30002B03D0F86800F0D1F802E0F86800F033F8F86800F030F8AB
S32D000126B0BB7E87F82F3007F114023B6A13441B785B08D9B207F114023B6A13440A461A703B6A01333B62B9E75F
S32D000126D8BB6A0133BB625AE7F86800F0AFF8002387F82F300123FB61FB69232B06DCF86800F00AF8FB69013326
S32D00012700FB61F5E73037BD4680BD00BF4C0B002080B483B000AF7860174B1B68164A43F480331360154B1B6822
S32D00012728144A23F008031360114B1B68104A43F4802313600E4B1B680D4A23F4003313600B4B1B680A4A43F4B9
S32D0001275000331360094B1B68084A43F008031360054B1B68044A23F48023136000BF0C37BD4680BC704700BFD5
S32D0001277840F00F4080F00F4080B483B000AF78602B4B1B682A4A43F480331360294B1B68284A23F00803136042
S32D000127A0254B1B68244A43F480231360224B1B68214A23F440731360204B1B681F4A23F47F2323F0F00313603B
S32D000127C81D4B1B681C4A23F01D031360184B1A687B685B6A164913430B60164B1A687B689B6A144913430B6055
S32D000127F0134B1A687B68DB6A114913430B600E4B1B680D4A23F4003313600B4B1B680A4A43F400331360094B49
S32D000128181B68084A43F008031360054B1B68044A23F48023136000BF0C37BD4680BC704740F00F4080F00F4087
S32D00012840C0F00F4080B483B000AF78602B4B1B682A4A43F480331360294B1B68284A23F008031360254B1B68C5
S32D00012868244A43F480231360224B1B68214A23F440731360204B1B681F4A23F47F2323F0F00313601D4B1B687A
S32D000128901C4A23F01D031360184B1A687B681B6B164913430B60164B1A687B685B6B144913430B60134B1A6815
S32D000128B87B689B6B114913430B600E4B1B680D4A23F4003313600B4B1B680A4A43F400331360094B1B68084ACA
S32D000128E043F008031360054B1B68044A23F48023136000BF0C37BD4680BC704740F00F4080F00F40C0F00F4095
S32D0001290880B485B000AF78607B681B6AFB60FB68FB72FB681B0ABB72FB681B0CDBB203F003037B727B68002266
S32D000129305A627B6800229A627B680022DA627B6800221A637B6800225A637B6800229A637B681A6BFB7A5B02FA
