S01100002E2E2F50726F746575732E73313966
S32D0000C000000000205DC2000011C3000017C300001DC3000023C3000029C3000000000000000000000000000073
S32D0000C028000000002FC3000035C30000000000003BC3000041C3000009D4000015D4000021D400002DD4000042
S32D0000C05039D4000045D4000051D400005DD4000069D4000075D4000081D400008DD4000099D40000A5D4000024
S32D0000C078B1D40000BDD40000C9D40000D5D40000E1D40000EDD40000F9D4000005D5000011D500001DD5000049
S32D0000C0A029D5000035D5000041D500004DD5000059D5000065D5000071D500007DD5000089D5000095D500006A
S32D0000C0C8A1D50000ADD50000B9D50000C5D50000D1D50000DDD50000E9D50000F5D5000001D600000DD6000090
S32D0000C0F019D600008D54010025D6000031D600003DD6000049D6000055D6000061D600006DD6000079D6000029
S32D0000C11885D6000091D600009DD60000A9D60000B5D60000C1D60000CDD60000D9D60000E5D60000F1D600004F
S32D0000C140FDD6000009D7000015D7000021D70000492B01002DD7000039D7000045D7000051D700005DD7000039
S32D0000C16869D7000075D7000081D700008DD7000099D70000A5D70000B1D70000BDD70000C9D70000D5D700000D
S32D0000C190E1D70000EDD70000F9D700006128010029270100C52701008DD100000129010005D8000011D800001E
S32D0000C1B81DD800004041060000000020C8170000404106000000FF1F00000000C8170020381D00000000FF1FC7
S32D0000C1E00000000080B489B000AFF860B9607A60BB68FB61FB68BB6100237B617A697B689A420BD2BA69131DFB
S32D0000C208BB61FB69191DF96112681A607B6904337B61EFE700BF2437BD4680BC704780B485B000AF786039609E
S32D0000C2307B68FB600023BB60BA683B689A4208D2FB681A1DFA6000221A60BB680433BB60F2E700BF1437BD46FE
S32D0000C25880BC704780B586B000AF72B6234B4CF220521A80214B4DF628121A80204B4FF4E9721A801F4B7B615F
S32D0000C2807B691F4A934214D27B691A1D7A611B683B617B691A1D7A611B68FB607B691A1D7A611B68BB60BA68E9
S32D0000C2A8F9683869FFF79AFFE6E77B69134A93420ED27B691A1D7A611B68FB607B691A1D7A611B68BB60B9688B
S32D0000C2D0F868FFF7A8FFECE70B4B7B600B4A7B681A603DF0F5F962B601F018F800F0F2FCFEE700BF0E20054064
S32D0000C2F800200540BCC10000D4C10000E4C1000008ED00E000C0000080B400AFFEE780B400AFFEE780B400AFF4
S32D0000C320FEE780B400AFFEE780B400AFFEE780B400AFFEE780B400AFFEE780B400AFFEE780B400AFFEE780B426
S32D0000C34800AFFEE7FFFFFFFFFFFFFFFFFFFFFFFFFFFFFFFFFFFFFFFFFFFFFFFFFFFFFFFFFFFFFFFFFFFFFFFF57
S32D0000C370FFFFFFFFFFFFFFFFFFFFFFFFFFFFFFFFFFFFFFFFFFFFFFFFFFFFFFFFFFFFFFFFFFFFFFFFFFFFFFFFC7
S32D0000C398FFFFFFFFFFFFFFFFFFFFFFFFFFFFFFFFFFFFFFFFFFFFFFFFFFFFFFFFFFFFFFFFFFFFFFFFFFFFFFFF9F
S32D0000C3C0FFFFFFFFFFFFFFFFFFFFFFFFFFFFFFFFFFFFFFFFFFFFFFFFFFFFFFFFFFFFFFFFFFFFFFFFFFFFFFFF77
S32D0000C3E8FFFFFFFFFFFFFFFFFFFFFFFFFFFFFFFFFFFFFFFFFFFFFFFFFFFFFFFFFFFFFFFFFFFFFFFFFEFFFFFF50
S32D0000C44010B5054C237833B9044B13B10448AFF300800123237010BDC817002000000000B02E060008B5034B3E
S32D0000C4681BB103490348AFF3008008BD00000000CC170020B02E060080B483B000AF78607B6823F000431846F0
S32D0000C4900C37BD4680BC7047B0B58AB004AF614B7B60614A6149624809F056FF3861642005F04CFF5F4807F024
S32D0000C4B898F85F495D4807F0DFFB07F1080207F10C031946594807F0BBF9034683F00103DBB2002B00D0F0E7D5
S32D0000C4E007F1080207F10C031946524807F0ACF90346002B00D0F3E74E4807F03BFD642005F024FF4B4807F087
S32D0000C50870F800230B224B49484807F0A8FA00230C224949454807F0A2FA00230D224749424807F09CFA002371
S32D0000C5307B617B69032B69DC0023092242493D4807F091FA3A1D7B691344197814230922384807F0C0FA07F11C
S32D0000C558080207F10C031946344807F071F9034683F00103DBB2002B1ED0364809F0DCFD01460C230B222D489A
S32D0000C58007F08DFA314809F0E1FD01460C230C22284807F084FA2D4809F0E6FD01460C230D22244807F07BFA68
S32D0000C5A8642005F0CFFED2E707F1080207F10C0319461E4807F044F90346002B00D0F3E71A4807F0D3FC1F48B7
S32D0000C5D009F0AEFD0346184639F086FF04460D461A4809F0B3FD0346184639F07DFF02460B46CDE90223CDE926
S32D0000C5F80045154A39690C480AF01CF87B6901337B6192E73969084809F084FF074806F0E8FF00BF1837BD4655
S32D0000C620B0BD00BF4142434474A0050078A00500741B0020EC1A002088A00500A0A00500ACA00500B8A005008B
S32D0000C648C4A00500541B0020D8A0050080B582B000AF7860396078683AF086FB034619460B4801F05DF978681B
S32D0000C6703AF07EFB03461946084801F055F9386805F07AFE044801F00DF9044801F00AF900BF0837BD4680BDF4
S32D0000C698F0170020F817002080B582B000AF7860396078683AF060FB034619460C4801F037F97B685B42184637
S32D0000C6C03AF056FB03461946084801F02DF9386805F052FE044801F0E5F8044801F0E2F800BF0837BD4680BD6E
S32D0000C6E8F0170020F8170020F0B583B000AF78603960254806F05EF9244806F05BF978683AF032FB0346194687
S32D0000C710214801F009F978683AF02AFB034619461E4801F001F91B4806F036F90446184806F032F90346234474
S32D0000C738184639F0C3FE4FF000024FF080433AF051F802460B4614461D46386839F0B6FE02460B4601210E46F3
S32D0000C760204629463AF08AF90346002B01D100231E46F3B2002B00D0D5E7074801F092F8064801F08FF800BFB1
S32D0000C7880C37BD46F0BD00BFE8170020EC170020F0170020F8170020F0B583B000AF78603960264806F006F9DE
S32D0000C7B0254806F003F978683AF0DAFA03461946224801F0B1F87B685B4218463AF0D0FA034619461E4801F0A1
S32D0000C7D8A7F81B4806F0DCF80446184806F0D8F803462344184639F069FE4FF000024FF0804339F0F7FF0246AF
S32D0000C8000B4614461D46386839F05CFE02460B4601210E46204629463AF030F90346002B01D100231E46F3B230
S32D0000C828002B00D0D5E7074801F038F8064801F035F800BF0C37BD46F0BD00BFE8170020EC170020F017002075
S32D0000C850F81700200000000090B585B000AF786039601423FB603B68012B02D16FF01303FB60474809F05CFC0D
S32D0000C8780346464918463AF087FC0346002B23D0414809F051FC04464FF07E5178683AF0B5F90346194620465B
S32D0000C8A03AF058FC0346002B10D1394809F040FC04464FF07E5178683AF0A6F90346194620463AF065FC0346FE
S32D0000C8C8002B01D0012300E00023002B54D02E4809F02AFC034601221446194678683AF035FC0346002B01D195
S32D0000C8F000231C46E3B2002B06D0FB685B4226491846FFF7A7FE15E0214809F011FC034601221446194678682E
S32D0000C9183AF01CFC0346002B01D100231C46E3B2002B03D01A49F868FFF790FE14A1D1E9000105F03DFD14480F
S32D0000C94009F0F6FB0346012214464FF0000118463AF000FC0346002B01D100231C46E3B2002B04D008A1D1E993
S32D0000C968000105F025FD084809F0DEFB03461946084807F094F978E700BF1437BD4690BD666666666666D63FB9
S32D0000C990541B00200000C0BFCDCCCC3DEC1A002090B585B000AF786039601423FB603B68012B02D16FF0130360
S32D0000C9B8FB60474809F0C6FB0346464918463AF0E3FB0346002B23D0414809F0BBFB04464FF07E5178683AF06E
S32D0000C9E011F90346194620463AF0B4FB0346002B10D1394809F0AAFB04464FF07E5178683AF002F903461946BF
S32D0000CA0820463AF0C1FB0346002B01D0012300E00023002B54D02E4809F094FB034601221446194678683AF0CC
S32D0000CA3091FB0346002B01D100231C46E3B2002B06D0FB685B4226491846FFF703FE15E0214809F07BFB034611
S32D0000CA5801221446194678683AF096FB0346002B01D100231C46E3B2002B03D01A49F868FFF7ECFD14A1D1E9CA
S32D0000CA80000105F099FC144809F060FB0346012214464FF0000118463AF05CFB0346002B01D100231C46E3B208
S32D0000CAA8002B04D008A1D1E9000105F081FC084809F048FB03461946084807F0F0F878E700BF1437BD4690BD6F
S32D0000CAD0666666666666D63F541B00200000C0BFCDCCCC3DEC1A002090B587B000AF78600123FB75FB7D002BAF
S32D0000CAF82CD06F4809F034FB03466E4918463AF043FB0346002B21D0694809F029FB0446694978683AF072F8CC
S32D0000CB200346194620463AF015FB0346002B0FD1614809F019FB0446614978683AF064F80346194620463AF003
S32D0000CB4823FB0346002B01D0012300E00023002B00F0A580564809F003FB03461946574807F09DF8524809F0FA
S32D0000CB70FBFA3861504809F0F7FA034601221446194678683AF0E6FA0346002B01D100231C46E3B2002B05D018
S32D0000CB984B496FF01300FFF77FFD15E0444809F0DFFA034601221446194678683AF0ECFA0346002B01D1002326
S32D0000CBC01C46E3B2002B03D03F491420FFF768FD37A1D1E9000105F0EFFB374809F0C4FAF8604FF0000138695A
S32D0000CBE83AF0D2FA0346002B3AD04FF00001F8683AF0CAFA0346002B32D0F968386939F0FDFF03461846FFF7E3
S32D0000CC1037FC0346012214462C4918463AF0B8FA0346002B01D100231C46E3B2002B1BD0274938693AF0ACFAF7
S32D0000CC380346002B07D022496FF00900FFF72CFD0023FB750CE02049F8683AF09DFA0346002B05D01A490A20B2
S32D0000CC60FFF71EFD0023FB7511A1D1E9000105F0A3FB114809F078FA0346012214464FF0000118463AF066FA50
S32D0000CC880346002B01D100231C46E3B2002B3FF42DAF05A1D1E9000105F08AFB26E700BF1C37BD4690BD00BFDB
S32D0000CCB0666666666666D63F541B00200000C0BF00004040EC1A0020CDCCCC3D0000C842000048432DE9B043E9
S32D0000CCD89AB006AF134808F0DBFFFFF7D9FB124806F07FFC1149104806F0C6FF07F1240207F1280319460C480C
S32D0000CD0006F0A2FD034683F00103DBB2002B00D0F0E707F1240207F128031946044806F093FD0346002B07D094
S32D0000CD28F3E700BF541B0020EC1A0020E0A00500AE4AAF49AF4809F00BFBF86407F1200207F11C0300931346AB
S32D0000CD50AB4AF96CA94809F09DFC07F1180207F1140300931346A64AF96CA44809F092FC07F1100207F10C03F2
S32D0000CD7800931346A04AF96C9E4809F087FC07F108023B1D009313469B4AF96C994809F07DFCF96C974809F0D0
S32D0000CDA0BDFB984BBB64984B7B64984B3B644FF00003FB6340F2D923BB6340F22A337B63D2233B634FF4DF73E6
S32D0000CDC8FB62914A91498B4809F0C2FAF8643B6A184639F085FB04460D46FB69184639F07FFB80468946B86CE0
S32D0000CDF039F07AFB02460B46CDE90423CDE90289CDE90045844AF96C7C4809F017FC834809F09CF903461846C2
S32D0000CE1839F066FB04460D467E4809F085F90346184639F05DFB804689467A4809F098F90346184639F054FB60
S32D0000CE4002460B46CDE90423CDE90289CDE90045734AF96C694809F0F1FB7249724806F00FFF7B69002118467E
S32D0000CE68FFF79AFD786CFFF73BFE6E496C4806F003FF4FF000006C4905F09AFABB69184639F02EFB04460D46AB
S32D0000CE907B69184639F028FB80468946786C39F023FB02460B46CDE90423CDE90289CDE90045604AF96C5148CC
S32D0000CEB809F0C0FB574809F045F90346184639F00FFB04460D46534809F02EF90346184639F006FB804689462A
S32D0000CEE04E4809F041F90346184639F0FDFA02460B46CDE90423CDE90289CDE900454E4AF96C3E4809F09AFBD1
S32D0000CF08B96B1920FFF7F0FB3B6901211846FFF79FFCF96A0C20FFF73FFC386CFFF7E0FD44493F4806F0A8FE21
S32D0000CF304FF000003E4905F03FFA3B69184639F0D3FA04460D46FB68184639F0CDFA80468946386C39F0C8FA75
S32D0000CF5802460B46CDE90423CDE90289CDE90045354AF96C234809F065FB2A4809F0EAF80346184639F0B4FA86
S32D0000CF8004460D46254809F0D3F80346184639F0ABFA80468946214809F0E6F80346184639F0A2FA02460B4666
S32D0000CFA8CDE90423CDE90289CDE90045234AF96C104809F03FFB796B1920FFF795FBBB6800211846FFF744FC6A
S32D0000CFD0396B6FF00B00FFF7E3FBF86BFFF784FD7B6801211846FFF7DBFC17490E4806F047FE2BE0FCA00500AA
S32D0000CFF878A00500741B002000A1050000003443000087430000B44274A0050008A1050014A10500541B002052
S32D0000D02034A1050054A10500EC1A002058A105000000F03F5CA105007CA105009CA10500A0A10500C0A10500A9
S32D0000D048E0A105004FF00000274905F0B1F9BB68184639F045FA04460D467B68184639F03FFA80468946F86BC5
S32D0000D07039F03AFA02460B46CDE90423CDE90289CDE900451B4AF96C1B4809F0D7FA1B4809F05CF80346184635
S32D0000D09839F026FA04460D46164809F045F80346184639F01DFA80468946124809F058F80346184639F014FAF3
S32D0000D0C002460B46CDE90423CDE90289CDE900450B4AF96C084809F0B1FAF96C064809F01DFA00231846503717
S32D0000D0E8BD46BDE8B08300BF0000F03FE4A10500741B0020541B002004A2050080B582B000AF786039607B6874
S32D0000D110012B1ED13B684FF6FF72934219D10F4809F0D0FD0E4A0F490C4809F0CBFB10210D4805F083F91221B4
S32D0000D1380C4805F07FF90C4A01210C4800F070FB094A00210A4800F06BFB00BF0837BD4680BD00BFE4170020AD
S32D0000D16000000020E56C0100E8170020EC17002000001041F0170020F817002080B500AF4FF6FF710120FFF796
S32D0000D188BDFF80BD80B500AF0F4BD3F8A03003F48053002B14BF01230023DBB2002B10D0094BD3F8A030084ABF
S32D0000D1B023F48053C2F8A030064809F009FA064B1B68054A23F40053136000BF80BD00BF00C00440741B002025
S32D0000D1D8C0F00F4080B400AF124B4FF480725A63114B5B69104A43F4005353610E4B1B680D4A43F40053136010
S32D0000D2000A4B0C4A1A630C4BD3F888310A4A43F08063C2F88831084B9B68074A43F08063936000BFBD4680BC72
S32D0000D228704700BF00C00440C0F00F4003010A0000E100E080B400AF334B00225A70324B98221A70304B9B79F3
S32D0000D250DBB203F01003002B14BF01230023DBB2002B00D0F2E72A4B9B79DBB29B08DBB203F00303022B14BF38
S32D0000D27801230023DBB2002B00D0F0E7224B18221A71214B00225A71204B03F580531A461F4B53641C4B5422C3
S32D0000D2A05A711B4B9B79DBB203F02003002B0CBF01230023DBB2002B00D0F2E7144B9B79DBB203F04003002B79
S32D0000D2C80CBF01230023DBB2002B00D0F2E70E4B1B78DBB20C4A03F03F03DBB213700A4B9B79DBB29B08DBB28B
S32D0000D2F003F00303032B14BF01230023DBB2002B00D0F0E700231846BD4680BC704700BF004006400070044000
S32D0000D3180000130180B500AF314B03F580539B6B2F4A43F4785302F580529363FFF752FFFFF780FF2B4B5822BC
S32D0000D3401A602A4B1B684FF47A7202FB03F3284A1360274B1B681A46234B03F580535B6C1B0E03F00F0301338F
S32D0000D368B2FBF3F31A46214B1A601D4B03F58053DB6B1B4A43F0225302F58052D363184B03F580531B6B164A25
S32D0000D39043F0006302F580521363174B4FF480721A61642004F0BEFE134B5B69124A23F010035361104B00227F
S32D0000D3B81A600F4B10225A610E4805F09FFF05F073FB05F0D1FB0C4804F00AFF0B4809F057FA4FF4FA6004F0FA
S32D0000D3E0B5FF00BF80BD00BF00700440381A0020341A00203C1A002000D00340EC1A0020301A0020201E0020A5
S32D0000D40880B500AFFEF79BFF00BF80BD80B500AFFEF795FF00BF80BD80B500AFFEF78FFF00BF80BD80B500AFD7
S32D0000D430FEF789FF00BF80BD80B500AFFEF783FF00BF80BD80B500AFFEF77DFF00BF80BD80B500AFFEF777FF5E
S32D0000D45800BF80BD80B500AFFEF771FF00BF80BD80B500AFFEF76BFF00BF80BD80B500AFFEF765FF00BF80BDED
S32D0000D48080B500AFFEF75FFF00BF80BD80B500AFFEF759FF00BF80BD80B500AFFEF753FF00BF80BD80B500AF13
S32D0000D4A8FEF74DFF00BF80BD80B500AFFEF747FF00BF80BD80B500AFFEF741FF00BF80BD80B500AFFEF73BFFD6
S32D0000D4D000BF80BD80B500AFFEF735FF00BF80BD80B500AFFEF72FFF00BF80BD80B500AFFEF729FF00BF80BD29
S32D0000D4F880B500AFFEF723FF00BF80BD80B500AFFEF71DFF00BF80BD80B500AFFEF717FF00BF80BD80B500AF4F
S32D0000D520FEF711FF00BF80BD80B500AFFEF70BFF00BF80BD80B500AFFEF705FF00BF80BD80B500AFFEF7FFFE4E
S32D0000D54800BF80BD80B500AFFEF7F9FE00BF80BD80B500AFFEF7F3FE00BF80BD80B500AFFEF7EDFE00BF80BD67
S32D0000D57080B500AFFEF7E7FE00BF80BD80B500AFFEF7E1FE00BF80BD80B500AFFEF7DBFE00BF80BD80B500AF8D
S32D0000D598FEF7D5FE00BF80BD80B500AFFEF7CFFE00BF80BD80B500AFFEF7C9FE00BF80BD80B500AFFEF7C3FEC9
S32D0000D5C000BF80BD80B500AFFEF7BDFE00BF80BD80B500AFFEF7B7FE00BF80BD80B500AFFEF7B1FE00BF80BDA3
S32D0000D5E880B500AFFEF7ABFE00BF80BD80B500AFFEF7A5FE00BF80BD80B500AFFEF79FFE00BF80BD80B500AFC9
S32D0000D610FEF799FE00BF80BD80B500AFFEF793FE00BF80BD80B500AFFEF78DFE00BF80BD80B500AFFEF787FE40
S32D0000D63800BF80BD80B500AFFEF781FE00BF80BD80B500AFFEF77BFE00BF80BD80B500AFFEF775FE00BF80BDDE
S32D0000D66080B500AFFEF76FFE00BF80BD80B500AFFEF769FE00BF80BD80B500AFFEF763FE00BF80BD80B500AF04
S32D0000D688FEF75DFE00BF80BD80B500AFFEF757FE00BF80BD80B500AFFEF751FE00BF80BD80B500AFFEF74BFEB8
S32D0000D6B000BF80BD80B500AFFEF745FE00BF80BD80B500AFFEF73FFE00BF80BD80B500AFFEF739FE00BF80BD1A
S32D0000D6D880B500AFFEF733FE00BF80BD80B500AFFEF72DFE00BF80BD80B500AFFEF727FE00BF80BD80B500AF40
S32D0000D700FEF721FE00BF80BD80B500AFFEF71BFE00BF80BD80B500AFFEF715FE00BF80BD80B500AFFEF70FFE2F
S32D0000D72800BF80BD80B500AFFEF709FE00BF80BD80B500AFFEF703FE00BF80BD80B500AFFEF7FDFD00BF80BD56
S32D0000D75080B500AFFEF7F7FD00BF80BD80B500AFFEF7F1FD00BF80BD80B500AFFEF7EBFD00BF80BD80B500AF7E
S32D0000D778FEF7E5FD00BF80BD80B500AFFEF7DFFD00BF80BD80B500AFFEF7D9FD00BF80BD80B500AFFEF7D3FDAB
S32D0000D7A000BF80BD80B500AFFEF7CDFD00BF80BD80B500AFFEF7C7FD00BF80BD80B500AFFEF7C1FD00BF80BD94
S32D0000D7C880B500AFFEF7BBFD00BF80BD80B500AFFEF7B5FD00BF80BD80B500AFFEF7AFFD00BF80BD80B500AFBA
S32D0000D7F0FEF7A9FD00BF80BD80B500AFFEF7A3FD00BF80BD80B500AFFEF79DFD00BF80BD80B500AFFEF797FD23
S32D0000D81800BF80BD80B500AFFEF791FD00BF80BD80B584B000AFF8600B467A60FB72FB68FA7A1A71FB68002294
S32D0000D8405A711749786839F0A3FC0346002B02D0134B7B600AE04FF07E51786839F084FC0346002B02D04FF062
S32D0000D8687E537B60786838F03BFE09A3D3E9002338F08EFE02460B461046194639F06AF90246FB681A60FB6804
S32D0000D89018461037BD4680BDABAAAAAAAAAA20400000404180B582B000AF78607B685B79002B09D07B680022F9
S32D0000D8B85A717B6819791E230022034804F0CAFC00BF0837BD4680BD301A002080B584B000AF786039603B68C6
S32D0000D8E07F2B02DD7F23FB7308E03B6813F1800F02DA8023FB7301E03B68FB737B685B79FA7B9A4209D07B68C0
S32D0000D908FA7B5A717B681979FA7B1E23034804F0A1FC00BF1037BD4680BD00BF301A0020B0B584B000AF78601B
S32D0000D93039603749386839F00DFC0346002B02D0334B3B6008E03349386839F021FC0346002B01D02F4B3B60DB
S32D0000D958386838F0C5FD04460D467B681B68184638F0BEFD4FF00002294B38F03BFF02460B462046294638F026
S32D0000D9800BFE02460B461046194639F0E7F803463B604FF00001386839F0F0FB0346002B10D0386838F0A0FD89
S32D0000D9A817A3D3E9002338F0F3FD02460B461046194639F087F80346FB6018E0386838F08FFD4FF00002134B1B
S32D0000D9D038F0E2FD02460B46104619464FF000020D4B38F003FF02460B461046194639F06DF80346FB60F96830
S32D0000D9F87868FFF76BFF00BF1037BD46B0BD00BF52B81E85EB51F43F0000C8C20000C8420000594000006040A3
S32D0000DA2080B483B000AF03460A46FB711346BB71BB79002B03D1134B00221A7002E0114B01221A703823FB7149
S32D0000DA480E4B1A78FB791343FB710D4B9B78DBB20B4A43F01003DBB29370094B9B78DBB2074A43F02003DBB244
S32D0000DA709370054AFB79137100BF0C37BD4680BC704700BF001800200060064080B483B000AF01237B607B68B1
S32D0000DA98312B04DC00BF7B6801337B60F7E700BF0C37BD4680BC704780B582B000AF03460A46FB711346BB71FD
S32D0000DAC0134B1B7800211846FFF7AAFF00F024F8104AFB79137100F01FF80E4ABB79137100F01AF80B4B9B7849
S32D0000DAE8DBB20A4A23F02003DBB29370074B9B78DBB2064A23F01003DBB29370FFF7C2FF00BF0837BD4680BD7C
S32D0000DB10011800200060064080B483B000AF174B1B78002B24D100237B60154BDB78DBB203F00203002B0CBFB1
S32D0000DB3801230023DBB2002B0DD07B6842F21072934203DD0B4B01221A7004E07B6801337B6000BFE5E7084BDE
S32D0000DB60DB78DBB2064A43F00203DBB2D37000E000BF0C37BD4680BC704700BF021800200060064080B582B081
S32D0000DB8800AF0346FB71FB79184600F05FF800BF0837BD4680BD80B582B000AF03460A46FB711346BB7100F024
S32D0000DBB035F8FB795B00DBB21846FFF7E3FFBB791846FFF7DFFF00F037F800BF0837BD4680BD80B500AFFF20C2
S32D0000DBD800F03CF80346184680BD80B584B000AF0346FB7100F016F8FB795B005BB243F001035BB2DBB2184641
S32D0000DC00FFF7C0FFFFF7E5FF0346FB7300F014F8FB7B18461037BD4680BD000080B400AF044B9B68034A43F4A0
S32D0000DC288013936000BFBD4680BC704740F00F4080B400AF044B5B68034A43F48013536000BFBD4680BC7047A0
S32D0000DC5040F00F4080B485B000AF0346FB710023BB73164BDB6A03F00043012B0CBF01230023DBB2002B03D064
S32D0000DC78FB7B0133FB73F0E70E4BDB6A0D4A43F00043D3620B4AFB7953630A4BDB6A03F40033002B0CBF012392
S32D0000DCA00023DBB2002B00D0F3E7044B9B6BBB73BB7B18461437BD4680BC704700C00A4080B582B000AF204BEE
S32D0000DCC803F580531B6B1E4A43F4805302F5805213631C4B4FF480721A651B4B5B691A4A43F480135361FFF70F
S32D0000DCF0A3FF164B4FF400725A65144B4FF400729A65124B4FF40072DA65124B124A1A60104B124ADA600023E4
S32D0000DD187B607B68092B06DCFF20FFF72FFF7B6801337B60F5E704A1D1E9000104F040FB00BF0837BD4680BD2B
S32D0000DD409A9999999999B93F0070044000A0044040F00F4000C00A40000C00800500003E90B486B000AFF860B5
S32D0000DD68B9607A60FB68534A93420AD1524B03F580535B6B504A43F4806302F58052536345E0FB684D4A934295
S32D0000DD900AD14B4B03F580535B6B494A43F4006302F58052536336E0FB68474A93420AD1434B03F580535B6BDE
S32D0000DDB8414A43F4805302F58052536327E0FB68404A93420AD13C4B03F580535B6B3A4A43F4005302F5805296
S32D0000DDE0536318E0FB683A4A93420AD1344B03F580539B6A324A43F4806302F58052936209E02F4B03F58053FF
S32D0000DE089B6A2D4A43F4006302F580529362FB68DB78DBB223F00C03DAB2FB68DA70FB6800229A70BB684FF485
S32D0000DE307A7203FB02F27B681B0192FBF3F39CB2FB681B78DBB223F01F03FB75230A9BB2DBB203F01F03DAB256
S32D0000DE58FB7D1343DAB2FB681A70E2B2FB685A70BB684FF4FA4203FB02F27B681B0192FBF3F39AB263019BB291
S32D0000DE80D31A9CB2FB689B7ADBB223F01F03FB75E3B203F01F03DAB2FB7D1343DAB2FB689A72FB68DB78DBB24D
S32D0000DEA843F00C03DAB2FB68DA7000BF1837BD4690BC704700A006400070044000B0064000C0064000D0064011
S32D0000DED000A00E4080B483B000AF78607B681B79DBB203F02003002B0CBF01230023DBB2002B00D0F2E77B68AD
S32D0000DEF8DB79DBB218460C37BD4680BC704780B483B000AF78600B46FB707B681B79DBB25BB2DB43DBB2DB093A
S32D0000DF20DBB2002B00D0F4E77B68FA78DA7100BF0C37BD4680BC704780B487B000AFF860B9607A60FB687B6134
S32D0000DF48BB683B617B685A1E7A60002B14BF01230023DBB2002B08D03A69531C3B617B69591C796112781A70ED
S32D0000DF70ECE700BF1C37BD4680BC704780B487B000AFF860B9607A60FB687B617B685A1E7A60002B14BF0123AD
S32D0000DF980023DBB2002B06D07B695A1C7A61BA68D2B21A70EEE700BF1C37BD4680BC704780B489B000AFF860F4
S32D0000DFC0B9607A60FB68FB61BB68BB6100237B617B685A1E7A60002B0FD0FB695A1CFA611B781946BB695A1C43
S32D0000DFE8BA611B78CB1A7B617B69002B01D1012300E00023002B00D0E6E77B6918462437BD4680BC704780B405
S32D0000E01083B000AF786039607B681B78002B09D07B681B781A463B68934203D07B6801337B60F1E77B681B78B4
S32D0000E03818460C37BD4680BC704780B584B000AF786039607B681B6BFB60FA683B689A4252D07B681B79002B31
S32D0000E06035D07B6858787B6803F134010123FA6803F0F6FE0346002B14BF01230023DBB2002B01D001233CE00A
S32D0000E0887B6800221A717B685A6A7B681B6A1344FA689A4217D27B68DB78FB72FB7A012B11D97B681B6AFA6855
S32D0000E0B01344FB607B6858787B6803F134010123FA6803F0CDFEFB7A013BFB72EAE73B68002B15D07B68587838
S32D0000E0D87B6803F1340101233A6803F0D9FD0346002B14BF01230023DBB2002B01D0012303E07B683A681A635F
S32D0000E100002318461037BD4680BD80B584B000AF786000217868FFF794FF0346FB73FB7B002B40F093807B68F1
S32D0000E1281B78032B7DD17B685B79002B79D07B6800221A637B6834334FF4007200211846FFF718FF7B68552228
S32D0000E15083F832227B68AA2283F833227B68522283F834207B68522283F835207B68612283F836207B68412289
S32D0000E17883F837207B68722283F818227B68722283F819227B68412283F81A227B68612283F81B227B681B69CC
S32D0000E1A0DAB27B6883F81C227B681B699BB21B0A9BB2DAB27B6883F81D227B681B691B0CDAB27B6883F81E2222
S32D0000E1C87B681B691B0EDAB27B6883F81F227B68DB68DAB27B6883F820227B68DB689BB21B0A9BB2DAB27B68C8
S32D0000E1F083F821227B68DB681B0CDAB27B6883F822227B68DB681B0EDAB27B6883F823227B6858787B6803F1C0
S32D0000E21834017B685A69012303F01EFE7B6800225A717B685B7800220021184603F0E0FE0346002B14BF012367
S32D0000E2400023DBB2002B01D00123FB73FB7B18461037BD4680BD80B483B000AF786039603B68023B3B607B6832
S32D0000E268DB69023B3A689A4201D3002308E07B689B781A463B6803FB02F27B68DB6A134418460C37BD4680BC60
S32D0000E290704780B586B000AF786039603B68012B04D97B68DB693A689A4201D30123B5E07B681B78032B7AD052
S32D0000E2B8032B00F3AD80012B02D0022B4DD0A7E03B683B613B695B083A6913443B617B685A6A3B695B0A134438
S32D0000E2E019467868FFF7ADFE0346002B14BF01230023DBB2002B40F088803B69C3F308037A68134493F8343025
S32D0000E308FB603B6901333B617B685A6A3B695B0A134419467868FFF790FE0346002B14BF01230023DBB2002B08
S32D0000E3306DD13B69C3F308037A68134493F834301B021A46FB681343FB603B6803F00103002B02D0FB681B0945
S32D0000E35860E0FB68C3F30B035CE07B685A6A3B681B0A134419467868FFF767FE0346002B14BF01230023DBB279
S32D0000E380002B46D13B685B0003F4FF7330337A68134404337B617B6901331B781B021AB27B691B781BB21343E9
S32D0000E3A81BB29BB236E07B685A6A3B68DB09134419467868FFF741FE0346002B14BF01230023DBB2002B22D1E5
S32D0000E3D03B689B0003F4FE7330337A68134404337B617B6903331B781A067B6902331B781B0413437A690132C6
S32D0000E3F81278120213437A691278134323F0704308E000BF04E000BF02E000BF00E000BF4FF0FF3318461837D2
S32D0000E420BD4680BD80B588B000AFF860B9607A60BB68012B04D9FB68DB69BA689A4202D30223FB77EEE0FB68B9
S32D0000E4481B78032B00F09780032B00F3DA80012B02D0022B6BD0D4E0BB687B617B695B087A6913447B61FB688A
S32D0000E4705A6A7B695B0A13441946F868FFF7E1FD0346FB77FB7F002B40F0C2807B69C3F308033033FA681344F4
S32D0000E4980433BB61BB6803F00103002B0DD0BB691B785BB203F00F035AB27B68DBB21B015BB213435BB2DBB283
S32D0000E4C001E07B68DBB2BA6913707B6901337B61FB6801221A71FB685A6A7B695B0A13441946F868FFF7ADFD0C
S32D0000E4E80346FB77FB7F002B40F090807B69C3F308033033FA6813440433BB61BB6803F00103002B03D07B6857
S32D0000E5101B09DBB20CE0BB691B7823F00F03DAB27B681B0ADBB203F00F03DBB21343DBB2BA69137073E0FB6872
S32D0000E5385A6ABB681B0A13441946F868FFF77DFD0346FB77FB7F002B62D1BB685B0003F4FF733033FA6813448D
S32D0000E5600433BB617B68DAB2BB691A707B689BB21B0A9AB2BB690133D2B21A704FE0FB685A6ABB68DB09134462
S32D0000E5881946F868FFF759FD0346FB77FB7F002B40D1BB689B0003F4FE733033FA6813440433BB61BB690333FA
S32D0000E5B01B781A06BB6902331B781B041343BA690132127812021343BA691278134303F070437A6813437B6023
S32D0000E5D87B68DAB2BB691A707B689BB21B0A9AB2BB690133D2B21A707B681A0CBB690233D2B21A707B681A0E76
S32D0000E600BB690333D2B21A7009E00223FB7706E000BF04E000BF02E000BF00E000BFFB6801221A71FB7F184693
S32D0000E6282037BD4680BD80B584B000AF786039603B68012B04D97B68DB693A689A4202D30223FB7338E00023B0
S32D0000E650FB737B68DB693A689A4231D239687868FFF717FEB860BB68002B26D0BB68012B02D10223FB7323E0E6
S32D0000E678BB68B3F1FF3F02D10123FB731CE0002239687868FFF7CAFE0346FB73FB7B002B11D17B681B69B3F168
S32D0000E6A0FF3F07D07B681B695A1C7B681A617B6801225A71BB683B60CBE700BF00E000BFFB7B18461037BD463F
S32D0000E6C880BD80B586B000AF786039603B68002B0DD17B68DB683B613B69002B04D07B68DB693A699A4215D3BD
S32D0000E6F001233B6112E039687868FFF7CAFDB860BB68012B01D8012364E07B68DB69BA689A4201D2BB685DE00C
S32D0000E7183B683B613B697B617B6901337B617B68DB697A699A4207D302237B617A693B699A4201D9002349E0D6
S32D0000E74079697868FFF7A5FDB860BB68002B0ED0BB68B3F1FF3F02D0BB68012B01D1BB6838E07A693B699A4277
S32D0000E768DAD1002332E000BF6FF0704279697868FFF754FE0346FB73FB7B002B09D13B68002B06D07A6939686F
S32D0000E7907868FFF747FE0346FB73FB7B002B10D17B687A69DA607B681B69B3F1FF3F10D07B681B695A1E7B681C
S32D0000E7B81A617B6801225A7107E0FB7B012B02D14FF0FF3300E001237B617B6918461837BD4680BD80B487B0FE
S32D0000E7E000AF786039607B685B6A04333B613B685B0A7A6812689278B3FBF2F37B613B691A1D3A611B68FB603F
S32D0000E808FB68002B01D1002310E07A69FB689A4207D37A69FB68D31A7B613B6904333B61E9E700BF3B691A6838
S32D0000E8307B69134418461C37BD4680BC704780B584B000AF78600B467B807B687A88DA807B689B68FB60FB68B9
S32D0000E858012B05D07B681B68DB69FA689A4201D3022364E0FB68002B08D17B681B681B78032B03D17B681B68A4
S32D0000E8809B6AFB60FB68002B13D17B68FA68DA607B681B681B897A889A4201D302234AE07B681B689A6A7B88A1
S32D0000E8A81B091A447B681A6135E07B681B689B789BB21B017B817A887B899A421CD37B681B68F9681846FFF783
S32D0000E8D0E0FCF860FB68B3F1FF3F01D101232AE0FB68012B05D97B681B68DB69FA689A4201D302231FE07A8852
S32D0000E8F87B89D31A7B80DEE77B68FA68DA607B681B68F9681846FFF7A2FC02467B881B091A447B681A617B68FB
S32D0000E9201B6803F134027B8803F00F035B011A447B685A61002318461037BD4680BD90B585B000AF786039601A
S32D0000E9487B68DB8801333B813B89002B03D07B681B69002B01D10423C4E03B8903F00F03002B40F0B0807B6843
S32D0000E9701B695A1C7B681A617B68DB68002B08D17B681B681B893A899A42C0F0A0800423ACE03B891B097A6801
S32D0000E99812689278013A1340002B40F094807B681A687B68DB6819461046FFF76EFCF860FB68012B01D802234B
S32D0000E9C094E0FB68B3F1FF3F01D101238EE07B681B68DB69FA689A426DD33B68002B01D1042383E07B681A6855
S32D0000E9E87B68DB6819461046FFF76BFEF860FB68002B01D1072375E0FB68012B01D1022370E0FB68B3F1FF3F75
S32D0000EA1001D101236AE07B681B6800211846FFF710FB0346002B14BF01230023DBB2002B01D001235AE07B685A
S32D0000EA381B6834334FF4007200211846FFF79AFA7B681A687B681C68F9681046FFF7FFFB034623630023FB7236
S32D0000EA607B681B689B78FA7A9A421CD27B681B6801221A717B681B6800211846FFF7E1FA0346002B14BF01239C
S32D0000EA880023DBB2002B01D001232BE07B681B681A6B01321A63FB7A0133FB72DCE77B681B68196BFA7A7B68D0
S32D0000EAB01B688A1A1A637B68FA68DA607B681B68F9681846FFF7C7FB02467B681A617B683A89DA807B681B682C
S32D0000EAD803F134023B8903F00F035B011A447B685A61002318461437BD4690BD80B586B000AF786000217868B6
S32D0000EB00FFF79DFE0346FB75FB7D002B01D0FB7D3CE07B681A687B681B6919461046FFF790FA0346FB75FB7D63
S32D0000EB28002B2BD17B685B693B613B691B78FB73FB7B002B02D10423FB7522E03B690B331B7803F00803002B05
S32D0000EB500BD17B689B690B2219463869FFF72CFA0346002B01D1012300E00023002B0BD100217868FFF7E3FE3F
S32D0000EB780346FB75FB7D002B03D1C6E700BF00E000BFFB7D18461837BD4680BD80B584B000AF786000217868DE
S32D0000EBA0FFF74DFE0346FB73FB7B002B21D17B681A687B681B6919461046FFF742FA0346FB73FB7B002B13D1CD
S32D0000EBC87B685B691B78BB73BB7BE52B0DD0BB7B002B0AD001217868FFF7ADFE0346FB73FB7B002B01D1DEE7C7
S32D0000EBF000BFFB7B002B1FD17B681A687B681B6919461046FFF71DFA0346FB73FB7B002B12D17B685B69BB601C
S32D0000EC1820220021B868FFF7ADF97B689B690B221946B868FFF784F97B681B6801221A71FB7B18461037BD4677
S32D0000EC4080BD000080B588B000AF786039603B681B68FB60FB681B782F2B03D0FB681B785C2B03D1FB68013350
S32D0000EC68FB60F3E77B689B69BB600B222021B868FFF780F90023FB7700233B613B697B610823BB61FA687B69E9
S32D0000EC9013441B782E2B2FD17B695A1C7A61FA6813441B78BB77BB7F2E2B0AD17B69022B07D83B695A1C3A614D
S32D0000ECB8BA681344BA7F1A70EAE7BB7F2F2B07D0BB7F5C2B04D0BB7F202B01D90623A7E0FA687B691A443B68CB
S32D0000ECE01A60BB7F202B01D8242200E02022BB680B331A70002397E07B695A1C7A61FA6813441B78BB77BB7F54
S32D0000ED08202B58D9BB7F2F2B55D0BB7F5C2B52D0BB7F2E2B03D03A69BB699A420FD3BB69082B02D1BB7F2E2B1D
S32D0000ED3001D0062378E008233B610B23BB61FB7F9B00FB773AE097F91E30002B08DAFB7F43F00303FB77BB7F67
S32D0000ED58803B354AD35CBB77BB7F19463348FFF752F90346002B14BF01230023DBB2002B01D0062354E0BB7FEF
S32D0000ED80402B07D9BB7F5A2B04D8FB7F43F00203FB770CE0BB7F602B09D9BB7F7A2B06D8FB7F43F00103FB77E8
S32D0000EDA8BB7F203BBB773B695A1C3A61BA681344BA7F1A709CE7FA687B691A443B681A60BB7F202B01D80423BC
S32D0000EDD000E00023BB773B69002B01D1062323E0BB681B78E52B02D1BB6805221A70BB69082B02D1FB7F9B0067
S32D0000EDF8FB77FB7F03F00303012B03D1BB7F43F01003BB77FB7F03F00C03042B03D1BB7F43F00803BB77BB680A
S32D0000EE200B33BA7F1A70002318462037BD4680BD24A20500A4A2050080B584B000AF786039603B681B782F2B7C
S32D0000EE4803D03B681B785C2B06D13B6801333B607B6800229A6004E07B681B689A697B689A603B681B781F2B1A
S32D0000EE7009D800217868FFF7E2FC0346FB737B6800225A6169E03B4619467868FFF7DAFE0346FB73FB7B002B18
S32D0000EE9858D17868FFF72AFE0346FB737B689B69DB7ABB73FB7B002B1DD0FB7B042B4BD1BB7B03F02003002B3E
S32D0000EEC00DD07B6800229A607B6800225A610023FB73BB7B03F00403002B3BD135E0BB7B03F00403002B35D11A
S32D0000EEE80523FB7332E0BB7B03F00403002B2FD17B685B69BB60BB680B331B7803F01003002B02D10523FB73A9
S32D0000EF1023E0BB6815331B781B021AB2BB6814331B781BB213431BB29BB21B04BA681B321278120211B2BA689E
S32D0000EF381A32127812B20A4312B292B21A437B689A609CE700BF04E000BF02E000BF00E000BFFB7B1846103742
S32D0000EF60BD4680BD80B582B000AF786039607B6858787B6803F1340101233A6802F08CFE0346002B14BF012350
S32D0000EF880023DBB2002B01D003234AE07B6803F2322301331B781B021AB27B6893F832321BB213431BB2214A55
S32D0000EFB0934201D0022338E07B686A3303331B781A067B686A3302331B781B0413437A686A32013212781202DB
S32D0000EFD813437A6892F86A20134323F07F43144A934201D100231CE07B68863303331B781A067B68863302331A
S32D0000F0001B781B0413437A68863201321278120213437A6892F88620134323F07F43064A934201D1002300E0E2
S32D0000F028012318460837BD4680BD00BF55AAFFFF4641540080B592B000AFF860B9601346FB71FB681B68FB6283
S32D0000F050FB6A1B78303B3B643B6C092B0BD8FB6A01331B783A2B06D1FB6A0233FB62FB68FA6A1A6002E0A34B62
S32D0000F0781B783B643B6C002B01D00B2367E2A04A3B6C52F82330BB62BB68BA6A1A60BB6A002B01D10C235AE285
S32D0000F0A0BB6A1B78002B1AD0BB6A5B78184603F025F8034687F8273097F8273003F00103002B0CD1FB79002B6C
S32D0000F0C807D097F8273003F00403002B01D00A233DE200233BE2BB6A00221A703B6CDAB2BB6A5A70BB6A5B78F0
S32D0000F0F0184602F097FB034687F8273097F8273003F00103002B01D0032324E2FB79002B07D097F8273003F09D
S32D0000F1180403002B01D00A2319E20023FB63F96BB86AFFF71BFF034687F8473097F84730012B22D1BB6A03F506
S32D0000F140F9733B623B6A04331B78002B19D03B6A0B331B781A063B6A0A331B781B0413433A6A09321278120218
S32D0000F16813433A6A083212781343FB63F96BB86AFFF7F4FE034687F8473097F84730032B01D10123E3E197F8DD
S32D0000F1904730002B01D00D23DDE1BB6A93F840301B021AB2BB6A93F83F301BB213431BB2B3F5007F01D00D23B0
S32D0000F1B8CDE1BB6A93F84B301B021AB2BB6A93F84A301BB213431BB29BB2BB63BB6B002B12D1BB6A93F85B3073
S32D0000F1E01A06BB6A93F85A301B041343BA6A92F8592012021343BA6A92F858201343BB63BB6ABA6B1A62BB6A1C
S32D0000F20893F84430FB77BB6AFA7FDA70FB7F012B04D0FB7F022B01D00D2398E1FA7FBB6B02FB03F3BB63BB6A0F
S32D0000F23093F84130FB77BB6AFA7F9A70FB7F002B05D0FA7FFB7F013B1340002B01D00D2381E1BB6A93F84630EA
S32D0000F2581B021AB2BB6A93F845301BB213431BB29AB2BB6A1A81BB6A1B8903F00F03002B01D00D236BE1BB6A13
S32D0000F28093F848301B021AB2BB6A93F847301BB213431BB29BB27B637B6B002B12D1BB6A93F857301A06BB6AC2
S32D0000F2A893F856301B041343BA6A92F8552012021343BA6A92F8542013437B63BB6A93F843301B021AB2BB6A9E
S32D0000F2D093F842301BB213431BB2BB83BB8B002B01D10D2337E1BA8BBB6B1A44BB6A1B891B091344BB617A6B4C
S32D0000F2F8BB699A4206D20D2329E100BF0A180020041800207A6BBB69D31ABA6A9278B3FBF2F37B617B69002BF7
S32D0000F32001D10D2317E1012387F847307B6940F6F572934202D9022387F847307B694FF6F572934202D90323F9
S32D0000F34887F847307B699A1CBB6ADA61FA6BBB691A44BB6ADA62BA8BFB6B1A44BB6A5A6297F84730032B1ED152
S32D0000F370BB6A1B89002B01D00D23ECE0BB6A93F863301A06BB6A93F862301B041343BA6A92F8612012021343FB
S32D0000F398BA6A92F860201A43BB6A9A62BB6ADB699B003B631FE0BB6A1B89002B01D10D23CDE0BB6A5A6ABB6B48
S32D0000F3C01A44BB6A9A6297F84730022B03D1BB6ADB695B000AE0BB6ADA6913465B0013445A08BB6ADB6903F0BA
S32D0000F3E8010313443B63BB6A1A6A3B6B03F2FF135B0A9A4201D20D23A9E0BB6A4FF0FF321A61BB6A0022DA604A
S32D0000F41097F84730032B40F08680BB6A00225A71BB6A93F865301B021AB2BB6A93F864301BB213431BB29BB2A3
S32D0000F4381A46FB6B1A44BB6A5A61BB6A5878BB6A03F13401BB6A5A69012302F021FC0346002B39D1BB6A93F816
S32D0000F46033321B021AB2BB6A93F832321BB213431BB23B4A93422BD1BB6A93F837301A06BB6A93F836301B046A
S32D0000F4881343BA6A92F8352012021343BA6A92F834201343314A934216D1BB6A93F81B321A06BB6A93F81A32EB
S32D0000F4B01B041343BA6A92F8192212021343BA6A92F818221343284A934201D1012300E00023002B27D0BB6AA1
S32D0000F4D893F823321A06BB6A93F822321B041343BA6A92F8212212021343BA6A92F820221A43BB6ADA60BB6A61
S32D0000F50093F81F321A06BB6A93F81E321B041343BA6A92F81D2212021343BA6A92F81C221A43BB6A1A61BB6A07
S32D0000F52897F847201A700F4B1B8801339AB20D4B1A800C4B1A88BB6ADA80BB6A00221A63BB6A00221A71BB6A93
S32D0000F55000229A61002318464837BD4680BD00BF55AAFFFF52526141727241610818002080B582B000AF78607A
S32D0000F5780B467B807B68002B08D07B681B78002B04D07B68DB887A889A4201D0092311E07B685B78184602F0A6
S32D0000F5A0ADFD034603F00103002B14BF01230023DBB2002B01D0032300E0002318460837BD4680BD80B485B016
S32D0000F5C800AF03463960FB71FB79002B01D00B2316E0FB790D4A52F82330FB60FB68002B02D0FB6800221A7052
S32D0000F5F03B68002B02D03B6800221A70FB7905493A6841F82320002318461437BD4680BC704700BF0418002061
S32D0000F61880B592B000AFF860B9601346FB71FB6800221A60FB7903F01F03FB71FB7923F00103DAB207F11C0148
S32D0000F64007F108031846FFF7F9FC034687F8473007F110037B6397F84730002B09D1BA6807F11C03114618462F
S32D0000F668FFF7E6FB034687F847303B6B3B6497F84730002B05D13B6C002B02D1062387F84730FB7903F01C03C8
S32D0000F690002B00F0B18097F84730002B12D097F84730042B07D107F11C031846FFF772FA034687F84730FB7956
S32D0000F6B843F00803FB713B6B3B6412E03B6C0B331B7803F01103002B03D0072387F8473007E0FB7903F0040351
S32D0000F6E0002B02D0082387F8473097F84730002B40F0A080FB7903F00803002B00F09A800023FB633B6C0E334D
S32D0000F708FA6BD2B21A70FB6B9BB21B0A9AB23B6C0F33D2B21A70FB6B1A0C3B6C1033D2B21A70FB6B1A0E3B6C8C
S32D0000F7301133D2B21A703B6C0B3300221A703B6C1C3300221A703B6C1D3300221A703B6C1E3300221A703B6C38
S32D0000F7581F3300221A703B6C15331B781B021AB23B6C14331B781BB213431BB29BB21B043A6C1B3212781202AC
S32D0000F78011B23A6C1A32127812B20A4312B292B21343BB633B6C1A3300221A703B6C1B3300221A703B6C143360
S32D0000F7A800221A703B6C153300221A70FB6901221A71BB6B002B39D0FB691B6BFB63FB69B96B1846FEF72FFF2F
S32D0000F7D0034687F8473097F84730002B2AD1FB69BA6B013ADA60FB69F96B1846FEF729FC034687F847301DE026
S32D0000F7F897F84730002B19D13B6C0B331B7803F01003002B03D0042387F847300EE0FB7903F00203002B09D0D1
S32D0000F8203B6C0B331B7803F00103002B02D0072387F8473097F84730002B0FD1FB7903F00803002B03D0FB7939
S32D0000F84843F02003FB71FB691A6BFB68DA61FB683A6C1A6297F84730002B42D1FB68FA799A713B6C15331B781D
S32D0000F8701B021AB23B6C14331B781BB213431BB29BB21B043A6C1B321278120211B23A6C1A32127812B20A43C3
S32D0000F89812B292B21A43FB681A613B6C1F331B781A063B6C1E331B781B0413433A6C1D321278120213433A6CC4
S32D0000F8C01C3212781A43FB68DA60FB6800229A60FB6800229A61FB6800225A62FA69FB681A60FB69DA88FB689F
S32D0000F8E89A8097F8473018464837BD4680BD80B58CB000AFF860B9607A603B60BB683B623B6800221A60FB684D
S32D0000F9101A68FB689B8819461046FFF729FE0346FB77FB7F002B01D0FB7F4EE1FB689B795BB2002B01DA022366
S32D0000F93847E1FB689B7903F00103002B01D107233FE1FB68DA68FB689B68D31ABB617A68BB699A4201D9BB69D0
S32D0000F9607B607B68002B00F02F81FB689B68C3F30803002B40F0FA80FB689B685B0ADAB2FB681B689B78013B68
S32D0000F988DBB21340FB75FB7D002B38D1FB689B68002B03D1FB681B69FB6214E0FB685B6A002B07D0FB689B6828
S32D0000F9B01946F868FEF712FFF86208E0FB681A68FB685B6919461046FEF763FCF862FB6A012B08D8FB689B79CB
S32D0000F9D863F07F03DAB2FB689A710223F1E0FB6AB3F1FF3F08D1FB689B7963F07F03DAB2FB689A710123E4E0EE
S32D0000FA00FB68FA6A5A61FB681A68FB685B6919461046FEF720FC38613B69002B08D1FB689B7963F07F03DAB26B
S32D0000FA28FB689A710223CCE0FB7D3A6913443B617B685B0A7B627B6A002B47D0FA7D7B6A1344FA68126892787E
S32D0000FA50934206D9FB681B689B781A46FB7DD31A7B62FB681B6858787B6ADBB23A69396A02F012F90346002B5A
S32D0000FA7814BF01230023DBB2002B08D0FB689B7963F07F03DAB2FB689A71012399E0FB689B7903F04003002BFB
S32D0000FAA014D0FB689A693B69D31A7A6A9A420DD9FB689A693B69D31A5B023A6AD018FB6828334FF40072194605
S32D0000FAC8FEF736FA7B6A5B02BB6264E0FB689B693A699A4243D0FB689B7903F04003002B22D0FB681B685878CF
S32D0000FAF0FB6803F12801FB689A69012302F0B0F90346002B14BF01230023DBB2002B08D0FB689B7963F07F03D9
S32D0000FB18DAB2FB689A71012353E0FB689B7923F04003DAB2FB689A71FB681B685878FB6803F1280101233A69AA
S32D0000FB4002F0AAF80346002B14BF01230023DBB2002B08D0FB689B7963F07F03DAB2FB689A71012331E0FB6807
S32D0000FB683A699A61FB689B68C3F30803C3F50073BB62BA6A7B689A4201D97B68BB62FB689B68C3F30803283323
S32D0000FB90FA681344BA6A1946386AFEF7CDF93A6ABB6A13443B62FB689A68BB6A1A44FB689A603B681A68BB6A62
S32D0000FBB81A443B681A607A68BB6AD31A7B60CCE6002318463037BD4680BD80B58AB000AFF860B9607A603B60F7
S32D0000FBE0BB68BB613B6800221A60FB681A68FB689B8819461046FFF7BBFC0346FB75FB7D002B01D0FB7D7EE1A8
S32D0000FC08FB689B795BB2002B01DA022377E1FB689B7903F00203002B01D107236FE1FB68DA687B681A44FB6898
S32D0000FC30DB689A4201D200237B607B68002B00F05081FB689B68C3F30803002B40F01381FB689B685B0ADAB27A
S32D0000FC58FB681B689B78013BDBB21340BB75BB7D002B49D1FB689B68002B10D1FB681B697B627B6A002B1FD186
S32D0000FC80FB681B6800211846FEF71FFD7862FB687A6A1A6114E0FB685B6A002B07D0FB689B681946F868FEF70C
S32D0000FCA899FD786208E0FB681A68FB685B6919461046FEF706FD78627B6A002B00F00C817B6A012B08D1FB6869
S32D0000FCD09B7963F07F03DAB2FB689A71022312E17B6AB3F1FF3F08D1FB689B7963F07F03DAB2FB689A71012301
S32D0000FCF805E1FB687A6A5A61FB689B7903F04003002B22D0FB681B685878FB6803F12801FB689A69012302F07A
S32D0000FD209FF80346002B14BF01230023DBB2002B08D0FB689B7963F07F03DAB2FB689A710123E0E0FB689B795F
S32D0000FD4823F04003DAB2FB689A71FB681A68FB685B6919461046FEF77AFA38613B69002B08D1FB689B7963F008
S32D0000FD707F03DAB2FB689A710223C4E0BB7D3A6913443B617B685B0AFB61FB69002B49D0BA7DFB691344FA68B2
S32D0000FD9812689278934206D9FB681B689B781A46BB7DD31AFB61FB681B685878FB69DBB23A69B96902F050F885
S32D0000FDC00346002B14BF01230023DBB2002B08D0FB689B7963F07F03DAB2FB689A71012391E0FB689A693B6912
S32D0000FDE8D31AFA699A4215D9FB6803F12800FB689A693B69D31A5B02BA6913444FF400721946FEF795F8FB688D
S32D0000FE109B7923F04003DAB2FB689A71FB695B023B6248E0FB689B693A699A4220D0FB689A68FB68DB689A421D
S32D0000FE380ED2FB681B685878FB6803F1280101233A6901F025FF0346002B01D0012300E00023002B08D0FB68D8
S32D0000FE609B7963F07F03DAB2FB689A7101234AE0FB683A699A61FB689B68C3F30803C3F500733B623A6A7B68CC
S32D0000FE889A4201D97B683B62FB689B68C3F308032833FA6813443A6AB9691846FEF748F8FB689B7943F0400395
S32D0000FEB0DAB2FB689A71BA693B6A1344BB61FB689A683B6A1A44FB689A603B681A683B6A1A443B681A607A6803
S32D0000FED83B6AD31A7B60ACE600BFFB689A68FB68DB689A4203D9FB689A68FB68DA60FB689B7943F02003DAB220
S32D0000FF00FB689A71002318462837BD4680BD80B586B000AF78607B681A687B689B8819461046FFF725FB0346D4
S32D0000FF28FB75FB7D002B40F0AC807B689B7903F02003002B00F0A5807B689B7903F04003002B1BD07B681B6846
S32D0000FF5058787B6803F128017B689A69012301F07FFF0346002B14BF01230023DBB2002B01D001238AE07B68B2
S32D0000FF789B7923F04003DAB27B689A717B681A687B68DB6919461046FEF757F80346FB75FB7D002B75D17B686D
S32D0000FFA01B6A3B613B690B331A783B690B3342F02002D2B21A707B68DA683B691C33D2B21A707B68DB689BB2C1
S32D0000FFC81B0A9AB23B691D33D2B21A707B68DB681A0C3B691E33D2B21A707B68DB681A0E3B691F33D2B21A70F7
S32D0000FFF07B681A693B691A33D2B21A707B681B699BB21B0A9AB23B691B33D2B21A707B681B691A0C3B691433E1
S32D00010018D2B21A707B681B691B0C9BB21B0A9AB23B691533D2B21A700023FB603B691633FA68D2B21A70FB6827
S32D000100409BB21B0A9AB23B691733D2B21A70FB681A0C3B691833D2B21A70FB681A0E3B691933D2B21A707B68E5
S32D000100689B7923F02003DAB27B689A717B681B6801221A717B681B681846FEF742F80346FB75FB7D18461837C0
S32D00010090BD4680BD80B584B000AF78607868FFF736FF0346FB73FB7B002B02D17B6800221A60FB7B1846103741
S32D000100B8BD4680BD80B590B000AF786039607B681A687B689B8819461046FFF74DFA034687F83F3097F83F30B2
S32D000100E0002B02D097F83F3043E27B689B795BB2002B01DA02233CE27B685B6A002B00F0F8803B68B3F1FF3FC4
S32D0001010866D17B685B6AFB62FB6A1A1DFA621B687B6102233B637B681B69BB63BB6B002B46D0BB6B3B610023A1
S32D000101307B633B6B02333B63BB6BFB607B6B01337B637B681B68B96B1846FEF7A2F8B863BB6B012B08D87B6829
S32D000101589B7963F07F03DAB27B689A71022304E2BB6BB3F1FF3F08D17B689B7963F07F03DAB27B689A710123BF
S32D00010180F7E1FB680133BA6B9A4200D1D4E73A6B7B699A4209D8FB6A1A1DFA627A6B1A60FB6A1A1DFA623A691C
S32D000101A81A607B681B68DB69BA6B9A4200D2B8E77B685B6A3A6B1A603A6B7B699A4203D8FB6A00221A60CEE1DB
S32D000101D0112387F83F30CAE17B68DB683A689A4202D97B68DB683B607B683A689A603B68002B00F0BC813B68D6
S32D000101F8013B19467868FEF7EDFA02467B685A617B681A687B685B6919461046FEF71FF8B861BB69002B08D18D
S32D000102207B689B7963F07F03DAB27B689A7102239FE13B68013B5B0A7A6812689278013A1340BA691344BB61F6
S32D000102487B689B68C3F30803002B00F08C817B689B69BA699A4200F086817B689B7903F04003002B22D07B68AE
S32D000102701B6858787B6803F128017B689A69012301F0EEFD0346002B14BF01230023DBB2002B08D07B689B7911
S32D0001029863F07F03DAB27B689A71012365E17B689B7923F04003DAB27B689A717B681B6858787B6803F1280181
S32D000102C00123BA6901F0E8FC0346002B14BF01230023DBB2002B08D07B689B7963F07F03DAB27B689A7101236B
S32D000102E843E17B68BA699A613DE17B68DB683A689A4208D97B689B7903F00203002B02D17B68DB683B607B688E
S32D000103109B683B6200237B627B687A6A9A603B68002B00F0C1807B681B689B785B02FB613B6A002B1BD03B68CE
S32D000103385A1EFB69B2FBF3F23B6A591EFB69B1FBF3F39A420FD33B6A5A1EFB695B421A407B689A607B689B681D
S32D000103603A68D31A3B607B685B69BB622BE07B681B69BB62BB6A002B22D17B681B6800211846FEF7A2F9B8621F
S32D00010388BB6A012B08D17B689B7963F07F03DAB27B689A710223E8E0BB6AB3F1FF3F08D17B689B7963F07F033D
S32D000103B0DAB27B689A710123DBE07B68BA6A1A617B68BA6A5A61BB6A002B6DD03A68FB699A4246D97B689B79FC
S32D000103D803F00203002B0CD07B681B68B96A1846FEF76FF9B862BB6A002B09D1FB693B6033E07B681B68B96AD4
S32D000104001846FDF746FFB862BB6AB3F1FF3F08D17B689B7963F07F03DAB27B689A710123A7E0BB6A012B05D91C
S32D000104287B681B68DB69BA6A9A4208D37B689B7963F07F03DAB27B689A71022395E07B68BA6A5A617B689A6899
S32D00010450FB691A447B689A603A68FB69D31A3B60B4E77B689A683B681A447B689A603B68C3F30803002B17D07C
S32D000104787B681B68B96A1846FDF7E9FE78627B6A002B08D17B689B7963F07F03DAB27B689A71022369E03B6879
S32D000104A05B0A7A6A13447B627B689B68C3F30803002B4BD07B689B697A6A9A4246D07B689B7903F04003002BAE
S32D000104C822D07B681B6858787B6803F128017B689A69012301F0C0FC0346002B14BF01230023DBB2002B08D008
S32D000104F07B689B7963F07F03DAB27B689A71012337E07B689B7923F04003DAB27B689A717B681B6858787B687C
S32D0001051803F1280101237A6A01F0BAFB0346002B14BF01230023DBB2002B08D07B689B7963F07F03DAB27B6890
S32D000105409A71012315E07B687A6A9A617B689A687B68DB689A420AD97B689A687B68DA607B689B7943F020038D
S32D00010568DAB27B689A7197F83F3018464037BD4680BD80B588B000AFF860B9607A600023FB61FB68BB61BB684F
S32D00010590013BFA699A421BDA07F1100307F1140101227868FFF7A7F93B69012B0DD13B7DFB75BB695A1CBA6190
S32D000105B8FA7D1A70FB690133FB61FB7D0A2B02D0E1E700BF00E000BFBB6900221A70FB69002B01D0FB6800E007
S32D000105E0002318462037BD4680BD80B586B000AF03463960FB71FB793B7301237B6107F1100307F10C017A6957
S32D000106083868FFF7E2FA3B697A699A4201D1012301E04FF0FF3318461837BD4680BD80B584B000AF7860396030
S32D000106300023FB607B681B78002B18D07B681B7839681846FFF7D1FF0346B3F1FF3F0CBF01230023DBB2002B64
S32D0001065802D04FF0FF3307E07B6801337B60FB680133FB60E2E7FB6818461037BD4680BD80B485B000AF786064
S32D0001068039600123FB600023BB600023BB60BA683B689A4208DAFB687A6802FB03F3FB60BB680133BB60F2E756
S32D000106A8FB6818461437BD4680BC7047B0B59AB000AF78613961FA600023BB64BB6C7B647B6CB3F1FF3F00F0F5
S32D000106D0F5823B695A1C3A611B7887F84F3097F84F30002B00F0E78297F84F30252B0ED097F84F307969184622
S32D000106F8FFF777FF78647B6CB3F1FF3F00F0CD8201237B64C9E2002387F867300023BB653B695A1C3A611B7811
S32D0001072087F84F3097F84F30302B09D1012387F867303B695A1C3A611B7887F84F300CE097F84F302D2B08D1BE
S32D00010748022387F867303B695A1C3A611B7887F84F3097F84F302E2B05D13B695A1C3A611B7887F84F3097F8EF
S32D000107704F302F2B15D997F84F30392B11D8BA6D13469B0013445B001A4697F84F301344303BBB653B695A1C01
S32D000107983A611B7887F84F30E5E797F84F306C2B03D097F84F304C2B0BD197F8673043F0040387F867303B6947
S32D000107C05A1C3A611B7887F84F3097F84F30002B00F0738297F84F3087F84E3097F84E30602B08D997F84E30B9
S32D000107E87A2B04D897F84E30203B87F84E3097F84E30423B162B00F2788101A252F823F0D30A0100BD0A0100A0
S32D00010810E30A0100F30A01000D090100F30A0100F30A0100F30A0100F30A0100F30A0100F30A0100F30A0100C4
S32D00010838F30A0100DB0A0100F30A0100F30A0100F30A010065080100F30A0100E30A0100F30A0100F30A01005D
S32D00010860EB0A0100FB681A1DFA601B68FB620023FB65FA6AFB6D13441B78002B03D0FB6D0133FB65F5E700236D
S32D00010888BB6497F8673003F00203002B07D1FB6D5A1CFA65BA6D9A4201D9012300E00023002B09D0796920209A
S32D000108B0FFF79BFE78647B6CBA6C1344BB64E4E77969F86AFFF7AFFE78647B6CBA6C1344BB64FB6D5A1CFA65DD
S32D000108D8BA6D9A428CBF01230023DBB2002B09D079692020FFF77DFE78647B6CBA6C1344BB64EAE77B6CB3F17D
S32D00010900FF3F00F0D081BB6C7B64CCE1FB68073323F0070303F10802FA60D3E90023C7E90E23D7E90E23C7E923
S32D000109280C2300237B654FF000024FF00003D7E90E0136F09FF80346002B18D079692D20FFF74FFE78647B6CCE
S32D00010950BA6C1344BB64BC6BFB6B83F00045C7E90E453B6B3B607B6B83F000437B60D7E90023C7E90C23D7E95A
S32D000109780C0136F0A7F80346002B0ED04FF00002AB4BD7E90C0135F02DFF02460B46C7E90C237B6D01337B6563
S32D000109A0E9E77B6D013BFB65FB6DB3F1FF3F35D0FB6D19460A20FFF75FFE0346184635F081FD02460B46D7E99E
S32D000109C80E0135F00FFF02460B461046194636F079F80346BB62BA6A964B83FB02139910D317C91A0B469B0079
S32D000109F00B445B00D31ABB62BB6A3033BB62BB6ADBB279691846FFF7F0FD78647B6CBA6C1344BB64FB6D013BA7
S32D00010A18FB65C5E779692E20FFF7E3FD78647B6CBA6C1344BB64BB6D002B01D10323BB6501233B663A6EBB6D3E
S32D00010A409A4233D83B6E19460A20FFF715FE0346184635F037FDD7E90E2335F09DFD02460B461046194636F041
S32D00010A6831F80346BB62BA6A724B83FB02139910D317C91A0B469B000B445B00D31ABB62BB6A3033BB62BB6A7C
S32D00010A90DBB279691846FFF7A8FD78647B6CBA6C1344BB643B6E01333B66C7E77B6CB3F1FF3F00F0FA80BB6CEA
S32D00010AB87B64F6E0FB681A1DFA601B68DBB279691846FFF78EFD7864ECE0022387F8663013E0082387F8663080
S32D00010AE00FE00A2387F866300BE0102387F8663007E097F84F3079691846FFF776FD7864D4E097F8673003F03C
S32D00010B080403002B04D0FB681A1DFA601B680CE097F84E30442B04D1FB681A1DFA601B6803E0FB681A1DFA60B6
S32D00010B301B683B6597F84E30442B0BD13B6D002B08DA3B6D5B423B6597F8673043F0080387F8673000233B6643
S32D00010B5897F866203B6DB3FBF2F101FB02F29B1A87F84E3097F866303A6DB2FBF3F33B6597F84E30092B0BD95A
S32D00010B8097F84F30782B01D1272200E0072297F84E30134487F84E303B6E5A1C3A6697F84E203032D2B26033DB
S32D00010BA807F108010B4403F8502C3B6D002B03D03B6E0F2B00D8CBE797F8673003F00803002B09D03B6E5A1CFD
S32D00010BD03A66603307F1080213442D2203F8502C3B6EFB6597F8673003F00103002B01D0302300E0202387F88D
S32D00010BF84E300023BB6497F8673003F00203002B07D1FB6D5A1CFA65BA6D9A4201D9012300E00023002B0FD0A2
S32D00010C2097F84E3079691846FFF7DFFC78647B6CBA6C1344BB64E2E700002440676666663B6E013B3B6607F1E4
S32D00010C4818023B6E13441B7879691846FFF7C9FC78647B6CBA6C1344BB643B6E002B00D0EAE7FB6D5A1CFA65C4
S32D00010C70BA6D9A428CBF01230023DBB2002B09D079692020FFF7B1FC78647B6CBA6C1344BB64EAE77B6CB3F1AF
S32D00010C98FF3F07D0BB6C7B6404E000BF02E000BF00E000BFBA6C7B6C1344BB6408E500BF00E000BF7B6CB3F1D6
S32D00010CC0FF3F01D17B6C00E0BB6C18466837BD46B0BD00BF80B588B000AF7860396080233B610F23FB604FF043
S32D00010CE8FF337B610223FB61FB69B3F5807F23D80123BB61BB69102B1AD8FB69BA6902FB03F33A6803FB02F2A9
S32D00010D107B68D31ABB60BB68002B09DBBB687A699A4205D9BB687B61FB693B61BB69FB60BB690133BB61E1E71D
S32D00010D38FB695B00FB61D7E71D4BDB6A1C4A23F00803D3621A4BDB6A23F47F2323F47F63BB613B695B081B02B1
S32D00010D609AB2FB68013B1B01DBB21A43BB691343114A43F46023D3620F4B5B6A03F00803002B0CBF0123002355
S32D00010D88DBB2002B03D00A2001F0DCFAF0E7084BDB6A074A43F00803D362054B1B6B044A43F48013136300BF6A
S32D00010DB02037BD4680BD00BF00100B4080B582B000AF786039607B6800221A60414B424ADA62404BDB6A03F046
S32D00010DD88073002B14BF01230023DBB2002B00D0F3E73A4B0022C3F8C020384B4FF481325A60364B28229A6216
S32D00010E00344B4FF001125A643B689B6833491846FFF760FF2F4B5B6A03F00303002B14BF01230023DBB2002B2A
S32D00010E2800D0F3E72C4B40F243421A602A4B40F243425A60284B4FF488629A60264B40F24342DA60244B40F2C6
S32D00010E5043421A61224B40F243425A61214B03F580531B6B1F4A43F4003302F580521363184B4FF6FF721A632F
S32D00010E78164B1B4A5A63154BDB6A144A43F00063D362124BDB6A03F00063002B14BF01230023DBB2002B00D035
S32D00010EA0F3E70C4B5B6A03F48033002B14BF01230023DBB2002B02D07B6801221A60054B1B6B044A43F080035A
S32D00010EC81363002318460837BD4680BD00100B400080000160CC050000D0044000700440B3007F0080B400AF9B
S32D00010EF0064B5A6A40F207331340002B14BF01230023DBB21846BD4680BC704700100B4080B485B000AF78608E
S32D00010F18074B1B6B7A681340FB60FB68002B00D1F6E7FB6818461437BD4680BC704700BF00100B4080B584B081
S32D00010F4000AF78607B681B7803F03F03764A52F82330FB60FB68002B05D17B681B78002B01D00123DCE0714B26
S32D00010F681B6B704A43F0800313636E4B5B6A03F00103002B14BF01230023DBB2002B00D0F3E7684A7B685B687A
S32D00010F909360FB6823F44003FB607B685B789B0503F44003FA681343FB607B685B78022B03D1FB6843F4001320
S32D00010FB8FB607B685B78042B16D1FB6803F44033B3F5003F08D1FB6823F44033FB60FB6843F44033FB6007E0BF
S32D00010FE0FB6823F44033FB60FB6843F40033FB604E4B5B684D4A9BB253607B68DB68002B2AD0FB6803F4403367
S32D00011008B3F5403F03D0FB6843F40013FB607B681B7A002B03D0FB6843F01003FB607B68DB68012B03D9FB68AC
S32D0001103043F02003FB607B68DB68B3F1FF3F0BD03A4B5A687B68DB681B04384913434B60FB6843F00203FB60F9
S32D00011058344B00221A60334AFB68D3603248FFF753FF0346012B14BF01230023DBB2002B09D02C4B1B6B2B4AE7
S32D0001108043F4702343F001031363012348E0274B1B6B03F08003002B14BF01230023DBB2002B07D0214B1B6B4A
S32D000110A8204A43F001131363012335E01D4B1B6B03F48033002B14BF01230023DBB2002B08D0184B1B6B174A02
S32D000110D043F0011313634FF0FF3321E0FB6803F44033002B15D0114B1A697B681A61FB6803F44033B3F5803F74
S32D000110F80BD10C4B5A697B685A610A4B9A697B689A61084BDA697B68DA61064B1B6B054A43F001031363002355
S32D0001112018461037BD4680BDC0A2050000100B4001000E0080B592B000AF7860396000237B643B68BB63994BAC
S32D000111487B637B6B002B02D140F601235FE3964B3B633B6B002B02D140F60B2357E33B6B1B68FB62FB6A002B43
S32D0001117002D140F60B234EE37B6841F20932934200F23F837B68B3F5985F08D87B68032B00F01A837B68092BF7
S32D0001119800F0098331E37B68A3F59853013B082B00F22B8301A252F823F000BFD9110100C51401002117010066
S32D000111C0DB140100191501003F16010087160100C9150100E31501007649786BFFF7EEFD78647B6C002B40F074
S32D000111E81083002387F84330002387F82B30002387F82A30002387F82930002387F84230002387F8283000230B
S32D000112103B7200237B720023FB6000233B7400237B6107F108031846FFF788FE0346002B14BF01230023DBB2AB
S32D00011238002B02D001237B64E8E240F24C4001F081F808233B7200237B724FF4D573FB6000233B7400237B61F6
S32D0001126007F108031846FFF769FEF863FB6B002B09D1BA69FB689A4202D001237B64C9E2012387F842300123C0
S32D0001128887F8283097F82830002B00F0A58037233B7200237B720023FB6000233B7400237B6107F10803184672
S32D000112B0FFF744FEF863FB6B002B02D001237B64A8E269233B7200237B720023FB6000233B7400237B6107F1FC
S32D000112D808031846FFF72EFE0346002B14BF01230023DBB2002B02D001237B648EE2BB6903F44013002B6FD0F9
S32D000113000023FB630A2001F021F8FB6B0133FB6337233B7200237B720023FB6000233B7400237B6107F10803A8
S32D000113281846FFF707FE0346002B14BF01230023DBB2002B02D001237B6428E069233B7200237B7297F84230D0
S32D00011350002B02D0184BFB6002E04FF44013FB6000233B7400237B6107F108031846FFF7E5FD0346002B14BF8F
S32D0001137801230023DBB2002B02D001237B6406E0BB69002B03DBFB6B632B00D8B6E77B6C002B40F03882FB6B94
S32D000113A0632B0BD9002387F8423019E024180020281A0020B4A2050000003040012387F8433097F84230002BD4
S32D000113C80AD0002387F84230BB6903F08043002B02D0012387F8423097F82A30002B02D07B6B07221A6097F81E
S32D000113F02930002B02D07B6B08221A6097F82B30002B02D07B6B04221A6097F84330002B09D07B6B02221A60F7
S32D0001141897F84230002B02D07B6B03221A6097F82B30002B0DD097F84330002B09D07B6B05221A6097F84230A2
S32D00011440002B02D07B6B06221A60924B00221A60904B00225A608F4B00229A608D4B0022DA608C4B00221A612A
S32D000114688A4B00225A61FB6A9A68FB6A5B6819461046FFF72BFC854B40F243421A60834B40F243425A60814B36
S32D000114904FF488629A607F4B40F24342DA607D4B40F243421A617B4B40F243425A617A4B03F580531B6B784A41
S32D000114B843F4003302F580521363A7E1B86BFFF739FDF863FB6B002B00F09F8102237B649BE1BB6B002B02D1E5
S32D000114E00C237B6496E16D4BDB6A1B0A5B0003F4FF73FB63694BDB6A1B0903F00F035A1CFB6B02FB03F3FB63C5
S32D00011508FB6A9A68FB6BB2FBF3F2BB6B1A607DE1BB6B002B02D10C237B6477E1BB6B1B68002B02D10C237B6418
S32D0001153070E1FFF7DBFC0346002B0CBF01230023DBB2002B3CD0534B00221A60514B00225A60504B00229A60BB
S32D000115584E4B0022DA604D4B00221A614B4B00225A61FB6A9A68BB6B1B6819461046FFF7ADFB464B40F243421C
S32D000115801A60444B40F243425A60424B4FF488629A60404B40F24342DA603E4B40F243421A613C4B40F2434299
S32D000115A85A613B4B03F580531B6B394A43F4003302F58052136329E140F60A237B6425E1BB6B002B02D10C23B1
S32D000115D07B641FE1314B5B68C3F30C02BB6B1A6018E1BB6B002B02D10C237B6412E1FFF77DFC0346002B0CBF9E
S32D000115F801230023DBB2002B19D0BB6B1B68B3F5805F02D30C237B6400E1224B5B68214A23F4FF5323F01F03AF
S32D0001162053601E4B5A68BB6B1B68C3F30C031B4913434B60EEE040F60A237B64EAE0BB6B002B02D10C237B64DE
S32D00011648E4E0144B9B6A5B0803F00303FB63FB6B002B03D1BB6B00221A60D7E0FB6B012B03D1BB6B01221A608A
S32D00011670D0E0FB6B102B03D1BB6B02221A60C9E005237B64C6E0BB6B002B09D10C237B64C0E000BF00D0044060
S32D000116980070044000100B40FFF724FC0346002B0CBF01230023DBB2002B31D0BB6B1B68002B0AD1584B9B6A68
S32D000116C0574A23F006039362554B554A9B6A9362A0E0BB6B1B68012B0CD1514B9B6A504A23F0060393624E4BF9
S32D000116E89B6A4D4A43F0020393628FE0BB6B1B68022B0AD1484B9B6A474A23F006039362454B454A9B6A936297
S32D0001171080E005237B647DE040F60A237B6479E0BB6B002B02D10C237B6473E03C4BDB6A3B4A43F00063D362AA
S32D00011738394BDB6A03F00063002B14BF01230023DBB2002B00D0F3E7334B1B6B03F08003002B14BF01230023FD
S32D00011760DBB2002B08D02E4B1B6B2D4A43F0800313637B6B00221A60294B5B6A03F48033002B14BF012300237E
S32D00011788DBB2002B07D07B6B1B68002B06D17B6B01221A6002E07B6B00221A607B6B1A68BB6B1A6032E0BB6B11
S32D000117B01C221A60BB6B043304221A60BB6B08334FF41E721A6025E00220FFF7A1FB144B1B6B03F4E003002B04
S32D000117D814BF01230023DBB2002B07D00E4B1B6B0D4A43F4E003136304237B640A4B1B6B094A43F03203136361
S32D0001180008E040F609237B6404E000BF02E000BF00E000BF7B6C18464837BD4680BD00BF00100B4080B590B01A
S32D0001182800AF0346FB71A64BFB63A64BBB63BB6BA54A1A60FB79002B01D00123A9E1A34B1B78DBB203F002031C
S32D00011850002B14BF01230023DBB2002B03D09D4B1B78DBB299E19B4B1B78DBB203F00303002B0CBF01230023DB
S32D00011878DBB2002B01D000238BE1BB6B002B03D0BB6B1B68002B01D1002382E1FB6B904A1A60FB6B01225A60DC
S32D000118A0BB6B00225A60BB6B00229A60BB6B00221A61BB6B00221A73BB6B00225A73874B03F580531B6B854A36
S32D000118C843F4003302F580521363002141F20130FFF72CFC0346002B14BF01230023DBB2002B01D0002354E136
S32D000118F00023BB6207F12803194641F20330FFF719FC0346002B14BF01230023DBB2002B01D0002341E1BB6A15
S32D00011918022B08D0BB6A032B05D0BB6A052B02D0BB6A062B09D1BB6A032B02D0BB6A062B05D1BB6B01221A73F5
S32D0001194001E0002329E100BF02233B7200237B720023FB6000233B7400237B6107F10803194641F20230FFF7BD
S32D00011968E5FB0346002B14BF01230023DBB2002B01D000230DE103233B7200237B720023FB6000233B740023F2
S32D000119907B6107F10803194641F20230FFF7CAFB0346002B14BF01230023DBB2002B01D00023F2E0BB691B0C73
S32D000119B81B04BA6B136109233B7200237B72BB6B1B69FB6000233B7400237B6107F10803194641F20230FFF7CC
S32D000119E0A9FB0346002B14BF01230023DBB2002B01D00023D1E07B6A03F44003002B1ED13B6A1B0A03F00F0341
S32D00011A083B633B6A03F003037B637B6B9A02FB699B0D13437B63FB69DB0903F00703FB627B6B5A1CFB6A02333B
S32D00011A309A403B6B093B9A40BB6B9A600CE0BB6B01225A73FB691B0AC3F315037B637B6B01339A02BB6B9A60BC
S32D00011A5807233B7200237B72BB6B1B69FB6000233B7400237B6107F10803194641F20230FFF75CFB0346002B1A
S32D00011A8014BF01230023DBB2002B01D0002384E010233B7200237B724FF40073FB6000233B7400237B6107F143
S32D00011AA80803194641F20230FFF740FB0346002B14BF01230023DBB2002B0DD0002368E0281A00200C180020DB
S32D00011AD02018002004000020B4A2050000700440BB6B1B681B68012B49D137233B7200237B72BB6B1B69FB60CE
S32D00011AF800233B7400237B6107F10803194641F20230FFF713FB0346002B14BF01230023DBB2002B01D00023E9
S32D00011B203BE046233B7200237B720223FB6000233B7400237B6107F10803194641F20230FFF7F8FA0346002BE1
S32D00011B4814BF01230023DBB2002B01D0002320E00123BB6207F12803194641F20730FFF7E5FA0346002B14BF5F
S32D00011B7001230023DBB2002B01D000230DE0094B1B78DBB223F00103DAB2064B1A70054B1B78DBB203F003030B
S32D00011B98DBB218464037BD4680BD00BF0400002080B489B000AF786039607B687B61364B3B613B69002B01D18F
S32D00011BC000235FE03B691B68022B0BD03B691B68032B07D03B691B68072B03D03B691B68082B0BD12B4B5B6A9C
S32D00011BE803F00403002B14BF01230023DBB2002B00D0F3E73B68FB61FB69002B3DD0FB69B3F5007F28BF4FF4DD
S32D00011C100073FB60FB6803339B08BB61BB69002B2AD01C4B1B6B03F4E003002B14BF01230023DBB2002B09D099
S32D00011C38164B1B6B154A43F4E00343F02003136300231BE0114B5B6A03F40063002B0CBF01230023DBB2002BC3
S32D00011C6000D0F3E70B497B691A1D7A610A6A1A60BB69013BBB61D1E7FA69FB68D31AFB61BEE7012318462437AE
S32D00011C88BD4680BC704700BF2418002000100B4080B58EB000AFB9607A601A460346FB731346BB73414B7B63A4
S32D00011CB0FB7B002B02D1BB7B002B01D1042375E03D4B1B78DBB203F00103002B14BF01230023DBB2002B01D075
S32D00011CD8032367E0BB68002B01D1002362E07B6B1B7B002B02D17B685B027B60BB7B012B28D111233B750023F4
S32D00011D007B757B68BB6101233B77BB7B3B6207F11403194641F20230FFF70CFA0346002B0CBF01230023DBB23A
S32D00011D28002B38D04FF40071B868FFF739FF0346002B14BF01230023DBB2002B2BD00023BB7328E012233B75D8
S32D00011D5000237B757B68BB6101233B77BB7B3B6207F11403194641F20230FFF7E3F90346002B0CBF012300237E
S32D00011D78DBB2002B0FD0BB7B5B021946B868FFF70FFF0346002B14BF01230023DBB2002B01D00023BB73BB7BF1
S32D00011DA0002B01D0012300E0002300BF18463837BD4680BD0C1800200400002080B487B000AF786039607B684F
S32D00011DC8FB603B687B617B69002B3DD07B69B3F5007F28BF4FF400733B617A693B69D31A7B613B6903339B08E5
S32D00011DF03B613B69002BEAD0184B1B6B03F4E003002B14BF01230023DBB2002B0AD0134B1B6B124A43F4E003AB
S32D00011E1843F0100313634FF0FF3316E00D4B5B6A03F48063002B0CBF01230023DBB2002B00D0F3E7FB681A1D48
S32D00011E40FA60064A1B6813623B69013B3B61D0E7012318461C37BD4680BC704700100B4080B58EB000AFB9603D
S32D00011E687A601A460346FB731346BB735D4B7B63FB7B002B02D1BB7B002B01D10423ADE0594B1B78DBB203F03B
S32D00011E900103002B14BF01230023DBB2002B01D003239FE0524B1B78DBB203F00403002B14BF01230023DBB223
S32D00011EB8002B01D0022391E0BB68002B01D100238CE07B6B1B7B002B02D17B685B027B60BB7B012B28D118238F
S32D00011EE03B7500237B757B68BB6100233B77BB7B3B6207F11403194641F20230FFF71AF90346002B0CBF01232A
S32D00011F080023DBB2002B38D04FF40071B868FFF751FF0346002B14BF01230023DBB2002B2BD00023BB7328E013
S32D00011F3019233B7500237B757B68BB6100233B77BB7B3B6207F11403194641F20230FFF7F1F80346002B0CBFEB
S32D00011F5801230023DBB2002B0FD0BB7B5B021946B868FFF727FF0346002B14BF01230023DBB2002B01D0002314
S32D00011F80BB730D233B7500237B757B6B1B69BB6100233B7700233B6207F11403194641F20230FFF7C7F8034625
S32D00011FA8002B14BF01230023DBB2002B01D0012314E07A6A0D4B1340002B01D001230DE07B6A03F4F853B3F5B9
S32D00011FD0106F00D0D5E7BB7B002B01D0012300E0002300BF18463837BD4680BD0C180020040000200880D9FFEA
S32D00011FF880B58CB000AF03463A60FB710B46BB713A4BBB62FB79002B01D0042369E0012387F82F30364B1B7836
S32D00012020DBB203F00103002B14BF01230023DBB2002B01D0032358E0BB79032B50D801A252F823F055200100E1
S32D000120485D2001006D2001007D200100002387F82F3044E0BB6A9A683B681A60002387F82F303CE03B684FF453
S32D0001207000721A80002387F82F3034E009233B7200237B72BB6A1B69FB6000233B7400237B6107F10803194600
S32D0001209841F20230FFF74AF80346002B14BF01230023DBB2002B01D001231AE07B6A03F44003002B0CD13B6A7B
S32D000120C09B0C03F07F035A1C7B6A1B0A03F00303013B9A403B681A60002387F82F3002E0042387F82F3097F8B2
S32D000120E82F3018463037BD4680BD00BF0C1800200400002080B483B000AF0346FB71FB79002B01D0012302E0FD
S32D00012110034B1B78DBB218460C37BD4680BC70470400002080B483B000AF7860164B03F580539B6B144A43F0C6
S32D00012138010302F580529363124A7B689360114B05225A600F4B1B680E4A43F0010313600C4B1B6803F0800317
S32D00012160002B0CBF01230023DBB2002B00D0F3E7064B1B68054A23F00103136000BF0C37BD4680BC704700BF4D
S32D00012188007004400000044080B582B000AF786039607B68012B07D13B684FF6FF72934202D1034800F00EF880
S32D000121B000BF0837BD4680BD301A002080B500AF4FF6FF710120FFF7E3FF80BD80B483B000AF78607B68002296
S32D000121D81A707B6818460C37BD4680BC7047000080B582B000AF78607B681B7883F00103DBB2002B21D0134BF2
S32D0001220003F580531A464FF400639362104B4FF440721A620E4B4FF440725A620D4B1B68DA0F13445B104FF44A
S32D00012228614219460A48FBF797FD642000F08AF87B6801221A70012300E0002318460837BD4680BD007004406F
S32D0001225000D00440341A002000B00E4080B582B000AF7860084611461A460346FB700B46BB7013467B707F21D8
S32D000122780E48FBF744FE08210C48FBF740FEFB7819460A48FBF73BFEBB7819460748FBF736FE7B78194605480B
S32D000122A0FBF731FEFF210348FBF72DFE00BF0837BD4680BD00B00E4080B487B000AFF860B9607A60FB681F4AF9
S32D000122C8A2FB03239B09BA6813447B61FB681B4AA2FB031292094FF47A7101FB02F29B1AFB60FB68DB03154A48
S32D000122F0A2FB03239B097A6813443B613B69DB0B7A6913447B613B69C3F30E033B610E4B1B687A699A4209D860
S32D000123180B4B1B687A699A4206D1094B5B683A699A4201D9012300E00023002B00D0EAE700BF1C37BD4680BC73
S32D00012340704700BFD34D621000D0034080B584B000AF7860074B1B68FB60064B5B68BB607B68BA68F968184640
S32D00012368FFF7A6FF00BF1037BD4680BD00D0034080B584B000AF78600B4B1B68FB600A4B5B68BB6009497868C9
S32D0001239034F042FD0346184634F02AFF0346BA68F9681846FFF788FF00BF1037BD4680BD00D0034000007A4409
S32D000123B880B584B000AFC7E900010E4B1B68FB600C4B5B68BB604FF000020B4BD7E9000134F0DEF802460B46D6
S32D000123E01046194634F09AFB0346BA68F9681846FFF762FF00BF1037BD4680BD00D0034000408F4080B483B010
S32D0001240800AF0B4B1B684FF47A7202FB03F37B60074B5B684FF47A7202FB03F3DB0B7A6813447B607B681846AE
S32D000124300C37BD4680BC704700D0034080B584B000AF78600B46FB700B23FB73FA7BFB781946786800F094F846
S32D000124587B6818461037BD4680BD000080B485B000AF78607B68103B002B00DA1F335B11FB60FB68022B53D09E
S32D00012480FB68022B75DCFB68002B03D0FB68012B25D06EE0394BD3F880217B68103B594203F01F0301F01F013A
S32D000124A858BF4B42012101FA03F332491343C1F88031304B1A687B68103B594203F01F0301F01F0158BF4B4283
S32D000124D0012101FA03F3294913430B6049E0274BD3F884217B68103B594203F01F0301F01F0158BF4B420121D7
S32D000124F801FA03F31F491343C1F884311D4B5A687B68103B594203F01F0301F01F0158BF4B42012101FA03F3C8
S32D00012520164913434B6024E0144BD3F888217B68103B594203F01F0301F01F0158BF4B42012101FA03F30D4959
S32D000125481343C1F888310B4B9A687B68103B594203F01F0301F01F0158BF4B42012101FA03F3044913438B6010
S32D0001257000BF00BF1437BD4680BC704700E100E080B584B000AF78600B46FB701346BB707B68FA781A70BB787A
S32D00012598FB737B681B781A46574B9B5C042B00F2A68001A252F823F0C5250100112601005D260100F52601002D
S32D000125C0A9260100FB7B1B0403F470234D497A68127810464C4A52F8202043F4897343F0010341F82230494BFC
S32D000125E85A697B681B781946454B53F8213003F01F03012101FA03F3DB43424913404B616720FFF72BFF72E037
S32D00012610FB7B1B0403F470233D497A6812781046394A52F8202043F4897343F0010341F82230384B5A697B6809
S32D000126381B781946324B53F8213003F01F03012101FA03F3DB43314913404B616820FFF705FF4CE0FB7B1B0466
S32D0001266003F470232C497A6812781046264A52F8202043F4897343F0010341F82230274B5A697B681B78194691
S32D000126881F4B53F8213003F01F03012101FA03F3DB43204913404B616920FFF7DFFE26E0FB7B1B0403F47023EE
S32D000126B01B497A6812781046134A52F8202043F4897343F0010341F82230164B5A697B681B7819460C4B53F85E
S32D000126D8213003F01F03012101FA03F3DB430F4913404B616B20FFF7B9FE00E000BF00BF1037BD4680BD00BF09
S32D00012700C0A305000090044004A4050000F00F4000A0044040F00F4000B0044080F00F4000D0044000F10F4018
S32D00012728B0B48BB000AF224B3C1D1D460FCD0FC495E80F0084E80F0000237B627B6A072B30DC1C4BD3F8A02040
S32D000127507B6A9B0028333B4453F8243C012101FA03F31340002B14BF01230023DBB2002B18D0134A7B6A52F87E
S32D0001277823305A1C10497B6A41F823200D4BD3F8A0207B6A9B0028333B4453F8243C012101FA03F30749134011
S32D000127A0C1F8A0307B6A01337B62CBE700BF2C37BD46B0BC704700BF08A5050000A00440601A0020B0B489B005
S32D000127C800AF224B3C1D1D460FCD0FC495E8030084E803000023FB61FB69052B30DC1C4BD3F8A020FB699B005C
S32D000127F020333B4453F81C3C012101FA03F31340002B14BF01230023DBB2002B18D0FB690833124A52F8232072
S32D000128180132104941F823200D4BD3F8A020FB699B0020333B4453F81C3C012101FA03F307491340C1F8A030F3
S32D00012840FB690133FB61CBE700BF2437BD46B0BC704700BF28A5050000B00440601A0020B0B48DB000AF234BA6
S32D000128683C461D460FCD0FC40FCD0FC495E8070084E807000023FB62FB6A0A2B30DC1C4BD3F8A020FB6A9B00EF
S32D0001289030333B4453F8303C012101FA03F31340002B14BF01230023DBB2002B18D0FB6A0E33124A52F82320A6
S32D000128B80132104941F823200D4BD3F8A020FB6A9B0030333B4453F8303C012101FA03F307491340C1F8A0302E
S32D000128E0FB6A0133FB62CBE700BF3437BD46B0BC704700BF40A5050000900440601A0020B0B487B000AF214B04
S32D000129083C461D460FCD0FC42B68236000237B617B69042B30DC1C4BD3F8A0207B699B0018333B4453F8183CFE
S32D00012930012101FA03F31340002B14BF01230023DBB2002B18D07B691933124A52F823200132104941F823200C
