S01100002E2E2F50726F746575732E73313966
S32D0000C000000000205DC2000011C3000017C300001DC3000023C3000029C3000000000000000000000000000073
S32D0000C028000000002FC3000035C30000000000003BC3000041C3000035D4000041D400004DD4000059D4000092
S32D0000C05065D4000071D400007DD4000089D4000095D40000A1D40000ADD40000B9D40000C5D40000D1D400006C
S32D0000C078DDD40000E9D40000F5D4000001D500000DD5000019D5000025D5000031D500003DD5000049D500008D
S32D0000C0A055D5000061D500006DD5000079D5000085D5000091D500009DD50000A9D50000B5D50000C1D50000B2
S32D0000C0C8CDD50000D9D50000E5D50000F1D50000FDD5000009D6000015D6000021D600002DD6000039D60000D5
S32D0000C0F045D60000752B010051D600005DD6000069D6000075D6000081D600008DD6000099D60000A5D60000DE
S32D0000C118B1D60000BDD60000C9D60000D5D60000E1D60000EDD60000F9D6000005D7000011D700001DD7000094
S32D0000C14029D7000035D7000041D700004DD700009102010059D7000065D7000071D700007DD7000089D700008D
S32D0000C16895D70000A1D70000ADD70000B9D70000C5D70000D1D70000DDD70000E9D70000F5D7000001D8000054
S32D0000C1900DD8000019D8000025D8000085FE00004DFD0000E9FD0000B9D1000025FF000031D800003DD800002F
S32D0000C1B849D80000D4BB010000000020D8160000D4BB01000000FF1F00000000D81600209C0400000000FF1F20
S32D0000C1E00000000080B489B000AFF860B9607A60BB68FB61FB68BB6100237B617A697B689A420BD2BA69131DFB
S32D0000C208BB61FB69191DF96112681A607B6904337B61EFE700BF2437BD4680BC704780B485B000AF786039609E
S32D0000C2307B68FB600023BB60BA683B689A4208D2FB681A1DFA6000221A60BB680433BB60F2E700BF1437BD46FE
S32D0000C25880BC704780B586B000AF72B6234B4CF220521A80214B4DF628121A80204B4FF4E9721A801F4B7B615F
S32D0000C2807B691F4A934214D27B691A1D7A611B683B617B691A1D7A611B68FB607B691A1D7A611B68BB60BA68E9
S32D0000C2A8F9683869FFF79AFFE6E77B69134A93420ED27B691A1D7A611B68FB607B691A1D7A611B68BB60B9688B
S32D0000C2D0F868FFF7A8FFECE70B4B7B600B4A7B681A6008F0A1FD62B601F02EF800F010FEFEE700BF0E200540B3
S32D0000C2F800200540BCC10000D4C10000E4C1000008ED00E000C0000080B400AFFEE780B400AFFEE780B400AFF4
S32D0000C320FEE780B400AFFEE780B400AFFEE780B400AFFEE780B400AFFEE780B400AFFEE780B400AFFEE780B426
S32D0000C34800AFFEE7FFFFFFFFFFFFFFFFFFFFFFFFFFFFFFFFFFFFFFFFFFFFFFFFFFFFFFFFFFFFFFFFFFFFFFFF57
S32D0000C370FFFFFFFFFFFFFFFFFFFFFFFFFFFFFFFFFFFFFFFFFFFFFFFFFFFFFFFFFFFFFFFFFFFFFFFFFFFFFFFFC7
S32D0000C398FFFFFFFFFFFFFFFFFFFFFFFFFFFFFFFFFFFFFFFFFFFFFFFFFFFFFFFFFFFFFFFFFFFFFFFFFFFFFFFF9F
S32D0000C3C0FFFFFFFFFFFFFFFFFFFFFFFFFFFFFFFFFFFFFFFFFFFFFFFFFFFFFFFFFFFFFFFFFFFFFFFFFFFFFFFF77
S32D0000C3E8FFFFFFFFFFFFFFFFFFFFFFFFFFFFFFFFFFFFFFFFFFFFFFFFFFFFFFFFFFFFFFFFFFFFFFFFFEFFFFFF50
S32D0000C44010B5054C237833B9044B13B10448AFF300800123237010BDD81600200000000010C4000008B5034B3F
S32D0000C4681BB103490348AFF3008008BD00000000DC16002010C4000080B483B000AF78607B6823F000431846F1
S32D0000C4900C37BD4680BC7047F0B585B000AF78602C4B1B687968184608F036F90346184608F0F8FA0346FB604F
S32D0000C4B8274803F091FD274803F08EFD264B1B68184608F0D1F803461946244801F040FA234B1B68184608F0E0
S32D0000C4E0C7F803461946214801F036FA1B4803F065FD0446184803F061FD03462344184607F060FC4FF00002E8
S32D0000C5084FF0804307F0EEFD02460B4614461D46F86807F053FC02460B4601210E462046294607F027FF0346DB
S32D0000C530002B01D100231E46F3B2002B00D0D5E7084801F0C7F9094801F0C4F900BF1437BD46F0BD0000002023
S32D0000C558F4160020F816002008000020FC1600200400002004170020F0B585B000AF78602F4B1B687968184607
S32D0000C58008F0CAF80346184608F08CFA0346FB602A4803F025FD2A4803F022FD294B1B685B42184608F064F8B9
S32D0000C5A803461946264801F0D3F9264B1B685B42184608F059F803461946234801F0C8F91D4803F0F7FC044600
S32D0000C5D01A4803F0F3FC03462344002BB8BF5B42184607F0EFFB4FF000024FF0804307F07DFD02460B46144624
S32D0000C5F81D46F86807F0E2FB02460B4601210E462046294607F0B6FE0346002B01D100231E46F3B2002B00D082
S32D0000C620D2E7094801F056F9094801F053F900BF1437BD46F0BD00BF00000020F4160020F816002008000020FB
S32D0000C648FC1600200400002004170020F0B585B000AF78602D4B1B687968184608F058F80346184608F01AFA9D
S32D0000C6700346FB60284803F0B3FC284803F0B0FC274B1B685B00184607F0F2FF03461946244801F061F9244B73
S32D0000C6981B685B00184607F0E7FF03461946214801F056F91B4803F085FC0446184803F081FC0346234418460B
S32D0000C6C007F080FB4FF000024FF0804307F00EFD02460B4614461D46F86807F073FB02460B4601210E46204605
S32D0000C6E8294607F047FE0346002B01D100231E46F3B2002B00D0D5E7084801F0E7F8094801F0E4F800BF143708
S32D0000C710BD46F0BD00000020F4160020F816002008000020FC1600200400002004170020F0B585B000AF7860B9
S32D0000C738786807F055FB2EA3D3E9002307F0A8FB02460B461046194607F03CFE0346FB60294803F041FC29482D
S32D0000C76003F03EFC284B1B68184607F081FF03461946264801F0F0F8254B1B685B42184607F076FF03461946C2
S32D0000C788224801F0E5F81D4803F014FC04461A4803F010FC03462344184607F00FFB4FF000024FF0804307F0EF
S32D0000C7B09DFC02460B4614461D46F86807F002FB02460B4601210E462046294607F0D6FD0346002B01D1002301
S32D0000C7D81E46F3B2002B00D0D5E70A4801F076F80A4801F073F800BF1437BD46F0BD00BF9A99999999990940BB
S32D0000C800F4160020F816002008000020FC1600200400002004170020F0B585B000AF7860786807F0CFFA2EA327
S32D0000C828D3E9002307F034FB02460B461046194607F0C8FD0346FB60294803F0CDFB294803F0CAFB284B1B68E4
S32D0000C8505B42184607F00CFF03461946254801F07BF8254B1B68184607F002FF03461946224801F071F81D482A
S32D0000C87803F0A0FB04461A4803F09CFB03462344184607F09BFA4FF000024FF0804307F029FC02460B461446E2
S32D0000C8A01D46F86807F08EFA02460B4601210E462046294607F062FD0346002B01D100231E46F3B2002B00D081
S32D0000C8C8D5E70A4801F002F80A4800F0FFFF00BF1437BD46F0BD00BF9A99999999990940F4160020F816002058
S32D0000C8F008000020FC160020040000200417002080B582B000AF78603960786807F0B0FE034619460C4801F068
S32D0000C9181FF87B685B42184607F0A6FE03461946084801F015F8386802F0D4FE044800F0CDFF044800F0CAFFFA
S32D0000C94000BF0837BD4680BDFC1600200417002080B582B000AF78603960786807F088FE034619460B4800F04F
S32D0000C968F7FF786807F080FE03461946084800F0EFFF386802F0AEFE044800F0A7FF044800F0A4FF00BF083783
S32D0000C990BD4680BDFC160020041700200000000090B585B000AF786039601423FB603B68012B02D16FF0130389
S32D0000C9B8FB60474806F02CFF03464649184608F063F80346002B23D0414806F021FF04464FF07E51786807F088
S32D0000C9E091FD03461946204608F034F80346002B10D1394806F010FF04464FF07E51786807F082FD0346194638
S32D0000CA08204608F041F80346002B01D0012300E00023002B54D02E4806F0FAFE0346012214461946786808F04D
S32D0000CA3011F80346002B01D100231C46E3B2002B06D0FB685B4226491846FFF781FF15E0214806F0E1FE0346AF
S32D0000CA58012214461946786808F016F80346002B01D100231C46E3B2002B03D01A49F868FFF76AFF14A1D1E9FF
S32D0000CA80000102F04BFE144806F0C6FE0346012214464FF00001184607F0DCFF0346002B01D100231C46E3B2A0
S32D0000CAA8002B04D008A1D1E9000102F033FE084806F0AEFE03461946084804F086FC78E700BF1437BD4690BDC1
S32D0000CAD0666666666666D63F841A00200000C0BFCDCCCC3D1C1A002090B585B000AF786039601423FB603B68BB
S32D0000CAF8012B02D16FF01303FB60474806F096FE03464649184607F0BFFF0346002B23D0414806F08BFE044684
S32D0000CB204FF07E51786807F0EDFC03461946204607F090FF0346002B10D1394806F07AFE04464FF07E51786809
S32D0000CB4807F0DEFC03461946204607F09DFF0346002B01D0012300E00023002B54D02E4806F064FE0346012258
S32D0000CB7014461946786807F06DFF0346002B01D100231C46E3B2002B06D0FB685B4226491846FFF7DDFE15E0A7
S32D0000CB98214806F04BFE0346012214461946786807F072FF0346002B01D100231C46E3B2002B03D01A49F86839
S32D0000CBC0FFF7C6FE14A1D1E9000102F0A7FD144806F030FE0346012214464FF00001184607F038FF0346002B01
S32D0000CBE801D100231C46E3B2002B04D008A1D1E9000102F08FFD084806F018FE03461946084804F0E2FB78E7CE
S32D0000CC1000BF1437BD4690BD666666666666D63F841A00200000C0BFCDCCCC3D1C1A002090B587B000AF7860EB
S32D0000CC380123FB75FB7D002B2CD06F4806F004FE03466E49184607F01FFF0346002B21D0694806F0F9FD04462D
S32D0000CC606949786807F04EFC03461946204607F0F1FE0346002B0FD1614806F0E9FD04466149786807F040FCFF
S32D0000CC8803461946204607F0FFFE0346002B01D0012300E00023002B00F0A580564806F0D3FD03461946574825
S32D0000CCB004F08FFB524806F0CBFD3861504806F0C7FD0346012214461946786807F0C2FE0346002B01D1002370
S32D0000CCD81C46E3B2002B05D04B496FF01300FFF70BFE15E0444806F0AFFD0346012214461946786807F0C8FE4D
S32D0000CD000346002B01D100231C46E3B2002B03D03F491420FFF7F4FD37A1D1E9000102F0FDFC374806F094FD80
S32D0000CD28F8604FF00001386907F0AEFE0346002B3AD04FF00001F86807F0A6FE0346002B32D0F968386907F0D9
S32D0000CD50D9FB03461846FFF793FB0346012214462C49184607F094FE0346002B01D100231C46E3B2002B1BD01E
S32D0000CD782749386907F088FE0346002B07D022496FF00900FFF7B8FD0023FB750CE02049F86807F079FE034637
S32D0000CDA0002B05D01A490A20FFF7AAFD0023FB7511A1D1E9000102F0B1FC114806F048FD0346012214464FF003
S32D0000CDC80001184607F042FE0346002B01D100231C46E3B2002B3FF42DAF05A1D1E9000102F098FC26E700BF5A
S32D0000CDF01C37BD4690BD00BF666666666666D63F841A00200000C0BF000040401C1A0020CDCCCC3D0000C8427B
S32D0000CE1800004843B0B500AF324803F0DDF8324803F0DAF8314802F093FD0346002B07D02F4802F08DFD03464A
S32D0000CE40002B01D0012300E00023002B14D02B4B1B68184607F00CFC03461946284800F07BFD284B1B68184668
S32D0000CE6807F002FC03461946254800F071FDD9E7012002F019FC4FF000011F4800F068FD4FF000011E4800F0BA
S32D0000CE9063FD174803F092F80446144803F08EF803462344002BB8BF5B42184606F08AFF4FF000024FF080430A
S32D0000CEB807F018F902460B4614461D46114B1B68184606F08DFF02460B462046294607F009F902460B461046D9
S32D0000CEE0194607F073FA03461846B0BDF4160020F8160020101700200C17002008000020FC16002004000020ED
S32D0000CF08041700200000002090B583B000AF0021624803F0C6FF6FF07F41604804F01DF85F4806F029FA5F49BE
S32D0000CF305C4804F03BFA3A463B1D1946594804F087F8034683F00103DBB2002B00D0F2E73A463B1D19465348C8
S32D0000CF5804F07AF80346002B00D0F5E74FF4FA71514803F05BFB40F6C4114F4803F073FB4FF4FA714D4803F05C
S32D0000CF8051FB40F6C4114B4803F069FB4A4803F04BF80346012214464849184607F078FD0346002B01D10023F0
S32D0000CFA81C46E3B2002B00D0ECE72D20FFF730FC4FF08140FFF76CFA0A20FFF729FC4FF08140FFF765FA3C48AD
S32D0000CFD0FFF7AEFB3B48FFF72BFE3B48FFF73AFB3848FFF725FE00213848FFF77DFD3848FFF79EFB3748FFF716
S32D0000CFF81BFE3748FFF74CFA01212F48FFF7CCFC3148FFF791FB4FF00000FFF70DFE01213048FFF765FDFFF7BD
S32D0000D020FDFE4FF000004FF0804102F077FB2C491F4803F031FB26491D4803F02DFB4FF08140FFF795FA5A205B
S32D0000D048FFF7E6FB2148FFF7EFFD1A48FFF720FA5A20FFF7DDFB1948FFF7E6FD1F48FFF783FA5A20FFF7D4FB8B
S32D0000D0701748FFF7DDFD1B48FFF70EFA2D20FFF7CBFB1948FFF7D4FD1348FFF705FA4FF000004FF0804102F050
S32D0000D09841FB002318460C37BD4690BD1C1A0020841A00207CB10100301700202417002014170020000040404B
S32D0000D0C000004041000034430000D041000046420000B4420000874300007041000028420000484200002041EB
S32D0000D0E80000344280B582B000AF786039607B68012B36D13B684FF6FF72934231D109211A4802F0A9FC0A2189
S32D0000D110194802F0A5FC194A0021194800F09CFB164A0121174800F097FB0C21164802F037FB0D21154802F002
S32D0000D13833FB0821144802F061FF0021134802F05DFF0121124802F059FF0221114802F055FF0021104803F006
S32D0000D16045FA01210F4803F041FA00BF0837BD4680BD00BFF4160020F816002000001041FC16002004170020A8
S32D0000D1880C1700201017002014170020181700201C17002020170020241700203017002080B500AF4FF6FF7150
S32D0000D1B00120FFF79BFF80BD80B500AF0F4BD3F8A03003F48053002B14BF01230023DBB2002B10D0094BD3F8C4
S32D0000D1D8A030084A23F48053C2F8A030064806F015FC064B1B68054A23F40053136000BF80BD00BF00C004407F
S32D0000D200A41A0020C0F00F4080B400AF124B4FF480725A63114B5B69104A43F4005353610E4B1B680D4A43F4CF
S32D0000D228005313600A4B0C4A1A630C4BD3F888310A4A43F08063C2F88831084B9B68074A43F08063936000BFC3
S32D0000D250BD4680BC704700BF00C00440C0F00F4003010A0000E100E080B400AF334B00225A70324B98221A701B
S32D0000D278304B9B79DBB203F01003002B14BF01230023DBB2002B00D0F2E72A4B9B79DBB29B08DBB203F0030381
S32D0000D2A0022B14BF01230023DBB2002B00D0F0E7224B18221A71214B00225A71204B03F580531A461F4B536478
S32D0000D2C81C4B54225A711B4B9B79DBB203F02003002B0CBF01230023DBB2002B00D0F2E7144B9B79DBB203F0E2
S32D0000D2F04003002B0CBF01230023DBB2002B00D0F2E70E4B1B78DBB20C4A03F03F03DBB213700A4B9B79DBB225
S32D0000D3189B08DBB203F00303032B14BF01230023DBB2002B00D0F0E700231846BD4680BC704700BF004006405B
S32D0000D340007004400000130180B500AF314B03F580539B6B2F4A43F4785302F580529363FFF752FFFFF780FFD0
S32D0000D3682B4B58221A602A4B1B684FF47A7202FB03F3284A1360274B1B681A46234B03F580535B6C1B0E03F0BD
S32D0000D3900F030133B2FBF3F31A46214B1A601D4B03F58053DB6B1B4A43F0225302F58052D363184B03F580539D
S32D0000D3B81B6B164A43F0006302F580521363174B4FF480721A61642002F05AF8134B5B69124A23F0100353615A
S32D0000D3E0104B00221A600F4B10225A610E4803F0FFFB02F001FF02F05FFF0C4802F0A6F80B4806F05BFB4FF496
S32D0000D408FA6002F051F900BF80BD00BF0070044068190020641900206C19002000D003401C1A0020601900200C
S32D0000D430141B002080B500AFFEF785FF00BF80BD80B500AFFEF77FFF00BF80BD80B500AFFEF779FF00BF80BD86
S32D0000D45880B500AFFEF773FF00BF80BD80B500AFFEF76DFF00BF80BD80B500AFFEF767FF00BF80BD80B500AFFF
S32D0000D480FEF761FF00BF80BD80B500AFFEF75BFF00BF80BD80B500AFFEF755FF00BF80BD80B500AFFEF74FFFAE
S32D0000D4A800BF80BD80B500AFFEF749FF00BF80BD80B500AFFEF743FF00BF80BD80B500AFFEF73DFF00BF80BD15
S32D0000D4D080B500AFFEF737FF00BF80BD80B500AFFEF731FF00BF80BD80B500AFFEF72BFF00BF80BD80B500AF3B
S32D0000D4F8FEF725FF00BF80BD80B500AFFEF71FFF00BF80BD80B500AFFEF719FF00BF80BD80B500AFFEF713FF26
S32D0000D52000BF80BD80B500AFFEF70DFF00BF80BD80B500AFFEF707FF00BF80BD80B500AFFEF701FF00BF80BD50
S32D0000D54880B500AFFEF7FBFE00BF80BD80B500AFFEF7F5FE00BF80BD80B500AFFEF7EFFE00BF80BD80B500AF79
S32D0000D570FEF7E9FE00BF80BD80B500AFFEF7E3FE00BF80BD80B500AFFEF7DDFE00BF80BD80B500AFFEF7D7FEA1
S32D0000D59800BF80BD80B500AFFEF7D1FE00BF80BD80B500AFFEF7CBFE00BF80BD80B500AFFEF7C5FE00BF80BD8F
S32D0000D5C080B500AFFEF7BFFE00BF80BD80B500AFFEF7B9FE00BF80BD80B500AFFEF7B3FE00BF80BD80B500AFB5
S32D0000D5E8FEF7ADFE00BF80BD80B500AFFEF7A7FE00BF80BD80B500AFFEF7A1FE00BF80BD80B500AFFEF79BFE19
S32D0000D61000BF80BD80B500AFFEF795FE00BF80BD80B500AFFEF78FFE00BF80BD80B500AFFEF789FE00BF80BDCA
S32D0000D63880B500AFFEF783FE00BF80BD80B500AFFEF77DFE00BF80BD80B500AFFEF777FE00BF80BD80B500AFF0
S32D0000D660FEF771FE00BF80BD80B500AFFEF76BFE00BF80BD80B500AFFEF765FE00BF80BD80B500AFFEF75FFE90
S32D0000D68800BF80BD80B500AFFEF759FE00BF80BD80B500AFFEF753FE00BF80BD80B500AFFEF74DFE00BF80BD06
S32D0000D6B080B500AFFEF747FE00BF80BD80B500AFFEF741FE00BF80BD80B500AFFEF73BFE00BF80BD80B500AF2C
S32D0000D6D8FEF735FE00BF80BD80B500AFFEF72FFE00BF80BD80B500AFFEF729FE00BF80BD80B500AFFEF723FE08
S32D0000D70000BF80BD80B500AFFEF71DFE00BF80BD80B500AFFEF717FE00BF80BD80B500AFFEF711FE00BF80BD41
S32D0000D72880B500AFFEF70BFE00BF80BD80B500AFFEF705FE00BF80BD80B500AFFEF7FFFD00BF80BD80B500AF68
S32D0000D750FEF7F9FD00BF80BD80B500AFFEF7F3FD00BF80BD80B500AFFEF7EDFD00BF80BD80B500AFFEF7E7FD83
S32D0000D77800BF80BD80B500AFFEF7E1FD00BF80BD80B500AFFEF7DBFD00BF80BD80B500AFFEF7D5FD00BF80BD80
S32D0000D7A080B500AFFEF7CFFD00BF80BD80B500AFFEF7C9FD00BF80BD80B500AFFEF7C3FD00BF80BD80B500AFA6
S32D0000D7C8FEF7BDFD00BF80BD80B500AFFEF7B7FD00BF80BD80B500AFFEF7B1FD00BF80BD80B500AFFEF7ABFDFB
S32D0000D7F000BF80BD80B500AFFEF7A5FD00BF80BD80B500AFFEF79FFD00BF80BD80B500AFFEF799FD00BF80BDBC
S32D0000D81880B500AFFEF793FD00BF80BD80B500AFFEF78DFD00BF80BD80B500AFFEF787FD00BF80BD80B500AFE1
S32D0000D840FEF781FD00BF80BD80B500AFFEF77BFD00BF80BD0000000080B584B000AFF8600B467A60FB72FB6893
S32D0000D868FA7A1A71FB6800225A711749786807F00BF90346002B02D0134B7B600AE04FF07E51786807F0ECF8D6
S32D0000D8900346002B02D04FF07E537B60786806F0A3FA09A3D3E9002306F0F6FA02460B461046194606F0D2FD42
S32D0000D8B80246FB681A60FB6818461037BD4680BDABAAAAAAAAAA20400000404180B582B000AF78607B685B7952
S32D0000D8E0002B09D07B6800225A717B6819791E230022034801F064FE00BF0837BD4680BD6019002080B584B090
S32D0000D90800AF786039603B687F2B02DD7F23FB7308E03B6813F1800F02DA8023FB7301E03B68FB737B685B79E1
S32D0000D930FA7B9A4209D07B68FA7B5A717B681979FA7B1E23034801F03BFE00BF1037BD4680BD00BF601900203E
S32D0000D958B0B584B000AF786039603749386807F075F80346002B02D0334B3B6008E03349386807F089F8034640
S32D0000D980002B01D02F4B3B60386806F02DFA04460D467B681B68184606F026FA4FF00002294B06F0A3FB0246A3
S32D0000D9A80B462046294606F073FA02460B461046194606F04FFD03463B604FF00001386807F058F80346002BB9
S32D0000D9D010D0386806F008FA17A3D3E9002306F05BFA02460B461046194606F0EFFC0346FB6018E0386806F06C
S32D0000D9F8F7F94FF00002134B06F04AFA02460B46104619464FF000020D4B06F06BFB02460B461046194606F0B1
S32D0000DA20D5FC0346FB60F9687868FFF76BFF00BF1037BD46B0BD00BF52B81E85EB51F43F0000C8C20000C842DD
S32D0000DA48000059400000604080B483B000AF03460A46FB711346BB71BB79002B03D1134B00221A7002E0114B5C
S32D0000DA7001221A703823FB710E4B1A78FB791343FB710D4B9B78DBB20B4A43F01003DBB29370094B9B78DBB2DC
S32D0000DA98074A43F02003DBB29370054AFB79137100BF0C37BD4680BC704700BF3C1700200060064080B483B0AB
S32D0000DAC000AF01237B607B68312B04DC00BF7B6801337B60F7E700BF0C37BD4680BC704780B582B000AF034685
S32D0000DAE80A46FB711346BB71134B1B7800211846FFF7AAFF00F024F8104AFB79137100F01FF80E4ABB7913714B
S32D0000DB1000F01AF80B4B9B78DBB20A4A23F02003DBB29370074B9B78DBB2064A23F01003DBB29370FFF7C2FF26
S32D0000DB3800BF0837BD4680BD3D1700200060064080B483B000AF174B1B78002B24D100237B60154BDB78DBB2FE
S32D0000DB6003F00203002B0CBF01230023DBB2002B0DD07B6842F21072934203DD0B4B01221A7004E07B68013381
S32D0000DB887B6000BFE5E7084BDB78DBB2064A43F00203DBB2D37000E000BF0C37BD4680BC704700BF3E17002072
S32D0000DBB00060064080B582B000AF0346FB71FB79184600F05FF800BF0837BD4680BD80B582B000AF03460A46D0
S32D0000DBD8FB711346BB7100F035F8FB795B00DBB21846FFF7E3FFBB791846FFF7DFFF00F037F800BF0837BD46F9
S32D0000DC0080BD80B500AFFF2000F03CF80346184680BD80B584B000AF0346FB7100F016F8FB795B005BB243F0D4
S32D0000DC2801035BB2DBB21846FFF7C0FFFFF7E5FF0346FB7300F014F8FB7B18461037BD4680BD000080B400AF52
S32D0000DC50044B9B68034A43F48013936000BFBD4680BC704740F00F4080B400AF044B5B68034A43F48013536057
S32D0000DC7800BFBD4680BC704740F00F4080B485B000AF0346FB710023BB73164BDB6A03F00043012B0CBF012335
S32D0000DCA00023DBB2002B03D0FB7B0133FB73F0E70E4BDB6A0D4A43F00043D3620B4AFB7953630A4BDB6A03F409
S32D0000DCC80033002B0CBF01230023DBB2002B00D0F3E7044B9B6BBB73BB7B18461437BD4680BC704700C00A40FA
S32D0000DCF080B582B000AF204B03F580531B6B1E4A43F4805302F5805213631C4B4FF480721A651B4B5B691A4ADA
S32D0000DD1843F480135361FFF7A3FF164B4FF400725A65144B4FF400729A65124B4FF40072DA65124B124A1A605B
S32D0000DD40104B124ADA6000237B607B68092B06DCFF20FFF72FFF7B6801337B60F5E704A1D1E9000101F0DAFC95
S32D0000DD6800BF0837BD4680BD9A9999999999B93F0070044000A0044040F00F4000C00A40000C00800500003ED0
S32D0000DD9090B486B000AFF860B9607A60FB68534A93420AD1524B03F580535B6B504A43F4806302F580525363E0
S32D0000DDB845E0FB684D4A93420AD14B4B03F580535B6B494A43F4006302F58052536336E0FB68474A93420AD1E1
S32D0000DDE0434B03F580535B6B414A43F4805302F58052536327E0FB68404A93420AD13C4B03F580535B6B3A4AA2
S32D0000DE0843F4005302F58052536318E0FB683A4A93420AD1344B03F580539B6A324A43F4806302F580529362B1
S32D0000DE3009E02F4B03F580539B6A2D4A43F4006302F580529362FB68DB78DBB223F00C03DAB2FB68DA70FB68C1
S32D0000DE5800229A70BB684FF47A7203FB02F27B681B0192FBF3F39CB2FB681B78DBB223F01F03FB75230A9BB2CA
S32D0000DE80DBB203F01F03DAB2FB7D1343DAB2FB681A70E2B2FB685A70BB684FF4FA4203FB02F27B681B0192FB1E
S32D0000DEA8F3F39AB263019BB2D31A9CB2FB689B7ADBB223F01F03FB75E3B203F01F03DAB2FB7D1343DAB2FB6891
S32D0000DED09A72FB68DB78DBB243F00C03DAB2FB68DA7000BF1837BD4690BC704700A006400070044000B00640B6
S32D0000DEF800C0064000D0064000A00E4080B483B000AF78607B681B79DBB203F02003002B0CBF01230023DBB220
S32D0000DF20002B00D0F2E77B68DB79DBB218460C37BD4680BC704780B483B000AF78600B46FB707B681B79DBB2F6
S32D0000DF485BB2DB43DBB2DB09DBB2002B00D0F4E77B68FA78DA7100BF0C37BD4680BC704780B487B000AFF860A2
S32D0000DF70B9607A60FB687B617B685A1E7A60002B14BF01230023DBB2002B06D07B695A1C7A61BA68D2B21A70E4
S32D0000DF98EEE700BF1C37BD4680BC704780B584B000AF786039607B681B6BFB60FA683B689A4252D07B681B79B7
S32D0000DFC0002B35D07B6858787B6803F134010123FA6801F0F7F80346002B14BF01230023DBB2002B01D00123A3
S32D0000DFE83CE07B6800221A717B685A6A7B681B6A1344FA689A4217D27B68DB78FB72FB7A012B11D97B681B6A3C
S32D0000E010FA681344FB607B6858787B6803F134010123FA6801F0CEF8FB7A013BFB72EAE73B68002B15D07B684D
S32D0000E03858787B6803F1340101233A6800F0DAFF0346002B14BF01230023DBB2002B01D0012303E07B683A68AC
S32D0000E0601A63002318461037BD4680BD80B584B000AF786000217868FFF794FF0346FB73FB7B002B40F09380F8
S32D0000E0887B681B78032B7DD17B685B79002B79D07B6800221A637B6834334FF4007200211846FFF75DFF7B6818
S32D0000E0B0552283F832227B68AA2283F833227B68522283F834207B68522283F835207B68612283F836207B6816
S32D0000E0D8412283F837207B68722283F818227B68722283F819227B68412283F81A227B68612283F81B227B688E
S32D0000E1001B69DAB27B6883F81C227B681B699BB21B0A9BB2DAB27B6883F81D227B681B691B0CDAB27B6883F87E
S32D0000E1281E227B681B691B0EDAB27B6883F81F227B68DB68DAB27B6883F820227B68DB689BB21B0A9BB2DAB20B
S32D0000E1507B6883F821227B68DB681B0CDAB27B6883F822227B68DB681B0EDAB27B6883F823227B6858787B6871
S32D0000E17803F134017B685A69012301F01FF87B6800225A717B685B7800220021184601F0E1F80346002B14BF46
S32D0000E1A001230023DBB2002B01D00123FB73FB7B18461037BD4680BD80B582B000AF78600B467B807B68002B4C
S32D0000E1C808D07B681B78002B04D07B68DB887A889A4201D0092311E07B685B78184601F03BF9034603F0010351
S32D0000E1F0002B14BF01230023DBB2002B01D0032300E0002318460837BD4680BD80B586B000AF78607B681A68D6
S32D0000E2187B689B8819461046FFF7CAFF0346FB75FB7D002B40F0AC807B689B7903F02003002B00F0A5807B6876
S32D0000E2409B7903F04003002B1BD07B681B6858787B6803F128017B689A69012300F0B2FF0346002B14BF012304
S32D0000E2680023DBB2002B01D001238AE07B689B7923F04003DAB27B689A717B681A687B68DB6919461046FFF750
S32D0000E29089FE0346FB75FB7D002B75D17B681B6A3B613B690B331A783B690B3342F02002D2B21A707B68DA6856
S32D0000E2B83B691C33D2B21A707B68DB689BB21B0A9AB23B691D33D2B21A707B68DB681A0C3B691E33D2B21A7002
S32D0000E2E07B68DB681A0E3B691F33D2B21A707B681A693B691A33D2B21A707B681B699BB21B0A9AB23B691B3342
S32D0000E308D2B21A707B681B691A0C3B691433D2B21A707B681B691B0C9BB21B0A9AB23B691533D2B21A700023EA
S32D0000E330FB603B691633FA68D2B21A70FB689BB21B0A9AB23B691733D2B21A70FB681A0C3B691833D2B21A7064
S32D0000E358FB681A0E3B691933D2B21A707B689B7923F02003DAB27B689A717B681B6801221A717B681B6818468F
S32D0000E380FFF774FE0346FB75FB7D18461837BD4680BD80B584B000AF78607868FFF736FF0346FB73FB7B002B96
S32D0000E3A802D17B6800221A60FB7B18461037BD4680BD000080B588B000AF7860396080233B610F23FB604FF002
S32D0000E3D0FF337B610223FB61FB69B3F5807F23D80123BB61BB69102B1AD8FB69BA6902FB03F33A6803FB02F2EB
S32D0000E3F87B68D31ABB60BB68002B09DBBB687A699A4205D9BB687B61FB693B61BB69FB60BB690133BB61E1E760
S32D0000E420FB695B00FB61D7E71D4BDB6A1C4A23F00803D3621A4BDB6A23F47F2323F47F63BB613B695B081B02F3
S32D0000E4489AB2FB68013B1B01DBB21A43BB691343114A43F46023D3620F4B5B6A03F00803002B0CBF0123002397
S32D0000E470DBB2002B03D00A2001F01AF9F0E7084BDB6A074A43F00803D362054B1B6B044A43F48013136300BF6F
S32D0000E4982037BD4680BD00BF00100B4080B582B000AF786039607B6800221A60414B424ADA62404BDB6A03F088
S32D0000E4C08073002B14BF01230023DBB2002B00D0F3E73A4B0022C3F8C020384B4FF481325A60364B28229A6258
S32D0000E4E8344B4FF001125A643B689B6833491846FFF760FF2F4B5B6A03F00303002B14BF01230023DBB2002B6D
S32D0000E51000D0F3E72C4B40F243421A602A4B40F243425A60284B4FF488629A60264B40F24342DA60244B40F208
S32D0000E53843421A61224B40F243425A61214B03F580531B6B1F4A43F4003302F580521363184B4FF6FF721A6371
S32D0000E560164B1B4A5A63154BDB6A144A43F00063D362124BDB6A03F00063002B14BF01230023DBB2002B00D077
S32D0000E588F3E70C4B5B6A03F48033002B14BF01230023DBB2002B02D07B6801221A60054B1B6B044A43F080039C
S32D0000E5B01363002318460837BD4680BD00100B400080000160CC050000D0044000700440B3007F0080B400AFDD
S32D0000E5D8064B5A6A40F207331340002B14BF01230023DBB21846BD4680BC704700100B4080B485B000AF7860D0
S32D0000E600074B1B6B7A681340FB60FB68002B00D1F6E7FB6818461437BD4680BC704700BF00100B4080B584B0C3
S32D0000E62800AF78607B681B7803F03F03764A52F82330FB60FB68002B05D17B681B78002B01D00123DCE0714B68
S32D0000E6501B6B704A43F0800313636E4B5B6A03F00103002B14BF01230023DBB2002B00D0F3E7684A7B685B68BC
S32D0000E6789360FB6823F44003FB607B685B789B0503F44003FA681343FB607B685B78022B03D1FB6843F4001362
S32D0000E6A0FB607B685B78042B16D1FB6803F44033B3F5003F08D1FB6823F44033FB60FB6843F44033FB6007E001
S32D0000E6C8FB6823F44033FB60FB6843F40033FB604E4B5B684D4A9BB253607B68DB68002B2AD0FB6803F44033A9
S32D0000E6F0B3F5403F03D0FB6843F40013FB607B681B7A002B03D0FB6843F01003FB607B68DB68012B03D9FB68EF
S32D0000E71843F02003FB607B68DB68B3F1FF3F0BD03A4B5A687B68DB681B04384913434B60FB6843F00203FB603B
S32D0000E740344B00221A60334AFB68D3603248FFF753FF0346012B14BF01230023DBB2002B09D02C4B1B6B2B4A29
S32D0000E76843F4702343F001031363012348E0274B1B6B03F08003002B14BF01230023DBB2002B07D0214B1B6B8C
S32D0000E790204A43F001131363012335E01D4B1B6B03F48033002B14BF01230023DBB2002B08D0184B1B6B174A44
S32D0000E7B843F0011313634FF0FF3321E0FB6803F44033002B15D0114B1A697B681A61FB6803F44033B3F5803FB6
S32D0000E7E00BD10C4B5A697B685A610A4B9A697B689A61084BDA697B68DA61064B1B6B054A43F001031363002397
S32D0000E80818461037BD4680BDA4B1010000100B4001000E0080B592B000AF7860396000237B643B68BB63994BFF
S32D0000E8307B637B6B002B02D140F601235FE3964B3B633B6B002B02D140F60B2357E33B6B1B68FB62FB6A002B85
S32D0000E85802D140F60B234EE37B6841F20932934200F23F837B68B3F5985F08D87B68032B00F01A837B68092B39
S32D0000E88000F0098331E37B68A3F59853013B082B00F22B8301A252F823F000BFC1E80000ADEB000009EE00006E
S32D0000E8A8C3EB000001EC000027ED00006FED0000B1EC0000CBEC00007649786BFFF7EEFD78647B6C002B40F042
S32D0000E8D01083002387F84330002387F82B30002387F82A30002387F82930002387F84230002387F8283000234D
S32D0000E8F83B7200237B720023FB6000233B7400237B6107F108031846FFF788FE0346002B14BF01230023DBB2EE
S32D0000E920002B02D001237B64E8E240F24C4000F0BFFE08233B7200237B724FF4D573FB6000233B7400237B61F5
S32D0000E94807F108031846FFF769FEF863FB6B002B09D1BA69FB689A4202D001237B64C9E2012387F84230012302
S32D0000E97087F8283097F82830002B00F0A58037233B7200237B720023FB6000233B7400237B6107F108031846B4
S32D0000E998FFF744FEF863FB6B002B02D001237B64A8E269233B7200237B720023FB6000233B7400237B6107F13E
S32D0000E9C008031846FFF72EFE0346002B14BF01230023DBB2002B02D001237B648EE2BB6903F44013002B6FD03B
S32D0000E9E80023FB630A2000F05FFEFB6B0133FB6337233B7200237B720023FB6000233B7400237B6107F10803A8
S32D0000EA101846FFF707FE0346002B14BF01230023DBB2002B02D001237B6428E069233B7200237B7297F8423012
S32D0000EA38002B02D0184BFB6002E04FF44013FB6000233B7400237B6107F108031846FFF7E5FD0346002B14BFD1
S32D0000EA6001230023DBB2002B02D001237B6406E0BB69002B03DBFB6B632B00D8B6E77B6C002B40F03882FB6BD6
S32D0000EA88632B0BD9002387F8423019E0541700205819002098B1010000003040012387F8433097F84230002BC9
S32D0000EAB00AD0002387F84230BB6903F08043002B02D0012387F8423097F82A30002B02D07B6B07221A6097F860
S32D0000EAD82930002B02D07B6B08221A6097F82B30002B02D07B6B04221A6097F84330002B09D07B6B02221A6039
S32D0000EB0097F84230002B02D07B6B03221A6097F82B30002B0DD097F84330002B09D07B6B05221A6097F84230E4
S32D0000EB28002B02D07B6B06221A60924B00221A60904B00225A608F4B00229A608D4B0022DA608C4B00221A616C
S32D0000EB508A4B00225A61FB6A9A68FB6A5B6819461046FFF72BFC854B40F243421A60834B40F243425A60814B78
S32D0000EB784FF488629A607F4B40F24342DA607D4B40F243421A617B4B40F243425A617A4B03F580531B6B784A83
S32D0000EBA043F4003302F580521363A7E1B86BFFF739FDF863FB6B002B00F09F8102237B649BE1BB6B002B02D127
S32D0000EBC80C237B6496E16D4BDB6A1B0A5B0003F4FF73FB63694BDB6A1B0903F00F035A1CFB6B02FB03F3FB6307
S32D0000EBF0FB6A9A68FB6BB2FBF3F2BB6B1A607DE1BB6B002B02D10C237B6477E1BB6B1B68002B02D10C237B645B
S32D0000EC1870E1FFF7DBFC0346002B0CBF01230023DBB2002B3CD0534B00221A60514B00225A60504B00229A60FD
S32D0000EC404E4B0022DA604D4B00221A614B4B00225A61FB6A9A68BB6B1B6819461046FFF7ADFB464B40F243425E
S32D0000EC681A60444B40F243425A60424B4FF488629A60404B40F24342DA603E4B40F243421A613C4B40F24342DB
S32D0000EC905A613B4B03F580531B6B394A43F4003302F58052136329E140F60A237B6425E1BB6B002B02D10C23F3
S32D0000ECB87B641FE1314B5B68C3F30C02BB6B1A6018E1BB6B002B02D10C237B6412E1FFF77DFC0346002B0CBFE0
S32D0000ECE001230023DBB2002B19D0BB6B1B68B3F5805F02D30C237B6400E1224B5B68214A23F4FF5323F01F03F1
S32D0000ED0853601E4B5A68BB6B1B68C3F30C031B4913434B60EEE040F60A237B64EAE0BB6B002B02D10C237B6420
S32D0000ED30E4E0144B9B6A5B0803F00303FB63FB6B002B03D1BB6B00221A60D7E0FB6B012B03D1BB6B01221A60CC
S32D0000ED58D0E0FB6B102B03D1BB6B02221A60C9E005237B64C6E0BB6B002B09D10C237B64C0E000BF00D00440A2
S32D0000ED800070044000100B40FFF724FC0346002B0CBF01230023DBB2002B31D0BB6B1B68002B0AD1584B9B6AAA
S32D0000EDA8574A23F006039362554B554A9B6A9362A0E0BB6B1B68012B0CD1514B9B6A504A23F0060393624E4B3B
S32D0000EDD09B6A4D4A43F0020393628FE0BB6B1B68022B0AD1484B9B6A474A23F006039362454B454A9B6A9362D9
S32D0000EDF880E005237B647DE040F60A237B6479E0BB6B002B02D10C237B6473E03C4BDB6A3B4A43F00063D362ED
S32D0000EE20394BDB6A03F00063002B14BF01230023DBB2002B00D0F3E7334B1B6B03F08003002B14BF012300233F
S32D0000EE48DBB2002B08D02E4B1B6B2D4A43F0800313637B6B00221A60294B5B6A03F48033002B14BF01230023C0
S32D0000EE70DBB2002B07D07B6B1B68002B06D17B6B01221A6002E07B6B00221A607B6B1A68BB6B1A6032E0BB6B53
S32D0000EE981C221A60BB6B043304221A60BB6B08334FF41E721A6025E00220FFF7A1FB144B1B6B03F4E003002B46
S32D0000EEC014BF01230023DBB2002B07D00E4B1B6B0D4A43F4E003136304237B640A4B1B6B094A43F032031363A3
S32D0000EEE808E040F609237B6404E000BF02E000BF00E000BF7B6C18464837BD4680BD00BF00100B4080B489B065
S32D0000EF1000AF786039607B687B61364B3B613B69002B01D100235FE03B691B68022B0BD03B691B68032B07D079
S32D0000EF383B691B68072B03D03B691B68082B0BD12B4B5B6A03F00403002B14BF01230023DBB2002B00D0F3E76D
S32D0000EF603B68FB61FB69002B3DD0FB69B3F5007F28BF4FF40073FB60FB6803339B08BB61BB69002B2AD01C4B5D
S32D0000EF881B6B03F4E003002B14BF01230023DBB2002B09D0164B1B6B154A43F4E00343F02003136300231BE0DB
S32D0000EFB0114B5B6A03F40063002B0CBF01230023DBB2002B00D0F3E70B497B691A1D7A610A6A1A60BB69013B81
S32D0000EFD8BB61D1E7FA69FB68D31AFB61BEE7012318462437BD4680BC704700BF5417002000100B4080B58EB098
S32D0000F00000AFB9607A601A460346FB731346BB73414B7B63FB7B002B02D1BB7B002B01D1042375E03D4B1B78FA
S32D0000F028DBB203F00103002B14BF01230023DBB2002B01D0032367E0BB68002B01D1002362E07B6B1B7B002BCF
S32D0000F05002D17B685B027B60BB7B012B28D111233B7500237B757B68BB6101233B77BB7B3B6207F1140319463C
S32D0000F07841F20230FFF7CEFB0346002B0CBF01230023DBB2002B38D04FF40071B868FFF739FF0346002B14BFB7
S32D0000F0A001230023DBB2002B2BD00023BB7328E012233B7500237B757B68BB6101233B77BB7B3B6207F1140340
S32D0000F0C8194641F20230FFF7A5FB0346002B0CBF01230023DBB2002B0FD0BB7B5B021946B868FFF70FFF034644
S32D0000F0F0002B14BF01230023DBB2002B01D00023BB73BB7B002B01D0012300E0002300BF18463837BD4680BDAE
S32D0000F118401700200C00002080B487B000AF786039607B68FB603B687B617B69002B3DD07B69B3F5007F28BFD0
S32D0000F1404FF400733B617A693B69D31A7B613B6903339B083B613B69002BEAD0184B1B6B03F4E003002B14BF9C
S32D0000F16801230023DBB2002B0AD0134B1B6B124A43F4E00343F0100313634FF0FF3316E00D4B5B6A03F480632C
S32D0000F190002B0CBF01230023DBB2002B00D0F3E7FB681A1DFA60064A1B6813623B69013B3B61D0E701231846C1
S32D0000F1B81C37BD4680BC704700100B4080B58EB000AFB9607A601A460346FB731346BB735D4B7B63FB7B002BAB
S32D0000F1E002D1BB7B002B01D10423ADE0594B1B78DBB203F00103002B14BF01230023DBB2002B01D003239FE019
S32D0000F208524B1B78DBB203F00403002B14BF01230023DBB2002B01D0022391E0BB68002B01D100238CE07B6B28
S32D0000F2301B7B002B02D17B685B027B60BB7B012B28D118233B7500237B757B68BB6100233B77BB7B3B6207F109
S32D0000F2581403194641F20230FFF7DCFA0346002B0CBF01230023DBB2002B38D04FF40071B868FFF751FF034638
S32D0000F280002B14BF01230023DBB2002B2BD00023BB7328E019233B7500237B757B68BB6100233B77BB7B3B6269
S32D0000F2A807F11403194641F20230FFF7B3FA0346002B0CBF01230023DBB2002B0FD0BB7B5B021946B868FFF79D
S32D0000F2D027FF0346002B14BF01230023DBB2002B01D00023BB730D233B7500237B757B6B1B69BB6100233B7734
S32D0000F2F800233B6207F11403194641F20230FFF789FA0346002B14BF01230023DBB2002B01D0012314E07A6AC9
S32D0000F3200D4B1340002B01D001230DE07B6A03F4F853B3F5106F00D0D5E7BB7B002B01D0012300E0002300BF15
S32D0000F34818463837BD4680BD401700200C0000200880D9FF80B58CB000AF03463A60FB710B46BB713A4BBB62F9
S32D0000F370FB79002B01D0042369E0012387F82F30364B1B78DBB203F00103002B14BF01230023DBB2002B01D027
S32D0000F398032358E0BB79032B50D801A252F823F0B9F30000C1F30000D1F30000E1F30000002387F82F3044E042
S32D0000F3C0BB6A9A683B681A60002387F82F303CE03B684FF400721A80002387F82F3034E009233B7200237B72CE
S32D0000F3E8BB6A1B69FB6000233B7400237B6107F10803194641F20230FFF70CFA0346002B14BF01230023DBB244
S32D0000F410002B01D001231AE07B6A03F44003002B0CD13B6A9B0C03F07F035A1C7B6A1B0A03F00303013B9A403D
S32D0000F4383B681A60002387F82F3002E0042387F82F3097F82F3018463037BD4680BD00BF401700200C0000204C
S32D0000F46080B483B000AF0346FB71FB79002B01D0012302E0034B1B78DBB218460C37BD4680BC70470C0000200C
S32D0000F48880B483B000AF7860164B03F580539B6B144A43F0010302F580529363124A7B689360114B05225A6073
S32D0000F4B00F4B1B680E4A43F0010313600C4B1B6803F08003002B0CBF01230023DBB2002B00D0F3E7064B1B688C
S32D0000F4D8054A23F00103136000BF0C37BD4680BC704700BF007004400000044080B582B000AF786039607B6814
S32D0000F500012B07D13B684FF6FF72934202D1034800F00EF800BF0837BD4680BD6019002080B500AF4FF6FF7127
S32D0000F5280120FFF7E3FF80BD80B483B000AF78607B6800221A707B6818460C37BD4680BC7047000080B582B021
S32D0000F55000AF78607B681B7883F00103DBB2002B21D0134B03F580531A464FF400639362104B4FF440721A6280
S32D0000F5780E4B4FF440725A620D4B1B68DA0F13445B104FF4614219460A48FEF7FDFB642000F08AF87B68012255
S32D0000F5A01A70012300E0002318460837BD4680BD0070044000D004406419002000B00E4080B582B000AF78605E
S32D0000F5C8084611461A460346FB700B46BB7013467B707F210E48FEF7AAFC08210C48FEF7A6FCFB7819460A48D3
S32D0000F5F0FEF7A1FCBB7819460748FEF79CFC7B7819460548FEF797FCFF210348FEF793FC00BF0837BD4680BD99
S32D0000F61800B00E4080B487B000AFF860B9607A60FB681F4AA2FB03239B09BA6813447B61FB681B4AA2FB03125F
S32D0000F64092094FF47A7101FB02F29B1AFB60FB68DB03154AA2FB03239B097A6813443B613B69DB0B7A69134433
S32D0000F6687B613B69C3F30E033B610E4B1B687A699A4209D80B4B1B687A699A4206D1094B5B683A699A4201D936
S32D0000F690012300E00023002B00D0EAE700BF1C37BD4680BC704700BFD34D621000D0034080B584B000AF7860FD
S32D0000F6B8074B1B68FB60064B5B68BB607B68BA68F9681846FFF7A6FF00BF1037BD4680BD00D0034080B584B0A4
S32D0000F6E000AF78600B4B1B68FB600A4B5B68BB600949786805F010F80346184605F0F8F90346BA68F968184628
S32D0000F708FFF788FF00BF1037BD4680BD00D0034000007A4480B584B000AFC7E900010E4B1B68FB600C4B5B6825
S32D0000F730BB604FF000020B4BD7E9000104F0ACFB02460B461046194604F068FE0346BA68F9681846FFF762FF74
S32D0000F75800BF1037BD4680BD00D0034000408F4080B483B000AF0B4B1B684FF47A7202FB03F37B60074B5B681A
S32D0000F7804FF47A7202FB03F3DB0B7A6813447B607B6818460C37BD4680BC704700D0034080B582B000AF7860C4
S32D0000F7A80B46FB70FB781946786800F005F87B6818460837BD4680BD80B483B000AF78600B46FB707B68FA7819
S32D0000F7D01A707B681B781A46534B9B5C042B00F29E8001A252F823F0FDF7000037F8000071F80000ABF80000A8
S32D0000F7F8E5F800004B4A7B681B7819464A4B53F8213040F2031142F82310484B5A697B681B781946444B53F8B3
S32D0000F820213003F01F03012101FA03F3DB43414913404B6173E0404A7B681B7819463C4B53F8213040F203117F
S32D0000F84842F823103B4B5A697B681B781946364B53F8213003F01F03012101FA03F3DB43344913404B6156E0F2
S32D0000F870334A7B681B7819462D4B53F8213040F2031142F823102F4B5A697B681B781946274B53F8213003F03E
S32D0000F8981F03012101FA03F3DB43284913404B6139E0274A7B681B7819461F4B53F8213040F2031142F8231067
S32D0000F8C0224B5A697B681B781946194B53F8213003F01F03012101FA03F3DB431B4913404B611CE01A4A7B6829
S32D0000F8E81B781946104B53F8213040F2031142F82310164B5A697B681B7819460A4B53F8213003F01F03012135
S32D0000F91001FA03F3DB430F4913404B6100BF00BF0C37BD4680BC7047A4B2010000900440E8B2010000F00F40A7
S32D0000F93800A0044040F00F4000B0044080F00F4000C00440C0F00F4000D0044000F10F4080B485B000AF786044
S32D0000F9600023FB607B681B781A46364B9B5C042B5CD801A252F823F08DF90000ADF90000CDF90000EDF9000072
S32D0000F9880DFA00002E4B1B697A68127811462D4A52F8212002F01F02012101FA02F21340FB603FE0284B1B69A0
S32D0000F9B07A6812781146254A52F8212002F01F02012101FA02F21340FB602FE0214B1B697A68127811461D4A71
S32D0000F9D852F8212002F01F02012101FA02F21340FB601FE01A4B1B697A6812781146154A52F8212002F01F02FC
S32D0000FA00012101FA02F21340FB600FE0134B1B697A68127811460D4A52F8212002F01F02012101FA02F213402C
S32D0000FA28FB6000BFFB68002B14BF01230023DBB218461437BD4680BC704700BFA4B2010000F00F40E8B20100D2
S32D0000FA5040F00F4080F00F40C0F00F4000F10F4080B584B000AF78600B46FB700B23FB73FA7BFB78194678689C
S32D0000FA7800F094F87B6818461037BD4680BD000080B485B000AF78607B68103B002B00DA1F335B11FB60FB687D
S32D0000FAA0022B53D0FB68022B75DCFB68002B03D0FB68012B25D06EE0394BD3F880217B68103B594203F01F0306
S32D0000FAC801F01F0158BF4B42012101FA03F332491343C1F88031304B1A687B68103B594203F01F0301F01F0121
S32D0000FAF058BF4B42012101FA03F3294913430B6049E0274BD3F884217B68103B594203F01F0301F01F0158BFED
S32D0000FB184B42012101FA03F31F491343C1F884311D4B5A687B68103B594203F01F0301F01F0158BF4B42012114
S32D0000FB4001FA03F3164913434B6024E0144BD3F888217B68103B594203F01F0301F01F0158BF4B42012101FABF
S32D0000FB6803F30D491343C1F888310B4B9A687B68103B594203F01F0301F01F0158BF4B42012101FA03F3044910
S32D0000FB9013438B6000BF00BF1437BD4680BC704700E100E080B584B000AF78600B46FB701346BB707B68FA7801
S32D0000FBB81A70BB78FB737B681B781A46574B9B5C042B00F2A68001A252F823F0E9FB000035FC000081FC0000AC
S32D0000FBE019FD0000CDFC0000FB7B1B0403F470234D497A68127810464C4A52F8202043F4897343F0010341F8DE
S32D0000FC082230494B5A697B681B781946454B53F8213003F01F03012101FA03F3DB43424913404B616720FFF7D7
S32D0000FC302BFF72E0FB7B1B0403F470233D497A6812781046394A52F8202043F4897343F0010341F82230384B3E
S32D0000FC585A697B681B781946324B53F8213003F01F03012101FA03F3DB43314913404B616820FFF705FF4CE060
S32D0000FC80FB7B1B0403F470232C497A6812781046264A52F8202043F4897343F0010341F82230274B5A697B68F9
S32D0000FCA81B7819461F4B53F8213003F01F03012101FA03F3DB43204913404B616920FFF7DFFE26E0FB7B1B0491
S32D0000FCD003F470231B497A6812781046134A52F8202043F4897343F0010341F82230164B5A697B681B78194681
S32D0000FCF80C4B53F8213003F01F03012101FA03F3DB430F4913404B616B20FFF7B9FE00E000BF00BF1037BD466E
S32D0000FD2080BD00BFA4B2010000900440E8B2010000F00F4000A0044040F00F4000B0044080F00F4000D004408A
S32D0000FD4800F10F40B0B48BB000AF224B3C1D1D460FCD0FC495E80F0084E80F0000237B627B6A072B30DC1C4B96
S32D0000FD70D3F8A0207B6A9B0028333B4453F8243C012101FA03F31340002B14BF01230023DBB2002B18D0134A2D
S32D0000FD987B6A52F823305A1C10497B6A41F823200D4BD3F8A0207B6A9B0028333B4453F8243C012101FA03F390
S32D0000FDC007491340C1F8A0307B6A01337B62CBE700BF2C37BD46B0BC704700BFECB3010000A0044090190020ED
S32D0000FDE8B0B489B000AF224B3C1D1D460FCD0FC495E8030084E803000023FB61FB69052B30DC1C4BD3F8A020C9
S32D0000FE10FB699B0020333B4453F81C3C012101FA03F31340002B14BF01230023DBB2002B18D0FB690833124A0A
S32D0000FE3852F823200132104941F823200D4BD3F8A020FB699B0020333B4453F81C3C012101FA03F307491340FA
S32D0000FE60C1F8A030FB690133FB61CBE700BF2437BD46B0BC704700BF0CB4010000B0044090190020B0B48DB027
S32D0000FE8800AF234B3C461D460FCD0FC40FCD0FC495E8070084E807000023FB62FB6A0A2B30DC1C4BD3F8A020DD
S32D0000FEB0FB6A9B0030333B4453F8303C012101FA03F31340002B14BF01230023DBB2002B18D0FB6A0E33124A3E
S32D0000FED852F823200132104941F823200D4BD3F8A020FB6A9B0030333B4453F8303C012101FA03F30749134035
S32D0000FF00C1F8A030FB6A0133FB62CBE700BF3437BD46B0BC704700BF24B401000090044090190020B0B487B082
S32D0000FF2800AF214B3C461D460FCD0FC42B68236000237B617B69042B30DC1C4BD3F8A0207B699B0018333B448D
S32D0000FF5053F8183C012101FA03F31340002B14BF01230023DBB2002B18D07B691933124A52F8232001321049F4
S32D0000FF7841F823200D4BD3F8A0207B699B0018333B4453F8183C012101FA03F307491340C1F8A0307B690133BD
S32D0000FFA07B61CBE700BF1C37BD46B0BC704700BF50B4010000D004409019002080B483B000AF78607B681B7868
S32D0000FFC81A46044B53F8223018460C37BD4680BC704700BF9019002080B483B000AF78607B681B781946044B8E
S32D0000FFF0002243F8212000BF0C37BD4680BC70479019002080B483B000AF78600B46FB707B68FA781A707B6818
S32D0001001818460C37BD4680BC704700000000000080B586B000AF78607B681B781A463E4B53F822303B617B68B5
S32D000100401B781A463B4B9B5CFB733B69DBB203F01F03DAB2384B1A723B69DBB203F01F03DAB2354B5A72354B34
S32D000100681022C3F88820FB7B002B13D13049324800F05AFA304B1B6803F08003802B14BF01230023DBB2002B27
S32D0001009000D0F3E72A4B1B697B6112E02649294800F046FA274B1B6803F08003802B14BF01230023DBB2002BD8
S32D000100B800D0F3E7214B1B697B611E4BD3F888311C4A43F01003C2F888311A4B9B68194A43F0100393607B69AF
S32D000100E09BB2184603F05EFE0DA3D3E9002303F0D3FE02460B46104619460BA3D3E9002303F0F4FF02460B464A
S32D000101081046194604F0A6F90346BB60BB6818461837BD4680BD00BFA4703D0AD7A30A4000000000E0FFEF4020
S32D0001013068B30100C4B201007019002000E100E000B0034000B00B4080B586B000AF78607B681B781A46234B7F
S32D0001015853F822303B617B681B781A46204B9B5CFB733B69DBB203F01F03DAB21D4B1A723B69DBB203F01F038D
S32D00010180DAB21A4B5A72FB7B002B13D11749184800F0CEF9164B1B6803F08003802B14BF01230023DBB2002BC0
S32D000101A800D0F3E7104B1B697B6112E00D490F4800F0BAF90D4B1B6803F08003802B14BF01230023DBB2002BB3
S32D000101D000D0F3E7074B1B697B617B6918461837BD4680BD68B30100C4B201008019002000B0034000B00B4099
S32D000101F898B500AF204B5C221A701F4B10225A701D4B41F234225A801B4B45F278629A80194B10229A71184BA3
S32D000102200722DA71164B4FF4C022DA60144B1F221A72134B1F225A721149124800F078F90F49114800F074F9C1
S32D000102480F4800F0D2F80D4800F0CFF80A490C4800F06AF90849094800F066F9094A064B14460FCB84E80F002C
S32D00010270064B5C221A70054B0422DA7100BF98BD7019002000B0034000B00B408019002080B500AF064B1B6829
S32D000102980133054A136000F03DF8044B0122C3F80C2100BF80BD00BF141A00200070034080B500AF0C4B0122A8
S32D000102C01A600C4800F01AF8094B0322C3F80821094BD3F88831084A43F01003C2F88831054B9B68044A43F02B
S32D000102E81003936000BF80BD00700340A086010000E100E080B483B000AF7860044A7B68C2F8003100BF0C373E
S32D00010310BD4680BC704700BF0070034080B584B000AF174B1B68FB60FB68002B24D0FB685B78FB71FB689B6874
S32D00010338184600F023F80346BB71BB79002B13D0FB685B68012B0FDDFB689B681B69BB60BB68002B08D0BB68EA
S32D000103605B685A1CBB685A60BB681B69BB60F3E7FB68DB68FB60D7E700BF1037BD4680BD101A002080B584B004
S32D0001038800AF78607868FFF7DBFEF8607B689B695B78FB72FB7A002B0FD17B68DB68FA689A420ADD7B689B69DF
S32D000103B001225A707B685B685A1C7B685A60012313E0FB7A012B0FD17B689B68FA689A420ADA7B689B690022CF
S32D000103D85A707B685B685A1C7B685A60012300E0002318461037BD4680BD80B485B000AF78607B681B6A23F0FC
S32D0001040040027B681A627B685B6A23F00B027B685A627B685B6A43F007027B685A627B685B6A43F080027B6802
S32D000104285A627B681B6803F08003002B0CBF01230023DBB2002B00D0F3E77B685B6A03F04003402B0CBF012336
S32D000104500023DBB2002B01D0012364E00023FB817B68DB6CFB817B689B6C9AB2FB891344FB817B685B6C9AB2A1
S32D00010478FB891344FB817B681B6C9AB2FB891344FB817B68DB6B9AB2FB891344FB817B689B6B9AB2FB89134415
S32D000104A0FB81FB895B08FB81FB896FEA43436FEA5343FB81FA897B68DA620023FB817B68DB6EFB817B689B6EAB
S32D000104C89AB2FB891344FB817B685B6E9AB2FB891344FB817B681B6E9AB2FB891344FB817B68DB6D9AB2FB8909
S32D000104F01344FB817B689B6D9AB2FB891344FB81FB895B08FB81FB896FEA43436FEA5343FB81FA897B681A6368
S32D000105187B685B6A23F080027B685A62002318461437BD4680BC704780B483B000AF786039603B681B781A46F9
S32D000105407B689A603B685B781A467B68DA603B685B881A467B689A613B689B881A467B68DA613B689B791A469D
S32D000105687B681A623B68DB791A467B685A623B68DA687B681A653B681B7A1A467B681A603B685B7A1A467B6818
S32D000105905A6000BF0C37BD4680BC704780B483B000AF78607B6818460C37BD4680BC704780B582B000AF786034
S32D000105B839607B68012B07D13B684FF6FF72934202D10348FFF7E6FF00BF0837BD4680BD181A002080B500AFF9
S32D000105E04FF6FF710120FFF7E3FF80BD80B483B000AF78600B46FB707B68FA781A707B684FF4FA725A807B6829
S32D0001060840F6C4129A807B68034A9A607B6818460C37BD4680BC7047000080BF80B483B000AF786039603B6890
S32D00010630B3F5FA7F04DB3B6840F6C412934204DD7B684FF4FA725A8004E03B689AB27B685A8000BF00BF0C3779
S32D00010658BD4680BC704780B483B000AF786039603B68B3F5FA7F04DB3B6840F6C412934204DD7B6840F6C412FF
S32D000106809A8004E03B689AB27B689A8000BF00BF0C37BD4680BC70472DE9904385B000AF786039604FF000012C
S32D000106A8386804F0D3F90346002B02D04FF000033B603249386804F0E7F90346002B01D02E4B3B607B689B6872
S32D000106D01946386804F0B4F90346002B00D04BE07B683A689A607B685C887B689B881A467B685B88D31A18462F
S32D000106F803F064FB4FF00002214B03F0F3FC02460B4690469946386803F06AFB02460B464046494603F0BCFB54
S32D0001072002460B461046194603F078FE03469BB22344FB81FB897B73FB891B0A9BB23B737F211248FDF7F7FB84
S32D0001074805211048FDF7F3FB7B681B7819460D48FDF7EDFB3B7B19460A48FDF7E8FB7B7B19460848FDF7E3FB67
S32D00010770FF210648FDF7DFFB00BF1437BD46BDE8908300BF000034430080664000B00E4080B582B000AF786011
S32D00010798B84B4FF48072DA60B74B4FF480729A64B54B4FF480721A64B34B4FF480725A64B14B4FF48072DA607C
S32D000107C0B04B5B69AF4A43F008035361AE4B5B69AD4A43F480235361AB4B5B69AA4A43F480335361A84B5B691B
S32D000107E8A74A43F400335361A54B1B68A44A43F008031360A24B5B69A14A43F0080353619E4B1B689D4A43F0AD
S32D00010810080313609A4B4FF480725A62984B4FF480721A62954B4FF480721A61934B4FF480725A61914B4FF454
S32D0001083880729A618F4B4FF48072DA618D4B4FF480721A638B4B4FF480725A63894B4FF480729A63874B4FF4ED
S32D000108608072DA63854B4FF480721A64834B4FF480725A64814B4FF480729A647F4B4FF48072DA64814B4FF4AB
S32D0001088880721A607F4B4FF480729A607D4B4FF48072DA607B4B4FF480721A61784B5B69774A43F44073536149
S32D000108B0744B5B69734A43F47F2343F0F0035361734B5B69724A43F01D035361E221786800F0A8FD1D2178684B
S32D000108D800F04AFE0221786800F046FE0421786800F042FEE021786800F098FD0121786800F03AFE6420FEF744
S32D00010900D7FEE021786800F08DFD0321786800F02FFE0121786800F085FD0120FEF7C8FEE621786800F07EFDD5
S32D000109280121786800F020FEA021786800F01CFEFF21786800F018FEB021786800F06EFD1C21786800F010FEB8
S32D000109500F21786800F00CFE0121786800F008FE3F21786800F004FE0021786800F000FEEF21786800F0FCFD7C
S32D000109780021786800F0F8FDB421786800F04EFD0121786800F0F0FD9921786800F0ECFD0021786800F0E8FD52
S32D000109A04521786800F0E4FD0221786800F0E0FD0021786800F0DCFD0021786800F0D8FD0021786800F0D4FDEF
S32D000109C8B621786800F02AFD0121786800F0CCFD0921786800F0C8FD0021786800F0C4FD0E21786800F0C0FD4A
S32D000109F00221786800F0BCFD0021786800F0B8FD0021786800F0B4FDBA21786800F00AFD0F21786800F0ACFD89
S32D00010A186420FEF749FE3A21786800F0FFFC6021786800F0A1FD2A21786800F0F7FC0021786800F099FD002124
S32D00010A40786800F095FD0121786800F091FD3F21786800F08DFD2B21786800F0E3FC0021786800F085FD00215C
S32D00010A68786800F081FD0021786800F07DFDEF2178680BE000B0044000A0044080F00F4040F00F4000C00440B1
S32D00010A90C0F00F4000F06CFD3621786800F0C2FC0021786800F064FDF021786800F0BAFC0421786800F05CFDC3
S32D00010AB8B821786800F0B2FC0F21786800F054FD0121786800F050FD314B1B68304A43F0080313606420FEF785
S32D00010AE0E7FD3621786800F09DFC0021786800F03FFDF021786800F095FC0421786800F037FD0121786800F089
S32D00010B08BCF91E226F21786800F082F8AF225621786800F0DBF80021786800F00AFA012301221C49786800F093
S32D00010B302BFA2921786800F075FC6420FEF7B8FDBE21786800F06EFC0E21786800F010FDF021786800F00CFDA9
S32D00010B580121786800F008FD0021786800F004FD0021786800F000FD0F21786800F0FCFC786800F028FA01218B
S32D00010B80786800F0DAF90021786800F0AFF900BF0837BD4680BD00BF40F00F4064B4010080B582B000AF786087
S32D00010BA87B680022DA617B6801221A627B680E225A607B681A229A607B6800225A617B6800229A617B684FF490
S32D00010BD0A072DA607B68F0221A617B6800221A70786801F0F9F97B6818460837BD4680BD80B582B000AF78603A
S32D00010BF8064B1B78002B05D1044B01221A707868FFF7C2FD00BF0837BD4680BD601A002080B58AB002AFF86008
S32D00010C20B9607A607E23009362237A68B968F86800F08DFE40F24E733B610023FB61FA693B699A4240DA0023ED
S32D00010C48BB61214AFB6913441B781A46BB69934232DAFB6901331C4AD35C002B06D1FF23FB75FF23BB75FF230E
S32D00010C707B7512E0FB690133154AD35C012B06D1D423FB750023BB7526237B7505E0B523FB75BA23BB75B0234A
S32D00010C987B757B7DBA7DF97DF86800F0C9F80246FB68DA61F86801F093F9F86801F0CCF8BB690133BB61C4E790
S32D00010CC0FB690233FB61BAE700BF2037BD4680BD1000002080B58AB002AFF860B9607A602723009395237A6807
S32D00010CE8B968F86800F02FFE40F2E6333B610023FB61FA693B699A4240DA0023BB61214AFB6913441B781A4684
S32D00010D10BB69934232DAFB6901331C4AD35C002B06D1FF23FB75FF23BB75FF237B7512E0FB690133154AD35C72
S32D00010D38012B06D10023FB750023BB7500237B7505E0D423FB750023BB7526237B757B7DBA7DF97DF86800F0C3
S32D00010D606BF80246FB68DA61F86801F035F9F86801F06EF8BB690133BB61C4E7FB690233FB61BAE700BF20371A
S32D00010D88BD4680BD6007002080B485B000AF78600B46FB70FB78062B29D801A252F823F0CD0D0100C50D010076
S32D00010DB0D30D0100DB0D0100E30D0100E90D0100F10D01006FF07F43FB6014E00023FB6011E04FF47F03FB6064
S32D00010DD80DE04FF47F43FB6009E0FF23FB6006E04FF41903FB6002E0044BFB6000BFFB6818461437BD4680BC03
S32D00010E00704700BF9999990080B584B000AF786039603B681B0CFB733B681B0ABB733B687B737B7BBA7BF97B9B
S32D00010E28786800F005F8034618461037BD4680BD80B487B000AF7860084611461A460346FB700B46BB70134620
S32D00010E507B70FB789B08DBB27B61BB789B08DBB23B617B789B08DBB2FB607B691A033B699B011A43FB68134335
S32D00010E7818461C37BD4680BC704780B582B000AF78600B46FB70FB7819467868FFF77CFF03461946786800F05F
S32D00010EA004F800BF0837BD4680BD80B582B000AF7860396039687868FFF7A6FF02467B681A62786801F088F84E
S32D00010EC8786800F0E9FB00BF0837BD4680BD80B582B000AF7860786800F0DEFB00BF0837BD4680BD80B582B0CD
S32D00010EF000AF78600B46FB70FB7819467868FFF747FF03461946786800F004F800BF0837BD4680BD80B582B089
S32D00010F1800AF7860396039687868FFF771FF02467B681A62786801F053F800BF0837BD4680BD80B582B000AF8C
S32D00010F4078600B46FB70FB7819467868FFF720FF03461946786800F004F800BF0837BD4680BD80B582B000AF5F
S32D00010F687860396039687868FFF74AFF02467B68DA61786801F02CF800BF0837BD4680BD80B586B000AFF8601E
S32D00010F90B9607A603B6000237B617B69BA6813441B78002B0FD07B69BA6813441B783A687968F86800F00AFEE0
S32D00010FB87B680C337B607B6901337B61E9E700BF1837BD4680BD80B582B000AF7860FCF78BFE67210120FCF7F5
S32D00010FE0F6FD00210220FCF7F2FDA0210320FCF7EEFD50210420FCF7EAFD20210520FCF7E6FD20210620FCF703
S32D00011008E2FD77210720FCF7DEFD00210820FCF7DAFD00210920FCF7D6FD00210A20FCF7D2FD04210B20FCF7DA
S32D00011030CEFD7B684FF0FF32DA637B684FF0FF321A6400BF0837BD4680BD00000000000080B586B000AFF860B5
S32D00011058B9607A600020FCF7D8FD0346FB75FB7D03F00203002B00F0CE80FCF7EBFDE020FCF79CFD0220FEF77E
S32D0001108017FBFCF7F1FD0120FEF712FBFCF7DEFDA520FCF78FFD0120FEF70AFBFCF7B1FD03469BB21B02BB826D
S32D000110A8FCF7ABFD03469AB2BB8A1343BB82FCF7A4FD03469BB21B027B82FCF79EFD03469AB27B8A13437B8252
S32D000110D0BB8A1B09BB827B8A1B097B82FCF7C4FDFB68DB6BB3F1FF3F34D1FB681B6CB3F1FF3F2FD1BA8AFB686E
S32D000110F8DA637A8AFB681A647B8AC3F57F630F337B82BB8A184602F059FE49A3D3E9002302F0BEFE02460B46CB
S32D000111201046194603F09AF90246BB681A607B8A184602F047FE42A3D3E9002302F0ACFE02460B461046194638
S32D0001114803F088F902467B681A605AE0FB68DA6BBB8AD31A1946F86800F074F80346632B0CDCFB681A6C7B8A83
S32D00011170D31A1946F86800F069F80346632B01DC012300E00023002B2FD0BA8AFB68DA637A8AFB681A647B8A80
S32D00011198C3F57F630F337B82BB8A184602F00EFE23A3D3E9002302F073FE02460B461046194603F04FF90246D5
S32D000111C0BB681A607B8A184602F0FCFD1CA3D3E9002302F061FE02460B461046194603F03DF902467B681A600A
S32D000111E80FE0BB68164A1A607B68154A1A60FB684FF0FF32DA63FB684FF0FF321A64002310E001230EE0BB6887
S32D000112100D4A1A607B680C4A1A60FB684FF0FF32DA63FB684FF0FF321A64002318461837BD4680BDAFF3008098
S32D00011238144001144001B43F1EE0011EE001AE3F000080BF80B483B000AF786039603B68002B02DA3B685B424F
S32D000112603B603B6818460C37BD4680BC704780B584B000AF786039600023FB60786800F0D2FAFB683A6813448B
S32D000112881B78002B12D07B6859697B689869FB683A6813441B780246786800F079FC786800F0D1FAFB68013360
S32D000112B0FB60E6E700BF1037BD4680BD80B592B000AF786039604FF00001386803F0D6FB0346002B1FD0386863
S32D000112D803F0E4FB03467B64786C03F0C5F903461946386803F00AF903461F49184603F00FFA0346184603F075
S32D00011300D1FB03463B6407F10C003B6C7A6C194904F076FC22E03B6883F000433B60386803F0C0FB03467B6445
S32D00011328786C03F0A1F903461946386803F0E6F803460D49184603F0EBF90346184603F0ADFB03463B6407F116
S32D000113500C003B6C7A6C084904F052FC07F10C0319467868FFF783FF00BF4837BD4680BD00007A4480B4010013
S32D0001137874B4010080B582B000AF78600B46FB70786800F04CFA7B6859697B689A69FB78786800F0FDFB7868B7
S32D000113A000F055FA00BF0837BD4680BD80B582B000AF78603960786800F035FA39687868FFF755FF786800F080
S32D000113C819FA00BF0837BD4680BD80B582B000AF78603960786800F022FA39687868FFF769FF786800F006FA83
S32D000113F000BF0837BD4680BD80B582B000AF78600B46FB70786800F00EFAFB7819467868FFF7B4FF786800F0E3
S32D00011418F1F900BF0837BD4680BD000080B483B000AF78600B46FB704D4B1B684C4A23F0080313604B4B1B6878
S32D000114404A4A23F480231360484B1B68474A43F480331360454B1B68444A23F440731360414B1B68404A23F42A
S32D00011468435323F0300313603E4B1A68FB785B0203F400733B4913430B603A4B1A68FB785B101B0203F4807390
S32D00011490364913430B60344B1A68FB789B101B0103F01003304913430B602F4B1A68FB78DB105B0103F02003A6
S32D000114B82B4913430B602A4B1A68FB781B119B0103F04003264913430B60254B1A68FB785B11DB01DBB2224993
S32D000114E013430B60204B1A68FB789B111B0303F480531D4913430B601B4B1A6897F90330DB115BB25B0303F408
S32D000115080053174913430B60164B1B68154A23F400331360134B1B68124A43F4003313600F4B1B680E4A43F0BE
S32D00011530080313600D4B1B680C4A43F440731360094B1B68084A43F4435343F030031360064B1B68054A43F457
S32D000115588023136000BF0C37BD4680BC704700BF80F00F4040F00F4080B483B000AF78600B46FB70464B1B689B
S32D00011580454A23F008031360444B1B68434A43F480331360414B1B68404A43F4802313603E4B1B683D4A23F490
S32D000115A8407313603A4B1B68394A23F4435323F030031360374B1A68FB785B0203F40073344913430B60334B03
S32D000115D01A68FB785B101B0203F480732F4913430B602D4B1A68FB789B101B0103F01003294913430B60284B6C
S32D000115F81A68FB78DB105B0103F02003244913430B60234B1A68FB781B119B0103F040031F4913430B601E4B51
S32D000116201A68FB785B11DB01DBB21B4913430B60194B1A68FB789B111B0303F48053164913430B60144B1A68BE
S32D0001164897F90330DB115BB25B0303F40053104913430B600F4B1B680E4A23F4003313600C4B1B680B4A43F49D
S32D0001167000331360084B1B68074A43F008031360064B1B68054A23F48023136000BF0C37BD4680BC704700BFC6
S32D0001169880F00F4040F00F4080B586B000AF78607B6800225A617B6800229A617B681B6AFB60FB68FB72FB683D
S32D000116C01B0ABB72FB681B0CDBB203F003037B722A217868FFF7A6FE00217868FFF748FF00217868FFF744FF6F
S32D000116E801217868FFF740FF3F217868FFF73CFF2B217868FFF792FE00217868FFF734FF00217868FFF730FF29
S32D0001171000217868FFF72CFFEF217868FFF728FF2C217868FFF77EFE314B1B68304A23F4407313602F4B1B6829
S32D000117382E4A23F47F2323F0F00313602C4B1B682B4A23F01D031360274B1A687B681B6B254913430B60254BC7
S32D000117601A687B685B6B234913430B60224B1A687B689B6B204913430B601E4B1B681D4A23F0080313601A4BB7
S32D000117881B68194A43F48023136000237B617B69EF2B19D800233B613B69B3F5A07F0FD2114B1B68104A23F4B6
S32D000117B0003313600E4B1B680D4A43F4003313603B6901333B61EBE77B6901337B61E2E7084B1B68074A43F0F7
S32D000117D808031360044B1B68034A23F48023136000BF1837BD4680BD40F00F4080F00F40C0F00F4080B483B026
S32D0001180000AF78607B689B69002B07DD7B685B695A1C7B685A617B6800229A6100BF0C37BD4680BC704780B554
S32D0001182882B000AF78607B685A697B685B689A4205DB7B6800225A617868FFF72DFF00BF0837BD4680BD80B59B
S32D0001185082B000AF78607B689B695A1C7B689A617B689A697B689B689A4205D17868FFF7C5FF7868FFF7D7FFB1
S32D0001187800BF0837BD4680BD80B586B002AFF860B9607A600123009301237A68B968F86800F059F8F86800F0CD
S32D000118A0D7FA00BF1037BD4680BD80B485B000AF786039607B681B68FB603B681A687B681A603B68FA681A60B7
S32D000118C800BF1437BD4680BC704780B586B002AFF860B9607A603B60BA683B681A447B68009313467A68B968FA
S32D000118F0F86800F0ABF8BA683B68D118BA683B68D0187A68BB691344009303467A68F86800F09CF8BA683B68B7
S32D00011918D1187A68BB69D0187A68BB6913440093BB680246F86800F08DF87A68BB691A447B680093BB68B9687B
S32D00011940F86800F083F800BF1037BD4680BD80B588B000AFF860B9607A603B60FB681B78022B03D0FB681B7879
S32D00011968032B11D17B68FB61BA6AFB691344013BBB61FB68DA68BB68D31A3B613B683A69D31A01337B610DE049
S32D00011990BB68FB613A68FB691344013BBB617B687B61BA6A7B691344013B3B612A21F868FFF738FDFB691B0A9F
S32D000119B8DBB203F00F03DBB21946F868FFF7D4FDFB69DBB21946F868FFF7CEFDBB691B0ADBB203F00F03DBB282
S32D000119E01946F868FFF7C4FDBB69DBB21946F868FFF7BEFD2B21F868FFF714FD7B691B0ADBB203F00F03DBB266
S32D00011A081946F868FFF7B0FD7B69DBB21946F868FFF7AAFD3B691B0ADBB203F00F03DBB21946F868FFF7A0FD46
S32D00011A303B69DBB21946F868FFF79AFD2C21F868FFF7F0FC00BF2037BD4680BD90B58BB000AFF860B9607A60AB
S32D00011A583B603A68BB68D31A1946F868FFF7F2FBF861BA6B7B68D31A1946F868FFF7EAFBB861BA69FB699A420C
S32D00011A80CCBF01230023FB75FB7D002B0CD03A1D07F1080311461846FFF707FF3B4607F138011846FFF701FF65
S32D00011AA8BA683B689A420CDD3A4607F1080311461846FFF7F6FE3B1D07F138011846FFF7F0FE3A68BB689A42F7
S32D00011AD006D1BB687A681946F868FFF7D1FE55E0BA6B7B68D31A184602F0C2FD04463A68BB68D31A184602F002
S32D00011AF8BBFD03461946204602F0BEFE03463B617B68184602F0B0FD03467B62BB683B623B683A6A9A4235DC6C
S32D00011B20FB7D002B14D0786A02F05EF94FF00002184B01F0FBFF02460B461046194602F045FC03463A6A194688
S32D00011B48F868FFF799FE13E0786A02F049F94FF000020E4B01F0E6FF02460B461046194602F030FC03461A46F3
S32D00011B70396AF868FFF784FE3969786A02F0C4FC03467B623B6A01333B62C5E72C37BD4690BD00BF0000E03FBC
S32D00011B9880B584B000AFF860B9607A60FB707A6813465B0013449B00991CBA6813461B011344DA1CFB78F8685C
S32D00011BC000F004F800BF1037BD4680BD80B58EB002AFF860B9607A60FB70FB780A2B06D1F868FFF720FEF86897
S32D00011BE8FFF708FEF2E0FB787D2B02D8FB781F2B01D82023FB70FB78203BFB70112300930C237A68B968F86835
S32D00011C10FFF79DFEFA7813469B0013446F4AD35C3B75FA7813469B00134401336B4AD35C7B75FA7813469B0094
S32D00011C3813440233674AD35CBB75FA7813469B0013440333634AD35CFB75FA7813469B00134404335F4AD35CD6
S32D00011C603B760023BB62BB6A062B00F3A180F86800F050F9F86800F0B3F8002387F82F3000237B627B6A042B51
S32D00011C8835DC07F114027B6A13441B7803F00103002B14BF01230023FB76FB7E002B11D097F82F3083F00103A8
S32D00011CB0DBB2002B03D0F86800F0CAF802E0F86800F08EF8F86800F08BF80DE097F82F30002B03D0F86800F0B4
S32D00011CD81DF902E0F86800F07FF8F86800F07CF8FB7E87F82F307B6A01337B62C6E797F82F30002B03D0F86814
S32D00011D0000F008F902E0F86800F06AF8F86800F067F8002387F82F3000233B623B6A042B42DC07F114023B6A1A
S32D00011D2813441B7803F00103002B14BF01230023BB76BB7E002B11D097F82F3083F00103DBB2002B03D0F868A0
S32D00011D5000F07EF802E0F86800F042F8F86800F03FF80DE097F82F30002B03D0F86800F0D1F802E0F86800F0E7
S32D00011D7833F8F86800F030F8BB7E87F82F3007F114023B6A13441B785B08D9B207F114023B6A13440A461A7013
S32D00011DA03B6A01333B62B9E7BB6A0133BB625AE7F86800F0AFF8002387F82F300123FB61FB69232B06DCF868DB
S32D00011DC800F00AF8FB690133FB61F5E73037BD4680BD00BF480B002080B483B000AF7860174B1B68164A43F4E7
S32D00011DF080331360154B1B68144A23F008031360114B1B68104A43F4802313600E4B1B680D4A23F40033136056
S32D00011E180B4B1B680A4A43F400331360094B1B68084A43F008031360054B1B68044A23F48023136000BF0C3767
S32D00011E40BD4680BC704700BF40F00F4080F00F4080B483B000AF78602B4B1B682A4A43F480331360294B1B68D1
S32D00011E68284A23F008031360254B1B68244A43F480231360224B1B68214A23F440731360204B1B681F4A23F494
S32D00011E907F2323F0F00313601D4B1B681C4A23F01D031360184B1A687B685B6A164913430B60164B1A687B689E
S32D00011EB89B6A144913430B60134B1A687B68DB6A114913430B600E4B1B680D4A23F4003313600B4B1B680A4A98
S32D00011EE043F400331360094B1B68084A43F008031360054B1B68044A23F48023136000BF0C37BD4680BC7047D6
S32D00011F0840F00F4080F00F40C0F00F4080B483B000AF78602B4B1B682A4A43F480331360294B1B68284A23F039
S32D00011F3008031360254B1B68244A43F480231360224B1B68214A23F440731360204B1B681F4A23F47F2323F09B
S32D00011F58F00313601D4B1B681C4A23F01D031360184B1A687B681B6B164913430B60164B1A687B685B6B1449A6
S32D00011F8013430B60134B1A687B689B6B114913430B600E4B1B680D4A23F4003313600B4B1B680A4A43F4003306
S32D00011FA81360094B1B68084A43F008031360054B1B68044A23F48023136000BF0C37BD4680BC704740F00F40F8
S32D00011FD080F00F40C0F00F4080B485B000AF78607B681B6AFB60FB68FB72FB681B0ABB72FB681B0CDBB203F0E2
S32D00011FF803037B727B6800225A627B6800229A627B680022DA627B6800221A637B6800225A637B6800229A637E
S32D000120207B681A6BFB7A5B0203F400731A437B681A637B681A6BFB7A5B101B0203F480731A437B681A637B6841
S32D000120485A6BFB7A9B101B0103F010031A437B685A637B685A6BFB7ADB105B0103F020031A437B685A637B680B
S32D000120705A6BFB7A1B119B0103F040031A437B685A637B685A6BFB7A5B11DB01DBB21A437B685A637B685A6B75
S32D00012098FB7A9B111B0303F480531A437B685A637B685A6B97F90B30DB115BB25B0303F400531A437B685A6302
S32D000120C07B685A6BBB7A9B0303F480431A437B685A637B685A6BBB7A5B10DB039BB21A437B685A637B685A6BA7
S32D000120E8BB7A9B101B0403F480331A437B685A637B685A6BBB7ADB105B0403F400331A437B685A637B685A6B2D
S32D00012110BB7A1B119B0403F480231A437B685A637B685A6BBB7A5B11DB0403F400231A437B685A637B689A6BE2
S32D00012138BB7A9B1103F001031A437B689A637B689A6B97F90A30DB115BB29B0003F004031A437B689A637B6803
S32D000121609A6B7B7ADB0003F008031A437B689A637B689A6B7B7A5B101B0103F010031A437B689A637B68DB6972
S32D00012188FB60FB68FB72FB681B0ABB72FB681B0CDBB203F003037B727B685A6AFB7A5B0203F400731A437B6828
S32D000121B05A627B685A6AFB7A5B101B0203F480731A437B685A627B689A6AFB7A9B101B0103F010031A437B6851
S32D000121D89A627B689A6AFB7ADB105B0103F020031A437B689A627B689A6AFB7A1B119B0103F040031A437B684D
S32D000122009A627B689A6AFB7A5B11DB01DBB21A437B689A627B689A6AFB7A9B111B0303F480531A437B689A621A
S32D000122287B689A6A97F90B30DB115BB25B0303F400531A437B689A627B689A6ABB7A9B0303F480431A437B6844
S32D000122509A627B689A6ABB7A5B10DB039BB21A437B689A627B689A6ABB7A9B101B0403F480331A437B689A62A9
S32D000122787B689A6ABB7ADB105B0403F400331A437B689A627B689A6ABB7A1B119B0403F480231A437B689A62AE
S32D000122A07B689A6ABB7A5B11DB0403F400231A437B689A627B68DA6ABB7A9B1103F001031A437B68DA627B68F4
S32D000122C8DA6A97F90A30DB115BB29B0003F004031A437B68DA627B68DA6A7B7ADB0003F008031A437B68DA625E
S32D000122F07B68DA6A7B7A5B101B0103F010031A437B68DA6200BF1437BD4680BC704780B483B000AF78607B68C9
S32D0001231818460C37BD4680BC704780B584B000AFF860B9607A603B60FB682033B968184603F082FCFB687A6816
S32D000123401A60FB683A689A60FB68BA691A61FB68FA695A61FB681A68FB681B691A44FB685A60FB689A68FB6864
S32D000123685B691A44FB68DA60FB683A6A9A61FB687A6ADA61FB680022C3F8E82000BF1037BD4680BDF0B585B09B
S32D0001239002AF78607B689B6919461F48FEF7E1FD7B6819687B689A687B6818697B685B69009303461848FFF78F
S32D000123B88CFA7B68DB6919461548FEF7CEFD7B6803F120047B681B681D467B681B691E467B682033184603F0B7
S32D000123E08FFC024613465B0013449B00F31A5B082B4418467B689A687B685B69113BD90F0B445B1013440246FF
S32D0001240821460348FEF7BCFD00BF0C37BD46F0BD1C1A002080B584B002AF78607B689B6919461F48FEF799FD13
S32D000124307B681B68591C7B689B685A1C7B681B69981E7B685B69023B009303461648FFF740FA7B681B68991CC0
S32D000124587B689B689A1C7B681B69181F7B685B69043B009303460E48FFF72FFA7B681B68D91C7B689B68DA1CAD
S32D000124807B681B69981F7B685B69063B009303460548FFF71EFA7B680122C3F8E82000BF0837BD4680BD00BF2A
S32D000124A81C1A002080B584B002AF786000211F48FEF753FD7B681B68D91C7B689B68DA1C7B681B69981F7B68B8
S32D000124D05B69063B009303461648FFF7FAF97B681B68991C7B689B689A1C7B681B69181F7B685B69043B0093E7
S32D000124F803460E48FFF7E9F97B681B68591C7B689B685A1C7B681B69981E7B685B69023B009303460548FFF7E7
S32D00012520D8F97B680022C3F8E82000BF0837BD4680BD00BF1C1A002080B584B000AFF860B9607A603B60FB683F
S32D000125481B68184602F090F80246BB681946104602F086FA0346002B00F08180FB685B68184602F081F80246DB
S32D00012570BB681946104602F081FA0346002B72D0FB689B68184602F073F802467B681946104602F069FA0346A2
S32D00012598002B64D0FB68DB68184602F065F802467B681946104602F065FA0346002B56D03A1D07F108031946DE
S32D000125C02B48FEF745FDFB681B68184602F050F80246BB681946104602F046FA0346002B3FD0FB685B6818466B
S32D000125E802F042F80246BB681946104602F042FA0346002B31D0FB689B68184602F034F802467B681946104613
S32D0001261002F02AFA0346002B23D0FB68DB68184602F026F802467B681946104602F026FA0346002B15D03B681C
S32D00012638002B10D1FB68D3F8E830002B03D1F868FFF7E8FE07E0FB68D3F8E830002B02D0F868FFF727FF01231C
S32D0001266002E0002300E0002318461037BD4680BD1C1A002080B586B000AFF860B9607A60BB687B617B683B6125
S32D0001268879693A690123F868FFF752FF0346002B14BF01230023DBB2002B08D007F1100207F1140319460448F1
S32D000126B0FEF7CEFCE8E700BF1837BD4680BD00BF1C1A0020B0B592B004AFF860B9607A603B60FB6C7B633B68E2
S32D000126D83B63F86C01F072FB02460B464FF000004E4901F01DFA02460B4614461D46386D01F064FB02460B4618
S32D000127002046294601F010FA02460B461046194601F0A4FE03463B62386801F053FB02460B464FF000004049D3
S32D0001272801F0FEF902460B4614461D46B86C01F045FB02460B462046294601F0F1F902460B461046194601F067
S32D0001275085FE0346FB61786801F08AFF03461946386A02F08DF80346184602F09BF90346BB61B86801F07CFFF9
S32D0001277803461946F86902F07FF80346184602F08DF903467B6100237B620123BB62BA6ABB689A423DDC0123DB
S32D000127A0FB62FA6A7B689A422DDC7B6AEC2202FB03F3FA68D0187A6A13469B0013449B001A467B6D9918FB6D26
S32D000127C80393BB6D02937B690193BB6900933B6B7A6BFFF7A2FD7B6AEC2202FB03F3FA6813441846FFF7CEFD82
S32D000127F07B6A01337B627A6BBB6913447B63FB6A0133FB62CDE73A6B7B6913443B63FB6C7B63BB6A0133BB62A3
S32D00012818BDE700BF3837BD46B0BD00BF0000744000006E4080B582B000AF786039607B68012B07D13B684FF6D8
S32D00012840FF72934202D10348FEF7AAF900BF0837BD4680BD1C1A002080B500AF4FF6FF710120FFF7E3FF80BD0A
S32D0001286880B582B000AF7860164B03F580535B6B144A43F0400302F580525363124B4FF400725A62104B4FF4A2
S32D0001289000721A620F4B14225A700E4B1B7ADBB20C4A43F00103DBB213720A4B80229A7002212B20FBF714F949
S32D000128B83D212A20FBF710F97B6818460837BD4680BD00BF0070044000C004400060064080B582B000AF786083
S32D000128E039607B68012B07D13B684FF6FF72934202D10348FFF7B8FF00BF0837BD4680BD641A002080B500AF90
S32D000129084FF6FF710120FFF7E3FF80BD80B582B000AF78600B46FB707B68FA7811461846FDF76CFB7B68184665
S32D000129300837BD4680BD000080B582B000AF786039607B68012B08D13B684FF6FF72934203D120210348FFF706
